:020000040800F2
:10000000F0FF001069FD05088F5A030881EB000816
:1000100009FE050809FE050809FE050800000000A4
:100020000000000000000000000000008D5A0308DE
:100030008B5A030800000000895A03085D55020826
:1000400009FE050809FE050809FE050809FE050860
:1000500009FE050809FE0508A55F0208D16002082F
:1000600095600208596002081D600208199B040887
:10007000099B0408F99A0408E99A0408D59A040827
:10008000C19A0408AD9A040809FE050809FE05088E
:1000900009FE050809FE050809FE0508E15F0208DA
:1000A000F9340208953A020829340208653B02082F
:1000B000D5390208153902084938020831A4040864
:1000C00039A4040825A404082DA4040809FE050881
:1000D00009FE05080D57020809FE050855560208D5
:1000E000695F020809FE050875A003085933020874
:1000F000C935020889320208A9360208999A04080B
:1001000009FE050809FE05087937020809FE0508F9
:1001100009FE050809FE0508B11C0308391B030880
:10012000859A0408719A04085D9A0408499A04089B
:10013000359A040809FE050809FE050809FE0508A8
:1001400009FE050809FE050809FE0508A18E030839
:10015000219A04080D9A0408F99904089D5502088B
:1001600019A4040821A4040809FE050809FE0508CD
:1001700009FE050809FE050809FE050809FE05082F
:0801800009FE050809FE05084F
:0801880010F905000100000060
:100190003810010001000000B81B00200C1F0020D7
:1001A0000000000040090008012001000C000000D0
:1001B000A4330020143B0020000000004209000886
:1001C0000A700100280000003C320020203B002083
:1001D00000000000597801080ED0030092010000D1
:1001E000A8300020483B00200000000055A504086E
:1001F0000101010004000000F42F0020DC3C00207D
:1002000000000000000000000001010004000000E8
:10021000EC2F0020E03C0020000000004E09000808
:100220000201010003000000E82F0020E43C002050
:100230000000000005A20308220201001C010000CA
:1002400028380020E83C002000000000C1F7030827
:100250000C200600CC00000084320020043E002068
:1002600000000000C9A10308010201000500000010
:1002700000300020D03E00200000000051000108A6
:100280000002010005000000D0360020D83E00200A
:1002900000000000000000001B0201001000000030
:1002A0009C360020E03E002000000000C5F303085B
:1002B0001B1001000C00000094200020F03E0020E4
:1002C00000000000650F010821020100F00000009D
:1002D000181F0020FC3E002000000000410E010815
:1002E0002C00040010000000104B0020004B0020E8
:1002F00000000000A19701082B001200240000005C
:10030000444B0020204B00200000000071970108A2
:100310002920140078000000CC490020684B002000
:1003200000000000000000001C0202001C00000091
:1003300044450020E04B0020000000001DF60308AB
:10034000281001001600000040480020FC4B00204F
:1003500000000000499C0108041201000200000096
:1003600010490020144C0020000000005209000831
:100370000F020100010000000C490020184C002071
:1003800000000000540900081400010003000000F0
:100390002C4800201C4C00200000000056090008DA
:1003A0002802040004000000784C0020804C00204B
:1003B00000000000C1F3030827020400040000004D
:1003C000744C0020844C002000000000B5F30308AA
:1003D0001A0201003C0000002C4C0020884C002038
:1003E0000000000059F50308270001000400000088
:1003F000704C0020C44C0020000000005A09000886
:100400000A02010014000000385900204C5C002052
:100410000000000021D30208F62101000C000000BA
:10042000B0530020605C002000000000600900085C
:100430000300010001000000485400206C5C002013
:100440000000000000000000031201003D00000059
:100450000C5C0020705C0020000000006C090008AB
:1004600025201E002C01000074590020B05C0020E3
:100470000000000000000000101001000200000059
:100480009C530020DC5D002000000000AA09000849
:1004900005020100040000007C6900209069002032
:1004A00000000000AC090008030101000A00000080
:1004B000386700209469002000000000614F0308A5
:1004C0000E0201000200000084670020A0690020E5
:1004D00000000000B0090008130201000400000041
:1004E000045E0020A469002000000000B20900089A
:1004F00007020100020000009C6A00203C6B002003
:1005000000000000B6090008020001000C00000015
:10051000746A0020406B0020000000000000000012
:10052000060203000C000000686A00204C6B0020EB
:1005300000000000B1F603081D02010002000000E7
:100540002C6A0020586B002000000000B809000849
:100550001F020800100000001C7600200C7600200E
:100560000000000009F30308100201000100000070
:1005700058A9002054A9002000000000BA09000872
:1005800019000100050000002CAE002054AF00202F
:1005900000000000BC0900081A0001000E00000065
:1005A000B4AD00205CAF002000000000C2090008CC
:1005B000F8210100060000007CAC00206CAF002098
:1005C00000000000D0090008203201000A000000ED
:1005D00084AC002074AF00200000000035A50408A2
:1005E00015001000700000008CAA002080AF0020D1
:1005F00000000000000000002A0008006000000069
:1006000094AE0020F0AF0020000000000DA504080B
:100610002312010010000000DCB9002068BA00209D
:1006200000000000D80900080510010006000000C5
:10063000D4B9002078BA002000000000E8090008C2
:10064000371001002E00000014BA002080BA0020EC
:1006500000000000EE09000816100100060000006E
:10066000B4B30020B0BA0020000000001C0A00084B
:100670002F1001002200000044BA0020B8BA002068
:1006800000000000220A00081E0001000700000010
:10069000D0B40020DCBA002000000000440A0008AA
:1006A000231001000E00000010B50020E4BA002065
:1006B00000000000B5780108F5610100CC000000E1
:1006C0009CB20020F4BA0020000000005D0D01087B
:1006D000261001000E000000D0BB0020C0BB00208F
:1006E000000000004D4B05080B3001001A0000000F
:1006F00080B200200CBC0020000000004C0A000862
:100700001F3001002400000058B2002028BC002047
:1007100000000000680A00080D000100340000001D
:10072000A0E70020F0F00020000000004581000854
:10073000090201000100000008E7002024F1002068
:10074000000000008C0A000804000800800000007F
:1007500084E6002028F100200000000000000000D6
:10076000130001000400000064E60020A8F100204E
:1007700000000000900A0008FD01010024000000B4
:1007800024E60020ACF10020000000004F1A02080F
:100790001820010030000000F0E50020D0F100201A
:1007A00000000000C5F40308061001001C00000052
:1007B00078BC002000F200200000000021F90308AE
:1007C000FB01010001000000B4E500201CF2002044
:1007D00000000000F5F80308FC010100090000001A
:1007E00080E4002020F200200000000005F903084A
:1007F000F70101000600000078E400202CF2002040
:1008000000000000940A0008160215003F000000D6
:1008100094BC002034F200200000000085F803089A
:1008200034000100100000006CE3002074F200208E
:100830000000000005A604081102010008000000E5
:1008400044E3002084F20020000000009A0A00081F
:1008500012120100040000003CE300208CF2002092
:1008600000000000A20A0008122001001000000091
:100870002CE3002090F2002000000000A60A0008EF
:10088000FF110100060000000CDF0020A0F2002094
:100890000000000029F30308081203000F00000005
:1008A00088DF0020A8F200200000000045F30308C4
:1008B000F90101000400000008DF0020B8F2002068
:1008C00000000000FD1A0208FA0101000300000008
:1008D0007CD80020BCF2002000000000398502080E
:1008E000020201000300000070BC0020C0F20020E2
:1008F00000000000000000000C02010004000000E5
:100900005CBC0020C4F20020000000009DF303083E
:10091000110001000C000000F2CC0020C8F2002001
:10092000000000009D810008FE010100140000008D
:1009300098C70020D4F2002000000000D9F203087C
:100940000000E8036400040A000114001E00900186
:100950000000111800000300000020030000000048
:100960000000000001000000020200000000000082
:100970000000000000000000000000000000000077
:100980000000000000000000000000000000000067
:100990000000000000000000000000000000000057
:1009A0000000000000000000010000050000000041
:1009B000000000000135023C00000000000028019A
:1009C00000007E05EA05B4053200E803D007000008
:1009D0000401F40114000000000000000000000009
:1009E00000000000000000002000020100002000C4
:1009F0003200C800D00796001400320028004C04D2
:100A000040060005500014000F00080064000100BB
:100A1000010005000A000000F4019600C40900006E
:100A200019000000000000000000000000000000AD
:100A300000000000000000000000000000000000B6
:100A4000000000000000010000000000AE014A01AB
:100A50005E012C0164010100000001000A019A01FD
:100A6000001E0A000000000000000000000100005D
:100A7000000500000102030000000000000000006B
:100A800000000000000000000080070028000000B7
:100A9000002044302401000000000000000001019B
:100AA0000101FFFFFFFF000000010000054F42535E
:060AB000440000080002F2
:100AB60001000000A00F0000B80B00000102FFFFBC
:100AC60001000000685E0C00020000003D7E030885
:100AD600634A0308D17D0308000000004549030866
:100AE600A9860308157D0308857903080000000020
:100AF6000000000005490308CD470308BF47030867
:100B06000D78030829780308F1770308D5770308D9
:100B1600BB770308F37D0308414A0308177D0308E2
:100B2600000000001D49030887790308E97C0308D3
:100B3600F3780308000000000000000011490308D4
:100B460000000100E0010000FFFFFFFF01FF0100C0
:100B5600DD030108000000000C1D0608FFFFFFFF73
:100B6600080000004257020000000106425702003A
:100B7600000001060000000000000000FC36060828
:100B86000000000000000000A83606080101FF0072
:100B9600FFFFFFFF2D202D2D202D2D2D2D202D2D5E
:100BA6002D2D0000000000000000000000000000E5
:100BB6000000002D202D2D202D2D2D2D202D2D2D0D
:100BC600000000000000000000000000000000001F
:100BD6000000000000000000000000003836060893
:100BE60001000000FA000000010000000100000002
:100BF600A03300200000F401010000009E33002015
:100C06000000F401010000009C3300200000F40104
:100C1600010000009A3300200000F40101000000EA
:100C2600983300200000F4010100000096330020F4
:100C36000000F40101000000943300200000F401DC
:100C460001000000CD0B0108910B0108E422060803
:100C56008433002005320100923300206400F40141
:100C660001000000903300206400C4090100000068
:100C760082330020E803D007010000008033002003
:100C8600E803D007010000007E330020E803D00708
:100C9600010000007C3300201E00B80B010000009C
:100CA6008A33002005000F00010000008C3300206D
:100CB60003000A00010000007A3300201E00F40140
:100CC600010000008E330020020000007023060899
:100CD60078330020140064000100000086330020F1
:100CE6003200E80301000000763300200000C8004F
:100CF600010000008332002000C80100823200207B
:100D06000050010081320020005A01007F3200208D
:100D1600020000007C2306089CAD0608A4AD060868
:100D260026E800200100C4090000000024E8002095
:100D36000100C4090000000022E800200100C409E7
:100D46000000000020E800200100C40900000000A7
:100D56001CE800200100C409000000001EE8002075
:100D66000100C409000000001AE800200100C409BF
:100D76000000000018E800200100C409000000007F
:100D86001730002000C801001630002000C80100FE
:100D9600143000200100C8000100000012300020BD
:100DA6003200307532000000103000200582050048
:100DB6000E30002005002C01050000000D3000203B
:100DC600055A05000A30002000FF01000C30002003
:100DD60002000000F003002008300020030000009D
:100DE600709406080930002000FF01000B30002037
:100DF60002000000F003002007300020030000007E
:100E060070940608210B0108B10A01088823060818
:100E1600B4330020EE02CA0801000000B2330020FD
:100E260000C8010064000000B133002000C80100C2
:100E360064000000B033002002000000942406087D
:100E4600FA2F002080C1803E05000000F82F002008
:100E560080C1803E05000000F22F002080C1803E48
:100E660005000000F02F002080C1803E0500000034
:100E7600EB2F002000FF0100E62F00206400F401A4
:100E860001000000E42F002004000000A024060852
:100E9600E32F002002000000B4240608973000204B
:100EA6000D000000C02406089430002000640100F4
:100EB60092300020320010270A00000090300020F7
:100EC6000D000000C02406088F3000200D00000031
:100ED600C02406088E30002002000000F824060810
:100EE600A503010800000000042506082869002063
:100EF6009CFF2C0100000000D8390020E0150C17DB
:100F06000000000025370020020000003C250608EE
:100F1600C03300200100FF7F01000000BF33002026
:100F26000200000048250608993000200300000052
:100F360058250608983000200300000058250608AA
:100F4600703200200000E803010000006E3200202D
:100F56000000E803010000006C3200200000E803F6
:100F6600010000006A3200200000E80301000000D2
:100F7600683200200000E80301000000663200200D
:100F86000000E803010000006532002000140100A3
:100F96006432002003000000682506087E32002027
:100FA60002000000782506087C3200200000F401CB
:100FB600010000007A3200200000F4010100000068
:100FC600783200200000F401010000007632002093
:100FD6000000F40101000000743200200000A00FA0
:100FE60001000000723200200000A00F0100000086
:100FF6006333002019640100623300200200000000
:101006008425060860330020E803D0070A000000A4
:101016005E330020006401000A0000005333002004
:101026000064010052330020006401005A3300209E
:10103600006401000A00000059330020006401002A
:101046000A00000058330020006401000A00000076
:101056005D330020006401000A0000005C330020BC
:10106600006401000A0000005B33002000640100F8
:101076000A0000005733002001FF01000A000000AB
:101086005633002001FF01000A00000055330020FE
:1010960001FF01000A000000A23000200000F40158
:1010A60001000000A03000200000A00F0100000099
:1010B6009E3000200000A00F010000009C300020A0
:1010C6000000A00F010000009A3000200000A00FD1
:1010D600010000003737002000C801003637002025
:1010E6000064010035370020006401003437002019
:1010F600006401003337002000640100323700200D
:10110600FF08010031370020016401001D0A0108B3
:10111600E1090108902506083A370020016401001C
:101126003937002001000000002606083837002065
:10113600040000000826060830370020006401007D
:101146002E3700201400E803010000002C37002091
:10115600E80330750A0000002B37002000C80100A4
:101166002A37002000C801002937002000C80100E6
:1011760028370020003201002737002000640100D4
:101186000A000000483700200000D00701000000D8
:101196004337002000C801004237002000C8010084
:1011A6004137002000C80100463700200000D00764
:1011B600010000004037002000C801003F37002032
:1011C60000C801003E37002000C801004437002057
:1011D6000000D007010000003D37002000C80100D4
:1011E6003C37002000C801003B37002000C8010042
:1011F60000000000B50701081C2606088B300020F9
:10120600005A01008C3000203B000000B82606087A
:101216008A30002000C8010088300020E803D0078B
:10122600010000004F4D4E49425553463453440089
:1012360006300020000301000530002000030100F5
:10124600E9060108AD060108A82706087106010887
:101256002D0601083428060825070108513801081B
:10126600B4280608FC2F002001030100350C0108F4
:10127600090C0108E02B0608B105010865050108FF
:10128600502C0608CB070108F95E0108EC2C06086D
:10129600A962010800000000942D0608D53C01084B
:1012A600950C0108302E06082D08010800000000E4
:1012B600B02E060805090108B1080108142F060812
:1012C6009D09010859090108B02F0608DD760108B5
:1012D600590A01083C300608753300200106010052
:1012E6007508010841080108383106082376010807
:1012F600B5380108A8310608217701086D390108BB
:10130600DC32060874330020010301007907010866
:101316003D070108B0330608610C01080000000013
:1013260020340608FD050108213801088434060822
:10133600000000000000000010350608890A0108B8
:10134600E539010890350608DE2F002088136F174F
:1013560001000000E02F002088136F170000000036
:101366006AE80020000000000000000068E8002095
:10137600000000000000000066E8002000000000F9
:101386000000000064E800200000000000000000EB
:1013960062E80020000000000000000060E8002075
:1013A60000000000000000003C10002000000000CB
:1013B600000000006E2F00200300000044370608DE
:1013C600DC2F002088136F170100000072690020CF
:1013D60088136F1700000000A50401080000000034
:1013E600543706082637002001000000A8370608F3
:1013F6007469002001000000B43706086A690020FD
:1014060002000000BC3706080000000000000000D3
:10141600C83706088D040108000000006438060875
:101426000000000000000000B838060800000000B8
:101436000000000028390608E22F00200200000004
:10144600603906086E690020E0150C1700000000E0
:101456000442002058420020D6010100000101018B
:1014660000FF0101FFFF0000FFFFFFFF38FD060838
:1014760000000802050303000000000040FD060806
:101486000100080205040300000000007C080708AC
:101496000200FE0101100300000000002CB2060845
:1014A60003001402000300000000000048FD0608C7
:1014B60004001F02020008000000000050FD06089C
:1014C60005001F0202010800000000004DFF03088E
:1014D6005DF803083DFF03080DF40308E9FE030861
:1014E60091FE0308FDF30308300C0020D5470408DD
:1014F60015F4030811F4030809F4030899F903081D
:1015060005F4030801F4030830730608458603084A
:10151600234A030829850308000000000000000094
:10152600C17C0308D17B0308000000000000000016
:1015360000000000F9480308ADF40308A1F403080D
:10154600A9FF0308C5FF030859F403088DFF030824
:1015560071FF0308FF01FF00008002021F00000068
:1015660053544D202020202050726F647574202023
:101576002020202020202020302E30310000803FE7
:101586000000000000000000000000007DD50008FB
:10159600000000000000000000000000FFFFFFFF49
:1015A600FF0000000403090412010002EF020140DB
:1015B60083045632000201020301000012010002F8
:1015C60002020040830440570002010203010000AA
:1015D60009022000010104C03209040000020806C5
:1015E6005005070581024000000705010240000082
:1015F60009026400030100C032090400000103006F
:1016060000000921110100012226000705830308B5
:10161600000A080B0102020201000904010001028E
:101626000201000524001001052401000204240221
:10163600020524060102070582030800FF090402C9
:1016460000020A00000007050102400000070581AC
:101656000240000009024300020100C032090400F2
:101666000001020201000524001001052401000109
:10167600042402020524060001070582030800FF70
:1016860009040100020A00000007050102400000EB
:101696000705810240000000FF00000000FF000077
:1016A600000000000000AA5507010000010000002C
:1016B60000600240106002400000000000000000D0
:1016C600000B000000000000000000000000000009
:1016D6000060024028600240010000000000000097
:1016E600060C0000000000000000000000000000E2
:1016F600006002404060024002000000000000005E
:10170600100D0000000000000000000000000000B6
:101716000060024058600240030000000000000024
:10172600160E00000000000000000000000000008F
:1017360000600240706002400400000000000000EB
:10174600200F000000000000000000000000000064
:1017560000600240886002400500000000000000B2
:10176600261000000000000000000000000000003D
:1017760000600240A0600240060000000000000079
:101786003011000000000000000000000000000012
:1017960000600240B8600240070000000000000040
:1017A600362F0000000000000000000000000000CE
:1017B60000640240106402400000000000000000C7
:1017C60000380000000000000000000000000000DB
:1017D600006402402864024001000000000000008E
:1017E60006390000000000000000000000000000B4
:1017F6000064024040640240020000000000000055
:10180600103A000000000000000000000000000088
:10181600006402405864024003000000000000001B
:10182600163B000000000000000000000000000061
:1018360000640240706402400400000000000000E2
:10184600203C000000000000000000000000000036
:1018560000640240886402400500000000000000A9
:101866002644000000000000000000000000000008
:1018760000640240A0640240060000000000000070
:1018860030450000000000000000000000000000DD
:1018960000640240B8640240070000000000000037
:1018A60036460000000000000000000000000000B6
:1018B600AA5505010000000050790608FF1FFF1F0A
:1018C60005010905A101A100050109300931093207
:1018D600093309350934094009381581257F75080A
:1018E60095088102C0C0000009022200010100E043
:1018F600320904000001030102000921110100015F
:101906002226000705830308000A000000000000E5
:10191600010203040102030406070809DF7E030827
:10192600DD830308597F03087B4903082D4B030811
:101936008B490308A7490308554903084749030883
:101946000000000000000000AA550B010000AA5587
:1019560005010000AA550902000000AA5503009FD0
:1019660001000000C0120000000000002C6B0020E7
:1019760008000000000000001C6B002008000000AA
:10198600A08106081A030000000000000000000005
:101996000000000000000000000000000000000041
:1019A60004030904120100020000004083042057CA
:1019B60000020102030100000068214C1F00000024
:1019C6001C0000001F0000001E0000001F00000099
:1019D6001E0000001F0000001F0000001E00000087
:1019E6001F0000001E0000001F0000000000040190
:1019F60000000000000000021000000007000000C8
:101A060000000000000000000102030406070809A8
:101A1600FFFFFFFF0000803F000000000000000005
:101A2600000000000000803F0000000000000000F1
:101A360000000000000000000000000000000000A0
:101A46000000000000000000000000000000803FD1
:101A5600000000000000000000000000010000007F
:101A66000000803F01820000FFFFFFFFE0BB002077
:101A76000000000004BC002000000000010000007F
:101A8600080000007D000000FFFFFFFFBD470308C0
:101A9600BB470308B9470308B3470308B147030820
:101AA600B7470308B5470308E1540308D1530308B1
:101AB60011550308557103087D890308D171030880
:101AC600E5480308D1480308C94803080100000097
:101AD600D4FD0608E41C07080000000071A20308F4
:101AE600A0860100040000000000000000000000C5
:101AF60000000000000000000000000000000000E0
:101B060000000000000000000000000000000000CF
:101B1600D4FD0608441D070800000000ADB5000806
:101B2600E8030000040000000000000000000000C0
:101B3600000000000000000000000000000000009F
:101B4600000000000000000000000000000000008F
:101B560010B6060824B006080000000031E40208AA
:101B66007D000000060000000000000000000000EC
:101B7600000000000000000000000000000000005F
:101B8600000000000000000000000000000000004F
:101B96002CFD06080000000000000000B9D5000872
:101BA600E803000003000000000000000000000041
:101BB600000000000000000000000000000000001F
:101BC600000000000000000000000000000000000F
:101BD6004C1D070800000000000000000514050861
:101BE60010270000030000000000000000000000B5
:101BF60000000000000000000000000000000000DF
:101C060000000000000000000000000000000000CE
:101C160044FD060800000000AD930108DDDB000866
:101C26005F760000050000000000000000000000D4
:101C3600000000000000000000000000000000009E
:101C4600000000000000000000000000000000008E
:101C5600EC00070800000000000000001DF000086E
:101C66001027000001000000000000000000000036
:101C7600000000000000000000000000000000005E
:101C8600000000000000000000000000000000004E
:101C9600581D070800000000000000000D81000824
:101CA600E80300000500000000000000000000003E
:101CB600000000000000000000000000000000001E
:101CC600000000000000000000000000000000000E
:101CD600641D07080000000000000000A5A5030819
:101CE600204E00000300000000000000000000007D
:101CF60000000000000000000000000000000000DE
:101D060000000000000000000000000000000000CD
:101D1600741D07080000000000000000A9A30308C6
:101D2600204E00000300000000000000000000003C
:101D3600000000000000000000000000000000009D
:101D4600000000000000000000000000000000008D
:101D5600841D070800000000000000008DEC00084C
:101D6600400D03000300000000000000000000001A
:101D7600000000000000000000000000000000005D
:101D8600000000000000000000000000000000004D
:101D9600C8FE0608000000000000000071D300081D
:101DA60010270000010000000000000000000000F5
:101DB600000000000000000000000000000000001D
:101DC600000000000000000000000000000000000D
:101DD600B8BF06080000000000000000711A0108E4
:101DE60010270000030000000000000000000000B3
:101DF60000000000000000000000000000000000DD
:101E060000000000000000000000000000000000CC
:101E1600941D07080000000000000000E9F7010813
:101E2600A086010001000000000000000000000084
:101E3600000000000000000000000000000000009C
:101E4600000000000000000000000000000000008C
:101E56008CB30608000000000000000029B400084A
:101E660050C3000001000000000000000000000058
:101E7600000000000000000000000000000000005C
:101E8600000000000000000000000000000000004C
:101E9600E0B1060800000000000000003D4B050808
:101EA600A086010000000000000000000000000005
:101EB600000000000000000000000000000000001C
:101EC600000000000000000000000000000000000C
:101ED60038B10608000000000000000025B1000827
:101EE600A8610000010000000000000000000000E2
:101EF60000000000000000000000000000000000DC
:101F060000000000000000000000000000000000CB
:101F16009C1D07080000000000000000C95F0108C2
:101F2600A086010001000000000000000000000083
:101F3600000000000000000000000000000000009B
:101F4600000000000000000000000000000000008B
:101F5600F40007080000000000000000E981000806
:101F6600A00F0000010000000000000000000000BB
:101F7600000000000000000000000000000000005B
:101F8600000000000000000000000000000000004B
:101F9600A81D07080000000000000000415A0108C3
:101FA60010270000010000000000000000000000F3
:101FB600000000000000000000000000000000001B
:101FC600000000000000000000000000000000000B
:101FD600F0FE060800000000000000000180000876
:101FE600A00F00000100000000000000000000003B
:101FF60000000000000000000000000000000000DB
:1020060000000000000000000000000000000000CA
:10201600FCBD06080000000000000000D99005087D
:102026001A4100000100000000000000000000004E
:10203600000000000000000000000000000000009A
:10204600000000000000000000000000000000008A
:10205600F8B006080000000000000000954F0308D5
:102066001027000001000000000000000000000032
:10207600000000000000000000000000000000005A
:10208600000000000000000000000000000000004A
:10209600F01C07080000000000000000CD6A0108DF
:1020A6001A410000010000000000000000000000CE
:1020B600000000000000000000000000000000001A
:1020C600000000000000000000000000000000000A
:1020D600B41D070800000000000000008557030833
:1020E600400D03000000000000000000000000009A
:1020F60000000000000000000000000000000000DA
:1021060000000000000000000000000000000000C9
:10211600BC1D07080000000000000000CB8000087E
:10212600400D030000000000000000000000000059
:102136000000000000000000000000000000000099
:102146000000000000000000000000000000000089
:10215600C41D0708000000000000000095430108A8
:1021660050C3000003000000000000000000000053
:102176000000000000000000000000000000000059
:102186000000000000000000000000000000000049
:10219600D01D07080000000000000000C5AA0308C3
:1021A60040420F0000000000000000000000000098
:1021B6000000000000000000000000000000000019
:1021C6000000000000000000000000000000000009
:1021D600DC1D07080000000000000000C1810008A7
:1021E60050C30000000000000000000000000000D6
:1021F60000000000000000000000000000000000D9
:1022060000000000000000000000000000000000C8
:042216000000803F05
:082800000000000000000000D0
:10800000274B1B782DE9F041002B47D0254B1B78DF
:10801000002B43D0244C237803F0FF07002B3DD1E5
:10802000224B1A68821A002A38DB214A214D127825
:10803000D3F804E0DFF88C80013A062606FB0251F3
:1080400006FB02524FF00A0C89885288B1FBFCF102
:108050000EF1010C18F80EE0C3F804C001FB0EF19C
:108060001044BCF10E0F084488BF5F60186023788D
:1080700003F0FF01002BFAD1012323700E4B0F4AAE
:108080001B68128A5A600E4A12685162118841F0C8
:10809000010111801A6842F001021A60BDE8F08106
:1080A000B06A0020C46A0020F1CC0020F018002043
:1080B000F2CC0020887D0608BC6A002000CD00209C
:1080C000B46A0020A016060870470C4B1B78DB072B
:1080D00000D570470A4A1368002BFAD04FF47A7122
:1080E00001FB03F39842F4D3064B1B781BB9064BF4
:1080F00099681B690B600023136070474867002074
:108100004C590020385900207C53002070B50C4C8D
:1081100023689BB15A68821A002A0FDB05460026A5
:1081200003E05A68AA1A002A08DB9A681E732260C4
:1081300018461A6890472368002BF2D170BD00BF23
:108140001C540020F8B5322204460021023059F0B8
:1081500053FA0C4F00222346052104251046D65D14
:108160009E700132062AD9701D719871597103F100
:108170000803F4D101232380522384F8323064238E
:108180002386F8BD387C0608024A034B127819781A
:1081900055F064BA116B0020126B0020074A52F8A8
:1081A0000F3F10B5036053684360936883600446D3
:1081B000002120201CF04AF8E07210BDA01606082D
:1081C00038B5084D002415F8013BFF2B184605D0A3
:1081D00032F0B0FF014620461DF086FE0134042C2B
:1081E000F1D138BD40E300202DE9F04F054B2DEDD6
:1081F000028B1C78ABB03CB12BB0BDEC028BBDE860
:10820000F08F00BF74670020DFF880B3DBF8003028
:108210005F05F1D5039013F04FFAC24B1B78012B89
:1082200000F04582C04B1B78002B3CD0BF4D03991A
:10823000D5F82C31BE4ACB1A934200F27D82DFF88A
:10824000509399F80060002E00F0A083B94A166898
:108250004EB3B94FD5F840310398B968C31A8B4271
:1082600021D395F83C31002B00F0DB8695F8457161
:10827000B24995F844C10868013BDBB2013785F883
:108280003C31FFB2002B00F0638616F8011B85F825
:10829000457101EB0C03166085F844311DF0E8FAD6
:1082A000039BC5F840311CF0CBFDA54B93F8008033
:1082B00000F57A70B8F1010F209000F0C081A14B59
:1082C0001B78002B00F0C7809F4F3B68002B00F00D
:1082D000C2809E4B954D1B6804931A46D5F84C31CD
:1082E000D31A632B40F2B780DFF8A892984EDFF8DC
:1082F000A88241204FF01EF9B9F9023086FB032015
:10830000DB17C3EBA00080B24FF0F8F8B9F90030EA
:1083100086FB0320DB17C3EBA00080B24FF0EEF822
:10832000B9F9043086FB0320DB17C3EBA00080B251
:108330004FF0E4F898F8001038681DF099FA95F8B5
:1083400050A11AF0010600F00E86DFF85092D9F81D
:10835000003098066FD57F4B7F4E1B78990742F10E
:108360004C81337D042B8CBF0323022305934720CC
:108370004FF0E0F830684FF08DF870684FF08AF8F1
:10838000F389764A3868A2FB0323C3F3471A5146A0
:108390001DF06EFA98F80010D9F800208AEA01035F
:1083A00012F0140F88F8003016BF6D4BB0681868D3
:1083B0004FF070F8059B367D386843EA8606F6B2C2
:1083C00031461DF055FA98F8003038685E40314665
:1083D00088F800601DF04CFA95F850A1BAF1000F32
:1083E00029D1604E4F204FF0A5F830684FF052F879
:1083F00070684FF04FF850464FF04CF80121386844
:108400001DF036FA534A98F800301678386806F0AE
:10841000010683F00103314688F800301DF028FA88
:1084200098F8003038687340194688F800301DF01D
:108430001FFA95F850A1049B4B4AC5F84C310AF13C
:108440000103DBB2A2FB0312D20802EB8202A3EB10
:10845000420385F85031DFF8488198F80030022B4C
:1084600000F05983344D6B7B032B00F067833F4B47
:108470001B78002B3CD03E4F3B68CBB32B4D1CF000
:10848000DFFCD5F85C31049044F61F62C31A9342B6
:108490002ED995F86231002B01F02283013B85F83B
:1084A000623195F86331002B01F00082013B85F8C1
:1084B000633195F86631002B00F0E486013B85F8C6
:1084C000663195F86A91B9F1000F00F0F58509F170
:1084D000FF3985F86A9195F86B81B8F1000F01F0CA
:1084E000A78408F1FF3885F86B81049BC5F85C31DF
:1084F000204B1B78002B40F0A3821F4B1B78002BD6
:1085000000F094801D4B1B78002B40F094801C4B96
:108510001B78002B3FF470AE044F1A4C1A4D07F530
:108520002B763FE0C5B60020D2B60020F018002020
:108530003F0D0300F4B5002088010020ECB50020B9
:10854000D3B60020E0B60020D0B5002044C70020FC
:1085500067666666A4B3002088E700201F85EB519C
:10856000E0B40020F4330020CDCCCCCCE8B6002021
:10857000ECB6002018B8002010B60020DF4500201F
:10858000F2B60020F8B60020FCB6002064E6002019
:10859000F8B50020ACB30020D4B5002050B00020C6
:1085A000D744002020681DF05FF900283FF424AE76
:1085B00020681DF051F92B78804673B1013B20688B
:1085C0002B701DF051F900283FF416AE20681DF005
:1085D00043F92B788046002BF0D14D4903223046D9
:1085E00058F0F1FF97F8AC1287F8AF82023911F01A
:1085F000FF0100F08C82314432464FF6FF7312F8CF
:10860000010B1B1A91429BB2F9D11A0A1FFA88F882
:108610009045C7D197F8AE22DBB29A42C2D13D480D
:108620004EF000FD2B7818442870BBE73A4B1B78BE
:10863000002B7FF46CAF03984FF0B0FC67E7374E28
:10864000306800283FF43BAE4FF000098DF8789079
:108650001DF00AF930B3324F324D30681DF0FCF88E
:1086600083B27E2B00F022843A7BD6F800C0002A29
:1086700040F0638395F84711002900F0BE811B2B61
:1086800085F8472140F0608360461DF0EDF8002832
:1086900000F0E884306887F80C801DF0E5F80028C9
:1086A000DBD1002020AA1EA94EF05EFF07E61E4B7C
:1086B0001B68002B3FF4B6AD1A4D0399D5F8203155
:1086C0001A4ACB1A93427FF7ADADDFF8689095F860
:1086D0002431D9F80070C5F820110133BE0785F8A0
:1086E000243101F1FC8517F0340F41F0E48595F851
:1086F0002461390701F1688316F0070701F0E08271
:10870000282E01F00B870A4B5E201B68984789E5ED
:108710009D1B00209C1B002041B60020E0B50020DE
:1087200088010020F0180020BCB3002047E80100B9
:108730007CB2002050B00020CF4BD0481B88D049DD
:10874000D04E4F7A3168D04A0533A0FB0303D5F8E9
:108750003001081A4FF47A71DB0801FB07F15FFA68
:1087600083FC00271B0A884282F81EC0D37782F858
:1087700014C053759770177180F0D683C34BC448EB
:108780001B68C44EC449B6F900C00F68DFF84083C7
:10879000896880FB03E6DB17C3EB661303F5FA7306
:1087A0009BB293761B0AD37688FB079388FB0198CC
:1087B000FF17C917C7EBA307C1EBA8010CF5EA43E4
:1087C000DFF810E3177730333F1282F820100912D8
:1087D0001B12B24E9EF800E0577782F8211080FB02
:1087E0000C874FEAEC71C1EB671182F82330AC4B78
:1087F00096F814A083F81AA078310CF1300C1EF012
:10880000020F82F8241082F822C000F04C83D6F8C0
:1088100000E0A44AD6F804C0DFF8BC82DFF8BC92BE
:1088200082FB0E314FEAEE7782FB0C32C7EBA15789
:108830004FEAEC71C1EBA25208FB07E108FB02C84A
:1088400008EB48084FEA480301EB41010493490053
:1088500089FB0138049B89FB03394FEAA943B6F829
:108860000E90B668089607EB870709EBC90907EB76
:10887000870602EB82024FEA89070596079702EB0B
:108880008202049F864E06924FEAA848CA174FEA12
:10889000DE7EBAF1050F86F809E04FEAE77A824EEC
:1088A000A8EB02073A4606FB121205997FB207EBC6
:1088B0008109049FA3EB0A084146794B06FB18780F
:1088C000089F4FEADC7C80FB076E83F80EC04FEAFE
:1088D000E776069B754FDFF808C2C6EB6E1649B205
:1088E00001EB830106F5FA730493079BBCF800C003
:1088F000A7FB03376A4B1E4683F813C0049B89B25B
:1089000083F3100304934FEA112380FB02EA1FFA5A
:1089100089F980FB08E005934FEAE878049BDFF8CB
:10892000C4E186F80A904FEAE272C8EB6010C2EB2D
:108930006A124FEA19284FEA971786F80B804FEA18
:10894000222AC3F30728059B3374BEF800E0F173B5
:108950004FEA20294FEA1C2C4FEA172134BF32235B
:108960003323327386F80DA07074049886F8129041
:10897000707586F81680F771317286F814C0F37638
:1089800086F81CE0039BC5F82C3158E4DFF85881C9
:10899000D8F800001CF068FFC0B201280FD90228E7
:1089A000434F40F042833B78002B41F0C284D5F81E
:1089B000343103997A68CB1A934281F026863D4A76
:1089C0001668002E3FF46FAC99F80030002B7FF44E
:1089D00040AC394BD8F800001B689B781E3B012B3C
:1089E00041F2A284383002214FF022FA0122002302
:1089F00089F8002085F8443152E47D2B01F09F84F2
:108A000095F84A2122B180F02003DBB285F84A11A3
:108A1000B5F8482195F846111A44062992B267D84C
:108A200005EB010E60460131A5F848218EF80830AB
:108A300085F846111CF018FF00287FF40EAE30E6D2
:108A40001E4D2A7832B11E4B1E4918681CF0DCFE00
:108A500000232B701C4E3578002D7CD0DFF88C90D5
:108A6000D9F86030002B40F03182184B039A3470F3
:108A7000C3F8A42241E500BFC0B30020CDCCCCCCCC
:108A800058B2002044C7002010B70020E0B40020F6
:108A90001F85EB51E6B30020D8B3002088E7002003
:108AA0003CB700206BCA5F6B40420F00D34D621091
:108AB00088010020F4B50020F0B50020C4B60020E5
:108AC00014B8002084B600201AB80020F018002046
:108AD00067666666A4B30020806967FF83DE1B4378
:108AE000A6B30020A8B30020ECB5002060B9002098
:108AF000D3B203EB1222FF2A87F80C80A5F8482195
:108B000040F01B8160461CF0AFFE9B48CAE5FF2287
:108B10004FF6FF737AE51CF093F9984B1B68C01A67
:108B200040F6B833984200F21B81954E33793A2BC8
:108B300001F01284002388F8003098E4914B186803
:108B40001CF086FE00283FF492AC022200236A73D8
:108B500088F800308BE48C4C2278002A40F0308179
:108B60008A4C94F82B51002D40F06482884A894940
:108B70001268096891422DD894F82021002A41F00A
:108B80009A8494F82131002B41F0528794F82231D5
:108B9000002B41F09D8794F82331002B41F09687FC
:108BA00094F82431002B41F08F8794F82531002B65
:108BB00041F0888794F82631002B41F08B8794F898
:108BC0002731002B41F0768494F828310825002BBA
:108BD00041F07184704D714CD5F8A4222178704B0E
:108BE00093FBF1F31344039A9A42FFF486AC1146C7
:108BF00095F8A8326B4AC5F8A412D65CF70744D59D
:108C0000DFF8B8819FED688AB8F9023007EE903A34
:108C1000F8EEE77A654B219367EE887A2AAFFDEE8E
:108C2000E77AA3F13D0247F8282D17EE902A91B27A
:108C300040F6C80223F8402C1E2203F83E2C38468A
:108C400037F0F4FBB8F9003007EE903AF8EEE77A27
:108C5000384667EE887AFDEEE77A17EE903A99B2D9
:108C600037F0E4FBB8F9043007EE903AF8EEE77A13
:108C7000384667EE887AFDEEE77A17EE903A99B2B9
:108C800037F0D4FB38464FF023FAB00701F17D8668
:108C9000710701F13D86330743D5444B444F21937F
:108CA0002AAEA3F13D0246F8282D41F2C811022256
:108CB00003F83E2C23F8401C3046396837F09EFB01
:108CC0003046796837F09AFBFB89242101FB03F1D8
:108CD0004FF064083046323191FBF8F189B237F039
:108CE000A5FB3B8A03EB8303590089B2304637F07A
:108CF0009DFB304B304A1B689342A8BF134623EAC2
:108D0000E37393FBF8F303F57A7189B2304637F0D9
:108D10008DFB209B3A7D591C209130461A704FF0F4
:108D2000D7F995F8A8322178013393FBF1F201FBD2
:108D3000123385F8A832FFF7E0BB60461CF094FDC3
:108D400000287FF48AACACE40D2B7FF4A3AC604622
:108D5000A5F848211CF088FD00287FF47EACA0E433
:108D60000D4AB2F8523100210133A2F8523188F88D
:108D70000010FFF77CBB00BFF8180020DC44002087
:108D80009C440020D04A002019B800201CB80020C4
:108D900044C70020E4330020F01800205CB9002014
:108DA000A086010058B9002058A08B4184B600204D
:108DB00088E70020E0B4002020A10700ACB3002029
:108DC000AE4EAF4B0093A6F13F01C827CDE91E166A
:108DD00006F8407CAB4BAC4AAC4920A83BF020F8ED
:108DE0001E9E731C1E9335701E9B2922591C1E91BA
:108DF0001A701E9BEA22591C1E911A701E9B5A1C47
:108E00001E9220A81F7056F0EDF8471C20A93A4684
:108E10001E9857F0CDF81E9AD31901331E93D555DD
:108E20001E9B5A1C1E921D701E9B5A1C1E921D706A
:108E30001E9B5A1C1E921D701E9B5A1C1E921D705A
:108E40001E9B5A1C1E921D701E9B5A1C1E921D704A
:108E50001E9B5A1C1E921D701E9B5A1C1E921D703A
:108E60001E9B5A1C1E921D701E9B5A1C1E921D702A
:108E70001E9B5A1C1E921D701E9B5A1C1E921D701A
:108E80001E9B012299182AA81E911A7050F8303D95
:108E90009B1B33704FF01CF97D4B039A2570C3F870
:108EA000A422FFF72ABB2D22DA766BE530688DF815
:108EB000789085F8469185F8478187F80C901CF0EA
:108EC000D3FC00287FF4C9ABFFF7EBBBDFF8E481EC
:108ED000002550270BE01D44EFF3118387F3128820
:108EE000D9F86020954218DADBB283F3118819F8BB
:108EF00005A0681C5146484400224EF0D1F90AF101
:108F000001030028E7D041463A204EF02BF90AF140
:108F1000010A0443E4B25544DEE70022DBB2C9F89B
:108F2000602083F31188A0E55A4B31681B78C5F89F
:108F30003011013B012B41F2EB82574B1B78013B77
:108F4000012B3FF61BAC162101239170137115E420
:108F50000CF10103614685F8457185F844311CF038
:108F600087FCFFF79DB94D4B1B88DA0501F1F181B4
:108F70005E0601F14683D80701F1EC8313F0020F7E
:108F80000CBF4FF0040A4FF00C0A454A454B1678C7
:108F9000DB7806F001060BB146F0020653204EF0D6
:108FA000C9FA414B1B8803EB8303580080B24EF093
:108FB000A5FA00204EF0A2FA16F086FF3B4BC0EB5C
:108FC000002083FB002303444FEAE079C9EB6329C7
:108FD000B9F1FF0FA8BF4FF0FF095FFA89F94946C1
:108FE00038681CF045FC98F80030386889EA0309B5
:108FF0004AEA0606002188F800901CF039FC314648
:1090000038681CF035FC98F8003038687340DBB2E3
:10901000194688F800301CF02BFC95F850A1FFF79A
:10902000DDB94EF03BFFFFF73BB94EF027FF0123C0
:109030003B70C4E4114B84F82B212AA8A3F13A0217
:109040001B4940F8282D4FF4327223F83C2C43F88A
:10905000401C21934FF03CF80D4B039AC3F8A42217
:10906000FFF74BBA30688DF8788087F80C801CF0D9
:10907000FBFB00287FF4F1AAFFF713BB84B60020A6
:1090800033E30020889D0608909D06089C9D0608F5
:10909000F0180020B2690020D8690020E4B3002055
:1090A000486700204C670020C0B3002003082080E0
:1090B000C8057DEA058105086C4B95F872E1B3F9A6
:1090C0000220B3F90010B3F904309FED696A85F806
:1090D000159007EE103A674B85F814E01B68209353
:1090E0008EF06A0383EA031306EE901AD9B20B09D5
:1090F00083F0D50343EA012383EAC1031BB283EA69
:109100000311C3F307265342C9B207EE903A86EA29
:10911000111646EA0126F8EEE77AF8EEE66AB8EEAE
:10912000C77A86EAC10636B267EE867A66EE866A46
:1091300027EE067A002086F0C80CCDED227ACDED20
:10914000216A8DED237A2490259026900DF18008D8
:109150008CEA0C1CB8E80F005FFA8CFCC6F30726FB
:1091600086EA1C1646EA0C2686EACC06DFF810C111
:1091700036B2ACE80F0086F01E0398E8070083EAD9
:109180000313DBB2C6F3072686EA131646EA032664
:109190008CE807000EF1010886EAC303C822ACF18F
:1091A00010064FF005094FF01E0E41F6FE41AA755C
:1091B00085F86A9185F817E0698206F11C0285F846
:1091C00072812B8216F8011B594081EA0111C9B244
:1091D000080980EA132343EA012383EAC10109B2A3
:1091E0008BB296422B82EDD181F0270181EA0111E9
:1091F000C9B21E0A86EA111686EA012686EAC10667
:1092000036B2B3B24FEA132AF6B2DFF86C902B8273
:1092100085F835A085F8346005F1120C05F13208A7
:10922000DCF80000DCF80410DCF80820DCF80C3076
:10923000CE46AEE80F000CF1100CC445F146EFD15C
:10924000DFF83880BCF80030AEF8003008F12409AF
:1092500085F8BE6185F8BFA118F8011F38681CF0B9
:1092600007FBC145F8D1FFF736B900BFACB300200A
:1092700088C3E43A44C700208C1A00208B1A0020CF
:1092800008190020DFF85893D9F800301922980601
:1092900085F866217FF515A9CB4BCC4E1B78990735
:1092A00041F14E82337D042B8CBF4FF0030A4FF007
:1092B000020A1BF0C5FD338AB268209003EB8303DA
:1092C0005B00ADF89A3002EB820233682293F18999
:1092D00096F814C073688DF89DC020A852004FF016
:1092E00000084FF0FF3ECDF894E08DF89CA024924A
:1092F0002393ADF89810CDF8848084460590BCE89F
:109300000F00DFF8D8E2AEE80F009CE80F00AEE8EF
:1093100007007146182221F81C39069195F8721140
:10932000EA7581F0780383EA0313DAB2130983F054
:10933000F60343EA022383EAC2031BB283EA031261
:10934000D2B2C3F3072383EA121343EA022383EA68
:10935000C2031BB283F0C80282EA0212D2B2C3F384
:10936000072383EA121343EA022383EAC2031BB2F0
:1093700083F0180C8CEA0C1C5FFA8CFCC3F30722F8
:10938000481C82EA1C1242EA0C2285F872010698F7
:10939000297582EACC0CC82341F6FE62014685F8A5
:1093A0001580A5F810C01E306A82AB7511F8013B1C
:1093B00083EA0C0383EA0313DBB21A0982EA1C2254
:1093C00042EA032282EAC3031BB21FFA83FC8142F2
:1093D000A5F810C0EAD183F0180383EA0313DBB2C7
:1093E0004FEA1C2282EA131282EA032282EAC303B2
:1093F0001BB29AB276492A82DBB2120A07910A920C
:10940000099385F8372085F836308A4605F1120C25
:1094100005F13208DCF80000DCF80410DCF8082064
:10942000DCF80C30D646AEE80F000CF1100CC44549
:10943000F246EFD1674B0893DCF80000CEF800004D
:10944000099A85F8C0210A9A85F8C12103F12608F6
:109450009A461AF8011F38681CF00AFAD045F8D16C
:109460001BF0EEFCB1688046D9F8000001EB8101E9
:1094700010F0140FD6E900324FEA410601F0918155
:109480005549096801EB81014900CDE90A21099399
:109490004DF0E4FF95F872A1ADF89A008AF06A00E9
:1094A00080EA00105FFA80FC4FEA1C1080F0D500C3
:1094B00040EA0C2080EACC0000B280EA001C5FFA8F
:1094C0008CFC0A9A0B99099BCDF88080C0F3072089
:1094D0004FF0000980EA1C10CDE92226CDE92419BD
:1094E00040EA0C2080EACC00DDF814C02193ADF8EE
:1094F000989006B2BCE80F0086F0C80888EA081801
:109500005FFA88F8DDF818E085F81590C6F30726AD
:1095100086EA1816AEE80F0046EA08269CE807001F
:1095200086EAC80636B286F0210383EA03138EE882
:109530000700DBB2294A0692C6F3072686EA13160D
:109540000AF1010246EA032185F814A085F8722188
:10955000224A81EAC303212641F6FE40C8219446EF
:109560002B821C32EE756882A9751CF8011B5940CC
:1095700081EA0111C9B2080980EA132343EA0123F1
:1095800083EAC10109B28BB294452B82EDD181F0FF
:10959000680181EA0111C9B21E0A86EA111686EA3B
:1095A000012686EAC10636B2B3B24FEA132AF6B2F2
:1095B000DFF81C802B8285F835A085F8346005F132
:1095C000120C05F132090DE0A4B3002088E7002059
:1095D0008C1A00208B1A0020E0B40020081900200B
:1095E00050B00020DCF80000DCF80410DCF80820A3
:1095F000DCF80C30C646AEE80F000CF1100CCC4580
:10960000F046EFD1BCF80030AEF80030079B85F88B
:10961000BE61089E85F8BFA103F1230816F8011F5B
:1096200038681CF025F9B045F8D19E4A95F872C10A
:10963000DFF8748285F814C0D2E9002321938CF0FE
:10964000EB0383EA0313D9B20B0983F0C50343EAA2
:10965000012383EAC1031BB283EA0311C9B2C3F336
:10966000072383EA111343EA012383EAC1031BB2F0
:1096700083F0C80686EA0616F6B24FF0000E209276
:10968000C3F30723059ACDF888E083EA161307CAC7
:1096900043EA062383EAC6030FFA83F9069B85F89B
:1096A00015E089F0310683E8070086EA0616F6B26F
:1096B000C9F3072383EA161343EA062383EAC603A2
:1096C0002E7E687EA97EEA7E1BB25E4086EA061682
:1096D000F6B2C3F3072383EA161343EA062383EAA9
:1096E000C6031BB2584080EA0010C0B2C3F3072380
:1096F00083EA101343EA002383EAC0031BB25940F4
:1097000081EA0111C9B2C3F3072383EA111343EAC3
:10971000012383EAC1031BB25A4082EA0212D2B289
:10972000C3F3072383EA121343EA022383EAC20343
:109730002E7F687FA97FEA7F1BB25E4086EA06160D
:10974000F6B2C3F3072383EA161343EA062383EA38
:10975000C6031BB2584080EA0010C0B2C3F307230F
:1097600083EA101343EA002383EAC0031BB2594083
:1097700081EA0110C0B2C3F3072181EA101141EA66
:10978000002181EAC00109B24A4082EA0212D2B243
:10979000C1F3072383EA121343EA022383EAC203D5
:1097A00095F8206095F8210095F8221095F823206F
:1097B0001BB25E4086EA0616F6B2C3F3072383EABD
:1097C000161343EA062383EAC6031BB2584080EA15
:1097D0000010C0B2C3F3072383EA101343EA002347
:1097E00083EAC0031BB2594081EA0111C9B2C3F335
:1097F000072383EA111343EA012383EAC1031BB25F
:109800005A4082EA0212D2B2C3F3072383EA121348
:1098100043EA022383EAC2031BB283F0270686EAE7
:109820000612D2B2C3F3072686EA121646EA0226C9
:1098300086EAC20636B2B2B20CF101034FEA122E2A
:10984000F6B24FF0310C40F6FE40C82185F8723177
:109850002A8285F8246085F817C0688285F825E09B
:10986000A975D8F80C30D8F80000D8F80410D8F84A
:109870000820B8F8109008F5C57CACE80F00079BED
:10988000ACF8009085F8AE61089E85F8AFE103F171
:10989000130816F8011F38681BF0EAFFB045F8D12D
:1098A000FEF70FBEF4330020021900208649874AD4
:1098B0008978126809920A2285F86321002900F04C
:1098C0007C86834A012910880A9041F228835088B7
:1098D0000890022900F0428790880790032901F040
:1098E000DB83D0880690042901F0D083108905908D
:1098F000052901F0C6830629B2F80A9001F0BD835C
:109900000729968901F0E282B2F80E8016F0DCFA9F
:1099100095F872A1099B20938AF0300383EA031320
:10992000DBB21A096B4985F814A082F07A02C0EB09
:10993000002042EA032282EAC30381FB00210144A2
:10994000C217C2EB61220A994FF0000E61F30F0EAD
:1099500007994FF0000C61F30F0C059900201BB222
:1099600061F30F00002166F30F0183EA0316C3F3CE
:1099700007230593089B63F31F4E069B69F31F4063
:1099800063F31F4C68F31F41059BCDE921ECF6B250
:10999000CDE92301FF2A83EA1613A8BFFF224FF067
:1099A00000098DF895208DF8949043EA062C0DF16E
:1099B0008008B8E80F008CEAC60636B286F0C80EFA
:1099C000DFF814C18EEA0E1E5FFA8EFEC6F307267C
:1099D000ACE80F0086EA1E1343EA0E2398E8030062
:1099E00083EACE031BB283F023024CF8040B82EA15
:1099F0000210C0B2C3F3072282EA101242EA002228
:109A00002CF8141982EAC0000AF1010A232641F257
:109A1000FE62C82385F872A128820CF1160185F830
:109A20001590EE756A82AB751CF8013B434083EAE2
:109A30000313DBB21A0982EA102242EA032282EA05
:109A4000C3031BB298B28C452882EDD183F0F40396
:109A500083EA0313DBB2060A86EA131686EA0326B4
:109A600086EAC306A84636B21FFA86F958F8120FDE
:109A7000DFF868C0A5F810904FEA192EF6B285F805
:109A80002E6085F82FE0D8F80410D8F80820D8F810
:109A90000C30ACE80F00D8F81000D8F81410D8F843
:109AA000182005F2B919ACE8070005F29B1885F8F3
:109AB000B9E185F8B86118F8011F38681BF0D8FEC5
:109AC000C145F8D1FEF7F5BC48E6002044C70020A8
:109AD00018E8002003082080081900208C1A0020B4
:109AE000C74B1A6802F00803002B48F603414AF6F8
:109AF0000B404BF60F4349F6074604BF03460E469C
:109B000012F0040F18BF1E469306BE4B1B7848BFC9
:109B100046F480464FF0190148BF46F02006022B5C
:109B200085F8621140F2B28564204FF0FF3A4FF0A1
:109B3000000995F87281209688F0F10282EA0212FB
:109B4000D2B2130983F0E703C6F3090143EA022303
:109B5000CDE9216183EAC2034FF0000E1EB2ADF8D9
:109B60008E90ADF890A08DF89E00ADF88CE0CDF809
:109B700092E0CDF896E0CDF89AE086EA06190DF16C
:109B8000800CBCE80F005FFA89F9C6F3072686EA65
:109B9000191646EA092686EAC906DFF8889285F88A
:109BA00015E0A9E80F0036B29CE80F0086F0C80C5B
:109BB0008CEA0C1C5FFA8CFCC6F3072686EA1C169E
:109BC000A9E8070046EA0C2181EACC0109B281F03C
:109BD000010080EA001029F8023BC0B2C1F307225D
:109BE00082EA10121B0C09F81E3942EA00220126F3
:109BF00082EAC00041F6FE71C82208EB06036982C2
:109C0000EE75AA7509F11F0185F81480288285F880
:109C1000723119F8013B434083EA0313DBB21A099E
:109C200082EA102242EA032282EAC3031BB298B2FC
:109C300089452882EDD183F07C0383EA0313DBB2EC
:109C4000060A86EA131686EA032686EAC30636B2B1
:109C5000B3B24FEA132AF6B2DFF8CC912B8285F823
:109C600038A085F8376005F1120C05F13208DCF8F0
:109C70000000DCF80410DCF80820DCF80C30CE46DC
:109C8000AEE80F000CF1100CC445F146EFD1DCF842
:109C90000000CEF80000DFF894819CF804308EF8C4
:109CA000043008F1270985F8C16185F8C2A118F8C8
:109CB000011F38681BF0DCFDC145F8D1FEF7F1BB90
:109CC000FF2030F05BF9002800F03E850378FF2B81
:109CD00000F03D8590F9011002204EF0FBF8FF20C6
:109CE00030F04CF9002800F065840378FF2B00F079
:109CF0006184B0F90C304449444A897E03EB830304
:109D000003EB830349089B0093FBF1F382FB0312EF
:109D1000D917C1EBA20109B23D4F03204EF0DAF88A
:109D20007B7A002B40F0E884D9F800309A0640F1A5
:109D300056844FF400504EF005FA002840F0348568
:109D4000344E4FF480604EF0FDF9002840F07286EA
:109D5000718A95F82421337DB1F5967F08D902F0F8
:109D60000F02072A04D842F20F738B4228BF0B461A
:109D7000294FFA79CAB1203B07EE903A9FED277A36
:109D8000F8EEE77AF6EE006A67EE877ABEEE007AC2
:109D9000F5EEC07AF1EE10FA58BFB0EE667A77EEC3
:109DA000877AFDEEE77A17EE903A052019B24EF069
:109DB00091F84FF480504EF0C5F9002840F013851B
:109DC00095F82461FEF79CBC4FF400704EF0BAF990
:109DD00000283EF491AC16F003077EF48DAC104AD7
:109DE0000A23B2F9041091FBF3F114204EF072F83B
:109DF00039461C204EF06EF895F82461FEF77CBCC5
:109E000050B00020C8B4002078BC002067666666A9
:109E100080B2002088E7002058B20020E4380E3FCE
:109E2000ACB30020081900208C1A00208B1A0020E7
:109E3000894B1B68052285F86B219A0603F01401F3
:109E400040F1C583854BDFED867ADA8908EE902AEA
:109E5000F8EEE88A68EEA78A002900F0F385814BC6
:109E6000DFED7F7A93ED008AB8EEC88A28EE278A64
:109E70004DF0F4FA95F872917B4BADF89000B3F980
:109E800006607A49CDED218A89F0220383EA031323
:109E9000DAB21309B6F5FA6F83F05903A8BF4FF48D
:109EA000FA6643EA022383EAC203B6F57A7F1BB25D
:109EB000B8BF4FF47A76A6F57A7C83EA0312642061
:109EC000D2B2C3F3072600FB0CF386EA1216A1FBFD
:109ED00003134FF0000E20A946EA0226C3F38F13A6
:109EE000CDF880E0CDF88CE08DED228A86EAC206BE
:109EF000ADF892308A4636B20591BAE80F0086F086
:109F0000C80C8CEA0C1C5FFA8CFCC6F30726DFF841
:109F100074E1DAF800A085F8149086EA1C16AEE821
:109F20000F0046EA0C2686EACC0212B282F04A03FF
:109F300083EA03137146DBB2C2F3072282EA1312EB
:109F400041F810A942EA032282EAC30309F1010998
:109F50004FF04A0E41F2FE4C0026C82006910A46F8
:109F600085F872912B82143185F817E0A5F812C09C
:109F70006E75A87512F8010B584080EA0010C0B247
:109F8000060986EA132343EA002383EAC00000B2ED
:109F900083B28A422B82EDD180F0140080EA001057
:109FA000C0B21E0A86EA101686EA002686EAC006B5
:109FB000A94636B21FFA86FC59F8120F2C4B0793AC
:109FC000F6B24FEA1C2E85F82C6085F82DE0D9F802
:109FD0000410D9F80820D9F80C30A5F810C0DFF823
:109FE00090C0B9F818A0ACE80F00D9F81000D9F863
:109FF0001410ACE8030005F29B19ACF800A085F83A
:10A00000B661CA4685F8B7E105F2B7161AF8011F1E
:10A0100038681BF02DFC5645F8D1164B164A1B78B4
:10A020001278013B12F00101DBB214BFC0224022C2
:10A03000172B03D81148034493F83881104B1B8821
:10A040009B071ABF42F0100200230123002940F0B1
:10A050002C83032018E000BF50B0002088E70020C8
:10A060000AD7233CE0B4002018E80020D34D62104A
:10A070008C1A00202C48002048670020A0160608F3
:10A08000E4B300200819002095F872A120938AF00B
:10A09000460383EA0313D9B20B0983F0920343EA20
:10A0A000012383EAC1031BB283EA0311C9B2C3F3DC
:10A0B000072686EA111646EA012686EAC10636B266
:10A0C00086F0C80C8CEA0C1C5FFA8CFC00238DF81F
:10A0D00086200321059A8DF88480C6F307268DF823
:10A0E00085308DF887008DF8881086EA1C1607CA1F
:10A0F00046EA0C2686EACC0636B2DDF818E0EB75A7
:10A1000086EA061CAEE803005FFA8CFCC6F3072162
:10A1100081EA1C1141EA0C2181EACC0195F818C0B2
:10A120008EF8002009B28CEA010C8CEA0C1C5FFA54
:10A130008CFCC1F3072282EA1C1242EA0C226E7EDA
:10A14000A87E95F81FE06B7582EACC0212B25640E9
:10A1500086EA0616F6B2C2F3072181EA161141EA31
:10A16000062181EAC60109B2484080EA0010C0B267
:10A17000C1F3072282EA101242EA002282EAC002F8
:10A1800095F81BC02E7F687FA97F85F814A012B2B6
:10A190008CEA020C8CEA0C1C5FFA8CFCC2F30722DE
:10A1A00082EA1C1242EA0C2282EACC0212B2564027
:10A1B00086EA0616F6B2C2F3072282EA161242EACD
:10A1C000062282EAC60212B2504080EA0010C0B2F3
:10A1D000C2F3072282EA101242EA002282EAC00297
:10A1E00012B2514081EA0111C9B2C2F3072282EAD8
:10A1F000111242EA012282EAC10212B28EEA020E72
:10A200008EEA0E1E5FFA8EFEC2F3072282EA1E124B
:10A2100042EA0E2282EACE0295F820E0D34E13B233
:10A220008EEA030282EA0212D2B2C3F3072383EA60
:10A23000121343EA022383EAC2031BB283F0320201
:10A2400082EA0212D2B2C3F3072383EA121343EA6B
:10A25000022383EAC2031BB299B240F6FE18C8205B
:10A260004FEA112C0AF10102DBB2A5F81280A875A1
:10A2700085F8722185F822C085F821303068B268EF
:10A2800029827168B6F80CA006F5C57607C6079A4C
:10A2900086F802E0A6F800A002F1100885F8ACC12B
:10A2A00085F8AB3119F8011F38681BF0E1FAC84591
:10A2B000F8D1FEF71AB94FF400604DF043FF28B112
:10A2C000AB4B3020B3F900104DF004FE95F824613B
:10A2D000B00700F0F181D9F80070FEF70ABA7020DB
:10A2E0004DF030FF00283EF4FEA9A24F2426A7F12E
:10A2F0005008B7EC017AD8ED007A67EE277A30463D
:10A30000FDEEE77A013617EE903AC3EB431103EB0B
:10A310008103D90009B2F6B24DF0DCFD272EE8D159
:10A32000D9F80070FEF7DFB902211BF08DFAFEF7B5
:10A330005DBB039BC5F834313E70FEF740BB604601
:10A3400085F84A811BF090FA00287EF486A9FEF772
:10A35000A8B9B246FEF719BEB178304616F016FF1E
:10A3600000287EF4E7AB844B18681BF07DFA0028C8
:10A370007EF478A8814F824DF378BA7B059395F8E7
:10A3800054310493042307927B73002A00F0548411
:10A39000FE7B7C4BDFF814A20136F6B206EB4609D1
:10A3A00003EB8909F3B2152B31465046FB7306F1D6
:10A3B000010600F28E853AF029FD28B999F8083097
:10A3C000FF2B09F10C09EDD1FB7BDFF8C8911A4690
:10A3D0006D4B06920C2606FB0236716A0891084600
:10A3E00054F000FEB36A0793C6B2184654F0FAFD63
:10A3F0005FFA80FA069B089906EB0A02083203F01E
:10A400000F0C0AEBC60089F8072023F00F0289F829
:10A410000A2089F80DC0324689F80E0009F10F00B4
:10A4200055F0C6FD079B06F10900194609F1060320
:10A430005246184455F0BCFD99F8072002F1010A74
:10A44000C2B1013A09F1070E504B5EFA82FE09F1E2
:10A450000606002216F8011F51408A00C80882EA49
:10A46000410200F018004A4043FA00F14A40B64564
:10A47000D2B2EFD1464B05980AF8032053F0E6FB21
:10A48000BB7B013B5FFA83FA87F80EA0BAF1000F9D
:10A4900000F06483049E384B99F8022018683D4907
:10A4A0001BF0B2F9032385F854617B7388F8003000
:10A4B000FDF7DDBF0725384B94F82A2121932AAFF9
:10A4C000A3F13901A3F1400647F8281DC821101D4A
:10A4D00003F8401C4FF4E4734EF67D2170707180D8
:10A4E000384602FB0541B380B57135F07DFF209BF6
:10A4F000721C9B1A737038464DF0EAFD6319204AAE
:10A50000002183F82011039BC2F8A432FDF7F5BFA8
:10A510001021022391701371FEF730B91F4A204BAE
:10A520001668204FA3FB06239B0BA7FB03214909B9
:10A53000C1EB0111A3EB8103190209B2002317201B
:10A5400085F824314DF0C6FC174BA3FB06239B096D
:10A55000A7FB03125209C2EB0212A3EB820319B24A
:10A5600018204DF0B7FCFEF7CEB800BF021900204E
:10A57000E6B30020AC2A0010D04A00208801002059
:10A58000F0180020C4160608A01606080007090ED9
:10A5900066E7002060E7002084B6002044C7002062
:10A5A00073B2E74589888888D34D6210E4B50020EE
:10A5B000000000000021FFF7AFBB0E468946CDE941
:10A5C0000511CDE907110A918846FFF79FB95FEDA4
:10A5D000088A00297FF443ACB0EE688A48E4190782
:10A5E0007FF5EEABB94B93E8030020AB83E80300A3
:10A5F00018464DF087FCFFF7E3BB01230593FDF7F9
:10A60000B6BE4FF0100AFEF7C0BC0126D8F8000015
:10A610003E701BF021F90490D8F800001BF01CF9E3
:10A62000049B5A06824600F0A180802800F0238215
:10A630007F2B7EF4C4A9A64A1378002B00F0BA84BD
:10A640000AF0F003E02B7EF4BAA995F83D21A14E63
:10A650000AF00F0A002A00F08F840022737085F838
:10A660003D219D4F3B78002B00F0C484AAF1070ADE
:10A67000BAF1070F00F2BA84DFE81AF0E004B80478
:10A68000B104B804F104B804ED044304934A537AC6
:10A69000927A002B40F0B981002A40F02084914644
:10A6A00064204FF0FF3AFFF744BA8D49C97800297A
:10A6B0000CBF04200520E7E44FF480604DF042FD1C
:10A6C00000283FF408AE874A874B1768D5F8202149
:10A6D0004FF064089A4298BF0027102097FBF8F6C5
:10A6E00031B24DF0F7FB08FB167109B221204DF095
:10A6F000F1FB95F82461EEE501204DF023FD0028E3
:10A7000040F09D80BB7A002B3FF40EAB02204DF051
:10A7100019FD002840F0318204204DF013FD00287F
:10A720003FF402ABBB89002B40F037826F4B996836
:10A7300081F3100109B204204DF0CCFBFFF7F4BA0D
:10A740004FF0010AFEF7B5BD0146FFF7C5BA39461D
:10A75000FFF7C2BA4FF0080AFEF717BC1E4699462B
:10A76000CDE9053307939846FFF7D0B8584B1A78D0
:10A77000002A40F08581BAF18A0F00F06B81BAF1AE
:10A780008E0F7EF41CA999F80030002B7DF45EAD8D
:10A79000574A584B13602D2385F83C311668FEF755
:10A7A00013B93146FEF771BE534B1B789B0700F17E
:10A7B000A3814FF480604DF0C5FC504E00283FF45B
:10A7C000C7AA4FF000084FF06409012098FBF9F781
:10A7D00039B24DF07FFB09FB178109B209204DF01A
:10A7E00079FBFFF7B5BA444B1A7800239007CDE9FF
:10A7F0001E3300F15B8195F82831012B00F0568162
:10A80000B7F90030DFED3E6A07EE103AB7F90230D3
:10A8100007EE903AB8EEC77AF8EEE77A27EE267A96
:10A8200067EEA67ABDEEC77AFDEEE77A20A88DED39
:10A83000207ACDED217A4DF065FBFFF7C1BADFF844
:10A84000CC80304E98F80020002A40F0B4811346A6
:10A85000110189B241EA0321C3F30323194309B269
:10A860000620A5F826214DF035FB2748B5F826111E
:10A870003388067A98F80020C07A0131012E03F15E
:10A8800005034FF00A0CA5F8261193FBFCF399B2CF
:10A8900000F0878101EB81039EB210B10AB196FBF3
:10A8A000F2F64FF0640A3A20B6FBFAF80FFA88F194
:10A8B0004DF010FB0AFB186189B20A2305313B20D9
:10A8C00091FBF3F109B24DF005FB1BE7BC1606083E
:10A8D000133B002068B70020FBB5002080B20020A9
:10A8E0004C670020E0B400203F4B4C00D8B3002060
:10A8F000F4B5002010B70020A4B3002088E70020A2
:10A900000050C347C0B3002058B20020C6B3002097
:10A91000B14BDFF820832193C82223F8402C98F80C
:10A920000020A3F140073D3B2093D2074FF02103C5
:10A93000BB7040F10281A94B1B88580500F1CC8007
:10A94000190500F1F880DA0500F1F380D80700F16D
:10A950009283990740F18783A14920AB184605935C
:10A9600035F032FD98F80030DA0740F11081209B75
:10A970009C4A0598591C209100211970209B9B1A14
:10A980007B704DF0A5FBFEF786B9934B964A97492D
:10A99000D27A219340F6C82023F8400C082003F80F
:10A9A0003E0C3D3B20930B88002A40F0978020A866
:10A9B00005330A2193FBF1F189B2059035F036FD9C
:10A9C000DDF814808A4F0A223B6893FBF2F340467D
:10A9D00099B235F02BFD2FF089FFBF68209B3A0C10
:10A9E000591C20911A70209B3A0A591C20911A7008
:10A9F000209B5A1C20921F70209B5A1C209218707A
:10AA000040464DF065FBFEF743B9784B1B8803EBDE
:10AA100083034FEA43091FFA89F9002A00F066828E
:10AA2000734BB3F900A02FF061FF40B2FFF781B87C
:10AA3000012540E56F4B1B789F077FF5C2AED6F826
:10AA40000880C0E693ED028AB8EEC88A28EE278A0D
:10AA5000FFF70EBA684B1B689E067DF5B0AF99F8FC
:10AA60000030002B7DF4F2AB644A654B13602D235C
:10AA700085F83C3192E6634B1A78002A3DF49FAF8B
:10AA8000D5F83821002A08DD5F480A2AB8BF0A2213
:10AA90000021C0F89024C5F838114FF47A6240F6CE
:10AAA000B8317A600022B9601A7064E6D6E90023F2
:10AAB00001211EA885F82811CDE91E234DF022FAA8
:10AAC000FFF77EB90525F6E40425F4E40325F2E456
:10AAD0000225F0E40625EEE44C493EE74C4A20A866
:10AAE000117893FBF1F10A23053191FBF3F189B25F
:10AAF000059035F09BFC63E7464E474BF1894FF4D8
:10AB0000F36707FB01F1112091FBF3F109B24DF05E
:10AB1000E1F9F389642107FB03F393FBF1F393FB62
:10AB2000F1F201FB123109B219204DF0D3F9FFF710
:10AB300008B93A4911E73A490FE73A4B1B68D3B9CC
:10AB4000DBF800301B067FF5F6AE2A4B1B7803F0CE
:10AB50000303032B3FF4EFAE3349FEE6DBF800308E
:10AB6000324A190616787FF596AC50464DF052F9E8
:10AB700087F810A08FE42E49EFE61D4A0A231168DA
:10AB800091FBF3F1282009B24DF0A4F9C4E5209B14
:10AB90002A22591C20911A70E9E62FF0A7FE01B273
:10ABA000C9E518B112B193FBF2F399B209B2392099
:10ABB0004DF090F9A6E5B5F82601338890FBF2F147
:10ABC0004FF0640C02FB11010CFB032350008AB20E
:10ABD000B3FBF0F33CE600BF84B60020E4B30020F2
:10ABE000789D060845B6002058B20020C0B300206A
:10ABF000D8B30020A4B3002050B00020F4B500204A
:10AC00003CB70020133B0020A81100205C9D0608E3
:10AC1000C6B3002088E70020A0860100689D0608D2
:10AC2000649D0608F8B40020549D0608E8B500208D
:10AC30004C9D060848670020BD4BBE4E1A8B93ED15
:10AC4000167AD3ED157A93ED145ADFF81CA37168C8
:10AC5000DFF818E3D6F800C0B748BEF800E0DFED33
:10AC6000B75ADFF80C9306EE102AB54A13689268BB
:10AC70001D92B2681792328A1692F2891392327D2F
:10AC80000E92BAF900201592B8EEC66AAD4A069344
:10AC900012881492C7EE066AAB4AAC4BB2F9002098
:10ACA0000D92B3F904200C92B3F902200B92B3F980
:10ACB00000200A92A64A12681C9287EE867A4A14ED
:10ACC0000029B8BF49428CEAEC7302F480424FEA93
:10ACD0006C46A3EBEC7342F40052B1FBF0FC00FBBA
:10ACE0001C1106F4804A099142EA0C02C5EE067A6C
:10ACF000B3FBF0F100FB113304984AEA010192B270
:10AD0000062600F0F00C89B21092099A12910CF10B
:10AD1000100A66EEA56A4FF47A7106FB03F30698F3
:10AD2000B3FBF1F39BB2CDF820A006FB02F2119326
:10AD3000B2FBF1F2FDEEE66A93B20EFB00F00F9368
:10AD40000EF1050E90FBF1F327EE257A09930A2305
:10AD50009EFBF3F31B939DF82030089316EE903A78
:10AD6000BDEEC77A1BB267EEA57A1A9317EE103ABA
:10AD7000FDEEE77A1BB2199317EE903A049E89F81C
:10AD80000AC01BB209F10D0A18933046089B834292
:10AD90005ED9704B0C2202FB0032431E92F82C60ED
:10ADA00046EA00128AF800200AF10101142B00F291
:10ADB000A681DFE813F0A201A0019E019C019A0187
:10ADC0009801960194019201900187017E017C0116
:10ADD0007A017801A401A400A200A0009E00150041
:10ADE0001A9B5C4A324492F82C21012A0DD9023A6E
:10ADF000D2B202F1020CE2448C460CF8013BD4457D
:10AE00004FEA1323F9D101321144092EDBB201F1CB
:10AE1000010A08D04F4A0C2606FB002223F06003EB
:10AE200092F82D2013430B704CF0DAFF4A4BAAEB3B
:10AE30000302049B83420BD246490C2303FB0013FD
:10AE400093F82C300B4493F82C311344102B9DDDD8
:10AE5000414BDFF820E1AAEB03010631C9B241F012
:10AE60004003064689F8073001F1010A0020079BDC
:10AE700012E09CF807C083EA0C0C4FEA8C034FEAFF
:10AE8000DC0283EA4C0302F0180283EA0C034EFA58
:10AE900002F253400130DBB2C2B2914209EB000C26
:10AEA000E7D82E4A05980AF8023052F0CFFE3B7CD4
:10AEB000002B7FF4F0AA2A4B1B689A067FF5EBAAB9
:10AEC0004CF082FF01233B74FFF7E5BA9846FEF78A
:10AED0001DBD162B04BF0023FB73FFF775BA184A7C
:10AEE0009946B2F900A06420FEF723BE4FF0FF3A66
:10AEF00099E5199B75E7189B73E7179B71E7169BFC
:10AF00006FE7042054F082FF99F80030002B7DF4A5
:10AF10009DA9144AAD23166085F83C313EE41E46D7
:10AF20009946CDE90533CDE907339846FEF7EEBCE7
:10AF30005C2A001088E700208096980000007A4480
:10AF4000D8B30020A6B30020E6B30020ACB30020A5
:10AF5000E0B40020A01606086DE7002066E7002098
:10AF600050B00020F4B50020A8B30020C0B30020EA
:10AF700060E700200007090E7378012B7FF471ABA6
:10AF8000AAF1070A85F83D31BAF1070F2ED801A3BF
:10AF900053F82AF031B00008EDAF0008DDAF00082B
:10AFA000EDAF00085FB00008EDAF000857B0000833
:10AFB00003AF000820A8049254F0BCFF5148049A43
:10AFC0004FF47A7341F28831C0F89034BB60239B10
:10AFD0001670C5F838317960FFF732BB4A4F3B78BD
:10AFE00023B14A4B012118680CF0C6FB002054F035
:10AFF0000DFF89E74648AAF1070A0CF0C2F80BF0EA
:10B00000B1FA7378BAF1070FF0D801A252F82AF01A
:10B0100045B00008EDAF0008DFAF0008EDAF000855
:10B020005FB00008EDAF000857B0000803AF00089C
:10B03000032054F0EBFE0BF095FA65E7032054F083
:10B04000E5FE61E70320049354F0E0FE049B012B2E
:10B050007FF45AAFEFE7022054F0D8FE54E7012006
:10B0600054F0D4FE50E72B4B2B491A782B4B002A77
:10B0700008BF194671E42A496FE41E469846FEF758
:10B0800045BC1E4699469846FEF740BC1E4699466A
:10B0900005939846FEF73ABC1E469946CDE905331E
:10B0A0009846FEF733BC159B9BE6149B99E6139BD1
:10B0B00097E6119BA5F85831129BA5F85A31D5F89F
:10B0C00058318EE60F9BA5F85831109BA5F85A31E0
:10B0D000D5F8583185E60E9B83E60D9B81E60C9BE7
:10B0E0007FE60B9B7DE60A9B7BE6099B79E61D9B31
:10B0F00077E61C9B75E6069B73E61B9B71E64FF09B
:10B10000FF336EE6A8110020FBB50020FCB500203F
:10B1100000B70020ECB40020849D06087C9D060842
:10B12000709D06082DE9F047A94ED6F8B05246F2B8
:10B13000A713451B9D422DED028B03D8BDEC028B5E
:10B14000BDE8F087A34BC6F8B0021C6814F00402F7
:10B150007FD1104614F0200438D19FED9F8AA64677
:10B16000A4469E499E4B09781F7811F0010141D1F8
:10B17000002F66D0D6F8C0721970D6F8C432C71B3B
:10B18000ACEB0308002C3FD1002A40F0AF80954B78
:10B190001B780E2BD2D1DFED947A944B944918880A
:10B1A00028EE278A0022BDEEC88A134618EE104A00
:10B1B000BDEC028B64F30F0268F30F0367F31F42C9
:10B1C00060F31F43C1E90023BDE8F087894B1C7879
:10B1D00014F0020400F085808749884C4B8AD1F82E
:10B1E00008C0B4F900E0002B40F0BE809FED7A8AE1
:10B1F0000124B6E72FBB0121B846C6F8C002C6F845
:10B20000C4C21970002CBFD096F8C8327AB1002B96
:10B2100000F0C280022B0DD0012BB8D8784B294604
:10B2200038461F6047F0C8FE704B1880AFE713F038
:10B23000FD0FACD1724A6D4BC2F80080A3F800E05C
:10B24000A5E7D6F8C012D6F8C432471AACEB03080B
:10B2500098E7DFF8CCA1DFF8CC819AF80630B8F88F
:10B260000090D6F8B472013BB7FBF3F7B9F1000FC9
:10B270003FD0644A9FED640A5369002B1946B8BF5A
:10B28000D91DA3EBE1031F44002F3B46B8BFFB1DB4
:10B29000DB1007EE903AF8EEE77A576127EE800A66
:10B2A00035F0F4F8DFED597A20EE270A35F034F95D
:10B2B000F7EE007A77EEC07A9FED550AD6F8BC32E9
:10B2C00067EE807A9F42FDEEE77AC6EDAE7A5DD0FA
:10B2D00009F1FF390022A8F80090C6F8BC721046A8
:10B2E00038E79FED3D8AA646A4463AE796F8C8326D
:10B2F00092E707EE907A9FED440A464FF8EE677AA0
:10B30000B7EE008A27EE800A35F0C0F8DFED3F7A0D
:10B3100020EE270A35F000F9DFED3D7A38EE400ADD
:10B3200020EE270A54F022FFBAF80830DFED3A6A1F
:10B3300007EE103AD6F8B832C01AB8EEC77A07EE60
:10B34000900AA7EE668AB8EEE70AD7ED0D7AF8EE16
:10B35000E77A20EE080A67EEA67AA7EE270A54F0ED
:10B3600005FF01227863F5E607EE903ADFED1E6AED
:10B370009FED2A7AF8EEE77A86EEA78AB4EEC78ABE
:10B38000F1EE10FA88BFB0EE478A31E700231A4683
:10B39000A8F800301846DDE6F7EE007A37EEC87AF6
:10B3A00007EE907AF8EEE77A154B67EE877A07EEAC
:10B3B000108AB8EEC77A2946E7EE087A3846FDEEDD
:10B3C000E77AC3ED007A47F0F7FD084B1880DEE618
:10B3D000F018002050B000209A99993E486700204C
:10B3E0004036002061BC00200000C842E6B30020C7
:10B3F00064BC0020A4B3002088E7002008340020AB
:10B40000E0B40020880100200894253741D3423E53
:10B41000D048874A54B000206F12833A6666663F70
:10B42000D0BB002096530020574B1B685B0700D40D
:10B4300070472DE9F04F554D554C2A78237E372A19
:10B4400008BF544A83B008BF1380042B7CD8DFE8C0
:10B4500003F07369615503004F4FFB6A3846984704
:10B4600000284FD04D4E3B6B06F5337106F5347016
:10B4700098474B4BD6F8D4A2D6F8D8229879D6F86C
:10B48000D0B2D6F8CC32C7F83CB00AF10109511C51
:10B49000814508BF4FF000090329BB63D6F8B48289
:10B4A0005FD04048C6F8D81296F8DC1240F822B0B7
:10B4B00000295FD1584606EB8A0A06EB8902CAF8D2
:10B4C000E002397CD2F8E0C22A78C6F8D49200298A
:10B4D000A8EB0C080CBF052102214044372AC6F80E
:10B4E000B402217604D12B4A5380A2F804B0D08054
:10B4F0007B8A002B43D103B0BDE8F08F2648836AD6
:10B50000984748BB4FF47A73274A1268136103B017
:10B51000BDE8F08F204D6B6A284698470322AB8A1E
:10B520002276E6E71C48036A98470028EAD00223FF
:10B5300023764FF47A73E7E71748C36998470028E2
:10B54000E0D001232376DDE7134DAB692846984709
:10B5500000226B8A2276CCE7042323764FF47A7399
:10B56000D2E7104A0121C2F808B0002286F8DC12A6
:10B57000C6F8D822019351F00DFE019B9BE70A2BE0
:10B58000B8BF0A23C0E700BF50B0002061BC002054
:10B590008801002064BC002054B00020F018002076
:10B5A000D0BB002068E600206C2B00102DE9F04B8A
:10B5B00084B02BF091FDE8B19C4C41F2BC43E358C0
:10B5C000002B1ADC6378022B1CD0032B12D141F222
:10B5D000D853E35C2BBB41F2C443E35C4BBB41F269
:10B5E0000853E35C0BBB41F24C53E35C13B190484E
:10B5F0002BF0EAFC04B0BDE8F08B2AF075FA637812
:10B60000022BE2D1A3784FF00109072BF2D8DFE833
:10B6100013F05A00E900700051001700AA00B400AE
:10B62000140084482BF0D0FCD5E783482BF0CCFCE9
:10B63000D9E782482BF0C8FCD1E703236370D9E730
:10B640002278237DDFF814827D4E032A14BF4FF445
:10B6500080778027002B00F0B180012BFAD1794B45
:10B6600062681968D8F800004FEA412C00234FF0B7
:10B67000FF31B1FBFCF112EB010B43F1000C002197
:10B68000614500F1020008BF584538BF83465A465D
:10B690006D4902202AF018FF032800F2C48001A39C
:10B6A00053F820F0F5B5000893B70008F5B5000889
:10B6B00093B7000841F29053E35C002B9AD06348A3
:10B6C0002BF082FC96E7002303AD29461846092299
:10B6D0002AF085FB01288DD1039B93F8FE21552A82
:10B6E00000F0BE8041F2D45202210123A1546370C4
:10B6F00080E7574B009303253023052255495348D3
:10B70000A5702EF0DDFC75E723690622652BA2707B
:10B7100033D92278032A14BF6FF0FF026FF07F0243
:10B72000A3F1650303EA020303F1010314BF4FF41D
:10B73000807280229A4223611FD2D8F80020E668E6
:10B7400002329F19974202D32AF03EFA2369424AF5
:10B750006660D16FA760490203FB01F342E907333A
:10B7600005211660A170A268354901202AF08FFDDD
:10B77000012840F011810623A370002133482AF0EC
:10B78000C5FC012840F00881A3780133DBB2A37027
:10B790003BE7D4E901232569991AA94288BFC4E986
:10B7A00003210328B0D00133B3FBF7F207FB1232B9
:10B7B0000AB13B449B1A002263602275D8F800202E
:10B7C0003146023200202AF07FFE03282BD801A345
:10B7D00053F820F0F5B500081BB80008F5B50008CF
:10B7E00009B7000803AD41F21C662946A0590023A1
:10B7F00009222AF0F4FA01287FF4FCAE0023039A10
:10B800002370B2F80B30B3F5007F6BD041F2D45205
:10B8100003210123A1546370ECE6636884F814905B
:10B820000133A3601BE7237D14E700BFE80201207A
:10B8300034180120C0180120F0170120AC17012096
:10B84000EC02012018190120F002012078180120D3
:10B85000F5470308A89D06089C180120101901202F
:10B8600093F8FF21AA2A7FF43DAFD3F8C61149B15E
:10B8700093F8C221A2F10B0001282DD902F0F702A2
:10B88000062A29D0D3F8D61149B193F8D221A2F1D2
:10B890000B00012820D902F0F702062A1CD0D3F8A9
:10B8A000E61149B193F8E221A2F10B00012813D966
