:020000040800F2
:10000000F0FF00104DFE0408FD8903086DEF0108A4
:10001000E9FE0408E9FE0408E9FE04080000000007
:10002000000000000000000000000000098A030832
:10003000058A030800000000018A0308FDEF01089B
:10004000E9FE0408E9FE0408E9FE0408E9FE0408E4
:10005000E9FE0408E9FE040879A10008B9A2000835
:1000600079A2000839A20008F9A1000811E90008E6
:1000700001E90008F1E80008E1E80008CDE800081F
:10008000B9E80008A5E80008E9FE0408E9FE04084C
:10009000E9FE0408E9FE0408E9FE0408B9A1000825
:1000A0001DD00108A9D50108E9FE04082DD70108D3
:1000B000E9D4010829D401085DD301083D160108DF
:1000C000451601082D16010835160108E9FE040839
:1000D000E9FE0408C9F10108E9FE04082DF1010850
:1000E00039A10008E9FE040821D003084DCF01081A
:1000F000EDD00108E9FE0408BDD1010891E800082F
:10010000E9FE0408E9FE04088DD20108E9FE0408AE
:10011000E9FE0408E9FE0408798002086580020807
:100120007DE8000869E8000855E8000841E8000893
:100130002DE80008E9FE0408E9FE0408E9FE0408C9
:10014000E9FE0408E9FE0408E9FE040855BF0308B7
:1001500019E8000805E80008F1E7000891F0010837
:100160001D16010825160108E9FE0408E9FE040829
:10017000E9FE0408E9FE0408E9FE0408E9FE0408B3
:08018000E9FE0408E9FE040891
:08018800F4F90400010000007D
:1001900010020100E0320020DC32002000000000EC
:1001A0004407000803123300045B0020375B002083
:1001B000000000004807000825009600B8590020FC
:1001C0004E5A00200000000000000000F6210C0044
:1001D000B0580020BC580020000000007C07000838
:1001E00015007000D057002040580020000000008B
:1001F000000000002A006000105700207057002007
:1002000000000000C9D103082C001000E45A0020AF
:10021000F45A002000000000B13401082B00240033
:100220008E5B00206A5B0020000000008134010822
:1002300029107800C8580020405900200000000014
:100240000000000004120200F85D0020205F002082
:1002500000000000880700080F020100F45D002084
:10026000245F0020000000008A070008140003003B
:10027000085700200B570020000000008C070008E2
:1002800010100200505E0020285F002000000000D7
:1002900090070008281010006C5D00202C5F0020E3
:1002A00000000000B117010823001000F4550020E1
:1002B0003C5F002000000000CD170108F821060077
:1002C000EE5600204C5F002000000000920700085E
:1002D0001A023C00F060002058640020000000007A
:1002E000B593000827000400EC600020946400200F
:1002F000000000009807000818020200A06A002011
:10030000806B0020000000000000000017020B00BE
:10031000956A0020846B00200000000039840008EA
:1003200007020200486B0020906B002000000000D4
:100330009C07000802000C00206B0020946B00203A
:10034000000000000000000006020C00146B0020FA
:10035000A06B002000000000A59200080812090010
:100360008C6A0020AC6B0020000000007D84000837
:10037000F7010600826A0020B86B00200000000030
:100380009E0700080A020A00FC690020C06B0020DA
:1003900000000000A4070008030001001865002009
:1003A000CC6B002000000000000000001B020800D1
:1003B000847200208886002000000000D584000898
:1003C00001200800DC84002090860020000000004E
:1003D000AE070008190005008C85002098860020D3
:1003E00000000000B607000837001E0064850020EA
:1003F000A086002000000000BC0700081E000500C9
:1004000060700020C086002000000000DA070008AD
:100410001B00F4006C6D0020C88600200000000066
:10042000A1D202080E020200C0770020BC87002083
:1004300000000000E00700082F00110024860020C3
:10044000C087002000000000E20700080510060039
:1004500068860020D487002000000000F407000810
:10046000F5317000E46C0020DC8700200000000003
:1004700095FA020826000E005C8800204C880020B7
:100480000000000055BA02080B201000566D002035
:100490009088002000000000FA0700081F201C00C0
:1004A000C46C0020A0880020000000000A0800089A
:1004B00005020400CC720020BC880020000000006F
:1004C0002608000816000800E8890020F0890020AE
:1004D000000000002A08000803010A00849C002094
:1004E0001C9D0020000000003208000813020300D9
:1004F00044920020289D0020000000003C080008D5
:100500001A000E0080AF0020B4B1002000000000EF
:10051000400800080400800084EB00203CEC002030
:1005200000000000000000000D00340020EB00205F
:10053000BCEC002000000000DD2F0308FD012400BA
:1005400050E20020F0EC00200000000081AB010828
:1005500018202C0020E2002014ED002000000000F4
:100560007D9400080610180078D5002040ED00208A
:10057000000000006DD20308FB01010074D50020CB
:1005800058ED00200000000051940008FC01090013
:1005900040D400205CED00200000000061940008C1
:1005A0000A40200018D4002068ED00200000000060
:1005B0004E080008340010000CD3002088ED002005
:1005C0000000000041D2030811020800E4D200201C
:1005D00098ED0020000000006E08000812120400D0
:1005E000DCD20020A0ED002000000000760800080A
:1005F00012200D00CCD20020A4ED0020000000004D
:100600007A080008FF01080064C60020B4ED00204D
:100610000000000001E50008F9010400F8C5002011
:10062000BCED00200000000001800008FA0102007B
:1006300098BF0020C0ED002000000000D585000814
:100640000202030058B20020C4ED002000000000A8
:10065000000000000C02030014B20020C8ED0020CE
:10066000000000002984000811000C0024B40020C0
:10067000CCED002000000000992D0308FE010900C8
:100680000CB40020D8ED002000000000B584000864
:100690000E502001B6020120E006012000000000FB
:1006A000F1D10308130004004005012000080120D7
:1006B0000000000088080008010104003002012049
:1006C00004080120000000000000000000010400F8
:1006D0002802012008080120000000008C08000802
:1006E00002010300230201200C0801200000000089
:1006F000AD2D020809020100D405012010080120D7
:1007000000000000900800080C106C00000401209C
:100710001408012000000000852D020801020500D8
:1007200038020120800801200000000091B0040878
:10073000000205009C040120880801200000000040
:0407400000000000B5
:1007440000000000000000000000000000000000A5
:100754000000000000000000000000000000000095
:100764000000000000000000000000000000000085
:100774000000000000000100000000000100000073
:10078400020200001118000003000000000504012B
:10079400F401190020030000023C240100000000C1
:1007A40000004A01B400D6010000E8036400040A12
:1007B400000100002801000020003200C800D0071A
:1007C4009600140032002800B004400600055000D2
:1007D40014000F00080100000100000000000000E8
:1007E4000000000000000000000000000000000005
:1007F4002000020100002B21231E640101000000DF
:1008040001000A01290000000000000100000005A9
:1008140000000102030000000000000000000000CE
:10082400000000000000C409000019012828040188
:1008340001006C1600000000000000007E05EA05BF
:10084400B4053200E803D0070000003001000000C6
:10085400000064002C010000000000000000000003
:10086400020000019E077D004632000000000101E5
:100874000101FFFFFFFF000000010000054F42538C
:0D0884004400000000200430900100002816
:100891001A0300000000000000000000000000003A
:1008A1000000000000000000000000000403090433
:1008B10012010002000000408304205700020102DF
:1008C1000301000001A1000831850008DD94000842
:1008D10015850008BDA0000871A000080585000865
:1008E100DC000020B5C500081D8500081985000839
:1008F10011850008799B00080D850008098500080D
:100901009C1A05088DBA03089D80030875B9030870
:100911000000000000000000C5AE0308EDAE0308B2
:10092100000000000000000000000000FD7E030840
:10093100C9850008BD850008259500084195000876
:100941007585000809950008ED9400080100000074
:10095100500100000700000002000000000000003C
:1009610000000000010203040607080900800202DA
:100971001F00000053544D202020202050726F642E
:10098100757420202020202020202020302E30317E
:10099100D6010100000101010001FFFF010000007B
:1009A100685E0C00010102FFFF0000000100000071
:1009B1000000803F00000000000000000000000077
:1009C100FF000000284A0508050804000000000097
:1009D100246805086855050810680508000000002E
:1009E10000000000544A050805080A000000000044
:1009F1002468050868550508F06605080000000030
:100A01000000000001000000000001FFFF010000E4
:100A11000000803FFF1FFF1F6C88002000000000C6
:100A21008407002004000000EC940508ACA7050829
:100A3100000000006D2D0308A086010004000000E5
:100A410000000000000000000000000000000000A5
:100A5100000000000000000000000000EC94050808
:100A610008A80508000000000DBF0108E803000008
:100A71000400000000000000000000000000000071
:100A81000000000000000000000000000000000065
:100A9100C4B90508907705080000000099370208DD
:100AA1007D000000060000000000000000000000C2
:100AB1000000000000000000000000000000000035
:100AC1000000000044940508000000000000000040
:100AD10091E50108E80300000300000000000000A8
:100AE1000000000000000000000000000000000005
:100AF100000000000000000010A805080000000030
:100B010000000000BDD4030810270000030000000E
:100B110000000000000000000000000000000000D4
:100B21000000000000000000000000001CA80508F3
:100B310000000000B530010845AF01085F760000F4
:100B4100050000000000000000000000000000009F
:100B51000000000000000000000000000000000094
:100B6100AC9605080000000000000000811F02088B
:100B7100102700000100000000000000000000003C
:100B81000000000000000000000000000000000064
:100B91000000000020A8050800000000000000007F
:100BA10049A80108E803000005000000000000005A
:100BB1000000000000000000000000000000000034
:100BC10000000000000000002CA805080000000043
:100BD1000000000075340308204E000003000000EF
:100BE1000000000000000000000000000000000004
:100BF1000000000000000000000000003CA8050803
:100C01000000000000000000E12D0308204E00005C
:100C110003000000000000000000000000000000D0
:100C210000000000000000000000000000000000C3
:100C31004CA8050800000000000000009DBC010850
:100C4100400D030003000000000000000000000050
:100C51000000000000000000000000000000000093
:100C610000000000B0950508000000000000000031
:100C7100B14003081027000001000000000000003F
:100C81000000000000000000000000000000000063
:100C910000000000000000005C9405080000000056
:100CA1000000000061050308102700000300000098
:100CB1000000000000000000000000000000000033
:100CC1000000000000000000000000005CA8050812
:100CD100000000000000000081710108A0860100F1
:100CE1000100000000000000000000000000000002
:100CF10000000000000000000000000000000000F3
:100D01004894050800000000000000006DAE0108D5
:100D110050C30000010000000000000000000000BE
:100D210000000000000000000000000000000000C2
:100D310000000000000000000000000000000000B2
:100D410000000000000000000000000000000000A2
:100D51000000000000000000000000000000000092
:100D6100000000000000000064A805080000000069
:100D710000000000F9AB0108A861000001000000BB
:100D81000000000000000000000000000000000062
:100D910000000000000000000000000070A805082D
:100DA10000000000000000005DDD0408A0860100D5
:100DB1000100000000000000000000000000000031
:100DC1000000000000000000000000000000000022
:100DD100B4960508000000000000000019F30108A6
:100DE100A00F000001000000000000000000000052
:100DF10000000000000000000000000000000000F2
:100E0100000000007CA805080000000000000000B0
:100E11009DCE020810270000010000000000000024
:100E210000000000000000000000000000000000C1
:100E31000000000000000000DC9505080000000033
:100E41000000000021300308A00F00000100000095
:100E51000000000000000000000000000000000091
:100E6100000000000000000000000000B895050827
:100E71000000000000000000FD2403081A410000EA
:100E81000100000000000000000000000000000060
:100E91000000000000000000000000000000000051
:100EA10014970508000000000000000009B70208BF
:100EB10010270000010000000000000000000000F9
:100EC1000000000000000000000000000000000021
:100ED10000000000C0A7050800000000000000009D
:100EE1009DE104081A41000001000000000000001B
:100EF10000000000000000000000000000000000F1
:100F0100000000000000000088A8050800000000A3
:100F11000000000005DF0208400D03000000000092
:100F210000000000000000000000000000000000C0
:100F310000000000000000000000000090A805086B
:100F4100000000000000000005A80108400D03009A
:100F51000000000000000000000000000000000090
:100F61000000000000000000000000000000000080
:100F710098A80508000000000000000035130308D0
:100F810050C300000300000000000000000000004A
:100F91000000000000000000000000000000000050
:100FA10000000000A4A805080000000000000000E7
:100FB1004134030840420F0000000000000000001F
:100FC1000000000000000000000000000000000020
:100FD1000000000000000000B0A8050800000000AB
:100FE100000000004531030850C30000000000006C
:100FF10000000000000000000000000000000000F0
:1010010000000000000000000000000001000000DE
:10101100FFFFFFFF000200051002700B000000003F
:10102100088A00200800000000000000F889002064
:101031000800000015850308E180030839B303089F
:10104100000000004D7F0308EDBA0308C9840308BE
:1010510071B003080000000000000000097F0308D0
:10106100C97D0308BD7D03088DA70308A9A703084F
:1010710071A7030855A7030839A70308CD840308FE
:10108100BD80030879B2030800000000217F030836
:1010910075B003089D840308D1AF03080000000068
:1010A10000000000157F0308040309041201000277
:1010B100EF020140830456320002010203010000E5
:1010C10012010002020200408304405700020102A3
:1010D1000301000009022000010104C032090400DB
:1010E10000020806500507058102400000070501BE
:1010F1000240000009026400030100C0320904003B
:10110100000103000000092111010001222600074E
:1011110005830308000A080B010202020100090409
:101121000100010202010005240010010524010053
:1011310002042402020524060102070582030800B5
:10114100FF09040200020A00000007050102400035
:10115100000705810240000009024300020100C0AE
:1011610032090400000102020100052400100105FA
:10117100240100010424020205240600010705825E
:10118100030800FF09040100020A0000000705012D
:10119100024000000705810240000000FF0000003E
:1011A10000FFFF0000000000AA550501000000003B
:1011B10005010905A101A100050109300931093223
:1011C100093309350934094009381581257F750826
:1011D10095088102C0C0000009022200010100E05F
:1011E100320904000001030102000921110100017B
:1011F1002226000705830308000A00000000000002
:1012010001020304010203040607080919B10308D6
:10121100E1B703085DB30308897F0308AD810308C3
:10122100997F0308B57F0308617F0308517F030895
:1012310000000000000000002D202D2D202D2D2D5F
:101241002D202D2D2D2D000000000000000000009C
:1012510000000000000000AA550B010000AA55077C
:10126100010000AA550902000000AA5503009F00D1
:1012710001000000C01200000000803F00000000DB
:1012810000000000000000000000803F000000009E
:10129100000000000000000000000000000000004D
:1012A100000000000000000000000000000000003D
:1012B100010000000000803F00000000000000006D
:1012C10000000000FFFFFFFF0000803F080000005A
:1012D100FFFFFFFFB97D0308B57D0308B17D03085A
:1012E100A57D0308A17D0308AD7D0308A97D030841
:1012F1000060024010600240000000000000000099
:10130100000B0000000000000000000000000000D1
:10131100006002402860024001000000000000005F
:10132100060C0000000000000000000000000000AA
:101331000060024040600240020000000000000026
:10134100100D00000000000000000000000000007F
:1013510000600240586002400300000000000000ED
:10136100160E000000000000000000000000000058
:1013710000600240706002400400000000000000B4
:10138100200F00000000000000000000000000002D
:10139100006002408860024005000000000000007B
:1013A1002610000000000000000000000000000006
:1013B10000600240A0600240060000000000000042
:1013C10030110000000000000000000000000000DB
:1013D10000600240B8600240070000000000000009
:1013E100362F000000000000000000000000000097
:1013F1000064024010640240000000000000000090
:1014010000380000000000000000000000000000A3
:101411000064024028640240010000000000000056
:10142100063900000000000000000000000000007C
:10143100006402404064024002000000000000001D
:10144100103A000000000000000000000000000051
:1014510000640240586402400300000000000000E4
:10146100163B00000000000000000000000000002A
:1014710000640240706402400400000000000000AB
:10148100203C0000000000000000000000000000FF
:101491000064024088640240050000000000000072
:1014A10026440000000000000000000000000000D1
:1014B10000640240A0640240060000000000000039
:1014C10030450000000000000000000000000000A6
:1014D10000640240B8640240070000000000000000
:1014E100364600000000000000000000000000007F
:1014F10001000000E0010000FFFFFFFF010101000A
:10150100ADB2040800000000E40D00200CC0050885
:1015110000000000000000000000000000000000CA
:10152100C0A405080000000000000000700E0020AB
:1015310004000000B8BF05080D00000045CE0408F6
:10154100582800200000000034B905080D000000F3
:101551006DCE04084C28002000000000ACBA05083C
:1015610008000000000000004028002004000000E6
:10157100A0B905080D00000061B30408342800205B
:10158100000000005CBA050803000000BDD004089B
:1015910028280020000000001CC0050803000000EE
:1015A100BDD004081C28002000000000E4B5050897
:1015B1000100000000000000000000000000000029
:1015C100000000000E00000000000000000000000C
:1015D100000000000CC00508000000000000000031
:1015E1000000000000000000C0A405080000000089
:1015F10000000000700E00200400000064BF050818
:10160100030000007DB90408102800200800000034
:10161100A0B905080D00000061B3040834280020BA
:10162100000000005CBA050803000000BDD00408FA
:1016310028280020000000001CC00508030000004D
:10164100BDD004081C28002000000000E4B50508F6
:101651000100000000000000000000000000000088
:10166100000000000E00000000000000000000006B
:101671000000000024C00508000000000000000078
:101681000000000000000000C0A4050800000000E8
:1016910000000000700E0020040000006CBF05086F
:1016A10003000000BDD004086428002000000000F1
:1016B100E4B5050801000000000000000000000082
:1016C10000000000000000000E000000000000000B
:1016D100000000000000000020700020702D72004A
:1016E10008000000425702000000010642570200B4
:1016F100000001060000000000000000CC230020D3
:101701002D202D2D202D2D2D2D202D2D2D000000B6
:1017110000000000000000000000000000000000C8
:10172100FFFFFFFFFA0000000100000001000000C0
:10173100B8B50508C0B50508DCB50508000000000E
:1017410000000000000000000000000083B5050853
:10175100040000000DCC040800000000000000009F
:10176100E4B50508010000000000000000000000D1
:1017710000000000000000000E000000000000005A
:10178100000000000000000024EC00200100C4095A
:101791000000000022EC00200100C409000000004C
:1017A10020EC00200100C409000000001EEC002014
:1017B1000100C409000000001AEC00200100C40966
:1017C100000000001CEC00200100C4090000000022
:1017D10018EC00200100C4090000000016EC0020F4
:1017E1000100C409000000004A0201200100C800F4
:1017F1000100000048020120320030753200000073
:1018010046020120055A05004302012000FF0100A4
:101811004502012001000000A00E0020410201202C
:1018210002000000084E05084202012000FF0100ED
:101831004402012001000000A00E0020400201200E
:1018410002000000084E05083602012080C1803EDA
:10185100050000003402012080C1803E0500000027
:101861002E02012080C1803E050000002C020120D3
:1018710080C1803E050000002602012000FF01001A
:10188100220201200A32010021020120040000008D
:10189100D06605082002012002000000E466050868
:1018A1000000000000000000A80E0020C89C0020DD
:1018B1009CFF2C01000000006C0C00200A000000BD
:1018C100F066050816020120E0150C170000000063
:1018D1006E0C002008000000685505086D0C002002
:1018E100050000002468050818020120020000001C
:1018F10008670508860401200100FF7F0100000040
:10190100850401200200000014670508A9020120D6
:101911000300000024670508A8020120030000005D
:1019210024670508E00301200000F4010100000024
:10193100DE0301200000F40101000000DC030120AE
:101941000000F40101000000DA0301200000F401AD
:1019510001000000D80301200000803E01000000CA
:10196100D60301200000803E01000000FC0301209D
:10197100E803D0070A000000FA0301200064010017
:101981000A000000EF03012000640100EE030120C2
:1019910000640100F6030120006401000A00000058
:1019A100F5030120006401000A000000F403012096
:1019B100006401000A000000F90301200064010035
:1019C1000A000000F8030120006401000A00000081
:1019D100F7030120006401000A000000F303012065
:1019E10000FF01000A000000F203012000FF0100D6
:1019F1000A000000F103012000FF01000A000000BD
:101A0100B20201200000F40101000000B002012037
:101A11000000F40101000000AE0201200000F40109
:101A210001000000AC0201200000F40101000000EF
:101A3100AA0201200000F40101000000EC030120D2
:101A410000640100EA0301201400E8030100000022
:101A5100E8030120E80330750A000000E6030120D5
:101A610000C80100E503012000C80100E4030120D2
:101A710000C80100E3030120006401000A00000026
:101A81007A0401200000D007010000007504012044
:101A910000C801007404012000C801007304012082
:101AA10000C80100780401200000D00701000000F7
:101AB1007204012000C801007104012000C8010066
:101AC1007004012000C80100760401200000D00745
:101AD100010000006F04012000C801006E04012014
:101AE10000C801006D04012000C801000CB6050802
:101AF10000000000000000000000000000000000E5
:101B01007477050809000000000000004C0F002058
:101B1100040000007C7705080900000000000000B7
:101B2100400F00200400000050BD0508090000001E
:101B310000000000340F002004000000B8A60508D2
:101B41000900000000000000280F00200400000030
:101B51001CB6050809000000000000001C0F002051
:101B61000400000024B60508090000000000000080
:101B7100100F0020040000002CB605080900000029
:101B810000000000040F00200400000034B6050826
:101B91000900000000000000F80E00200400000011
:101BA100E4B505080100000000000000000000008D
:101BB10000000000000000000E0000000000000016
:101BC100000000000000000028B805080000000027
:101BD100000000000000000000000000A0940508C3
:101BE1000700000000000000700F0020000000004E
:101BF10038B805080800000000000000640F00204C
:101C01000000000044B805080800000000000000C2
:101C1100580F002000000000E4B505080100000095
:101C210000000000000000000000000000000000B3
:101C31000E00000000000000000000000000000095
:101C41004CB8050800000000000000000000000082
:101C5100000000005CB805080D0000000000000055
:101C6100AC0F00200000000064B805080D00000062
:101C710000000000A00F0020000000006CB8050863
:101C81000700000000000000980F00200000000085
:101C910074B805080D000000000000008C0F002042
:101CA100000000007CB805080D00000000000000E5
:101CB100800F00200000000084B805080700000024
:101CC10000000000780F002000000000E4B50508C6
:101CD1000100000000000000000000000000000002
:101CE100000000000E0000000000000000000000E5
:101CF100000000008CB80508000000000000000092
:101D01000000000000000000A09405080C00000085
:101D1100000000004C02012000000000A0B80508EE
:101D21000C000000000000004E0201200000000035
:101D3100B0B805080C00000000000000840201207A
:101D410000000000C0B805080C0000000000000001
:101D51007802012000000000D4B805080C00000042
:101D6100000000005002012000000000E8A8050862
:101D71000C000000000000005202012000000000E1
:101D8100E0B805080C00000000000000540201202A
:101D910000000000F4B805080C000000000000007D
:101DA1005602012000000000FCB805080C000000EC
:101DB10000000000580201200000000004B90508DD
:101DC1000C0000000000000096020120000000004D
:101DD1001CB905080C000000000000005A02012097
:101DE1000000000028B905080C00000000000000F8
:101DF1005C02012000000000847705080C0000004F
:101E0100000000005E0201200000000030B905085A
:101E11000C00000000000000600201200000000032
:101E21003CB905080C00000000000000620201201E
:101E31000000000048B905080C0000000000000087
:101E4100640201200000000054B905080C000000E4
:101E510000000000660201200000000060B90508D2
:101E61000C000000000000006802012000000000DA
:101E71006CB905080C000000000000007C02012084
:101E81000000000074B905080C000000000000000B
:101E91007A020120000000007CB905080C00000056
:101EA10000000000880201200000000088B9050838
:101EB1000C000000000000008A0201200000000068
:101EC10094B905080C0000000000000090020120F8
:101ED1000000000064A805080C00000000000000DC
:101EE1006A02012000000000A0B905080C000000F2
:101EF100000000007202012000000000A8B90508DE
:101F01000C000000000000006C0201200000000035
:101F1100B4B905080C000000000000006E020120A9
:101F210000000000C0B905080C000000000000001E
:101F31007002012000000000C8B905080C00000073
:101F4100000000007402012000000000C094050898
:101F51000C000000000000007E02012000000000D3
:101F6100D4B905080C000000000000007602012031
:101F710000000000E0B905080C00000000000000AE
:101F81008602012000000000ECB905080C000000E9
:101F9100000000008002012000000000F4B90508E3
:101FA1000C0000000000000082020120000000007F
:101FB100FCB905080C000000000000008C020120A3
:101FC1000000000004BA05080C0000000000000039
:101FD1008E020120000000000CBA05080C00000070
:101FE10000000000A002012000000000E4B5050887
:101FF10001000000000000000000000000000000DF
:10200100000000000E0000000000000000000000C1
:102011000000000014BA05080000000000000000E4
:10202100000000000000000020BA05080D000000BB
:1020310000000000041000200000000028BA05087C
:102041000D00000000000000F80F0020000000005B
:1020510030BA05080700000000000000F00F002062
:10206100000000003CBA0508070000000000000065
:10207100E80F00200000000048BA05080900000030
:1020810000000000DC0F00200000000054BA050829
:102091000900000000000000D00F00200000000037
:1020A10060BA05080900000000000000C40F00200C
:1020B1000000000070BA05080900000000000000DF
:1020C100B80F002000000000E4B505080100000081
:1020D10000000000000000000000000000000000FF
:1020E1000E000000000000000000000000000000E1
:1020F10084BA050800000000000000000000000094
:102101000000000094BA050805000000000000006E
:10211100A702012000000000E4B50508010000004D
:1021210000000000000000000000000000000000AE
:102131000E00000000000000000000000000000090
:102141009CBA05080000000000000000000000002B
:1021510000000000C0A4050800000000000000000D
:10216100A809002004000000A8BA05080D0000001D
:1021710071CC04085810002000000000B8BF050809
:102181000D00000065B204084C10002000000000A2
:1021910034B905080D00000049B2040840100020C0
:1021A10000000000ACBA05080800000000000000B3
:1021B1003410002004000000A0B905080D00000043
:1021C10093B104082810002000000000B4BA0508EB
:1021D10009000000000000001C10002004000000A5
:1021E1005CBA050803000000BDD0040810100020EF
:1021F10000000000E4B50508010000000000000037
:102201000000000000000000000000000E000000BF
:10221100000000000000000000000000BCBA05083A
:1022210000000000000000000000000000000000AD
:10223100CCBA05080D00000000000000701000205D
:1022410000000000D4BA05080A00000000000000E8
:102251009D05012000000000E0BA05080A00000009
:1022610000000000A505012000000000E8BA0508F3
:102271000A00000000000000AD0501200000000080
:10228100F0BA0508080000000000000064100020FA
:1022910000000000F8BA050804000000DDD20408BF
:1022A1000000000000000000E4B505080100000086
:1022B100000000000000000000000000000000001D
:1022C1000E000000000000000000000000000000FF
:1022D10004BB050800000000000000000000000031
:1022E1000000000018BB05080D0000000000000000
:1022F100881000200000000028BB05080400000031
:10230100E9CE0408000000000000000030BB050811
:102311000D000000000000007C1000200000000003
:1023210044BB050804000000C5CE040800000000FD
:1023310000000000E4B505080100000000000000F5
:102341000000000000000000000000000E0000007E
:102351000000000000000000000000004CBB050868
:10236100000000000000000000000000000000006C
:1023710060BB05080800000000000000D01000202C
:10238100000000006CBB0508080000000000000010
:10239100C41000200000000078BB05080800000000
:1023A10000000000B81000200000000084BB0508F8
:1023B1000800000000000000AC1000200000000038
:1023C10090BB05080800000000000000A0100020DC
:1023D100000000009CBB0508080000000000000090
:1023E1009410002000000000E4B505080100000081
:1023F10000000000000000000000000000000000DC
:102401000E000000000000000000000000000000BD
:10241100A8BB050800000000000000004B0E0020D2
:1024210000000000B4BB05080B0000000000000024
:102431006411002000000000C0BB05080B00000073
:10244100000000005811002000000000CCBB05086E
:102451000B000000000000004C11002000000000F3
:10246100D8BB05080B00000000000000401100204F
:1024710000000000E4BB05080B00000000000000A4
:102481003411002000000000F0BB05080B00000023
:10249100000000002811002000000000FCBB05081E
:1024A1000B000000000000001C11002000000000D3
:1024B10008BC05080B0000000000000010110020FE
:1024C1000000000014BC05080B0000000000000023
:1024D100041100200000000020BC050807000000D6
:1024E10000000000FC1000200000000028BC0508CE
:1024F1000700000000000000F410002000000000B0
:1025010034BC05080B00000000000000E8100020AA
:102511000000000040BC05080800000000000000A9
:10252100DC10002000000000E4B5050801000000F7
:10253100000000000000000000000000000000009A
:102541000E0000000000000000000000000000007C
:102551004CBC050800000000000000000000000065
:102561000000000060BC0508080000000000000039
:10257100A0110020000000006CBC0508080000004C
:1025810000000000941100200000000078BC050844
:102591000800000000000000881100200000000079
:1025A10084BC050808000000000000007C11002028
:1025B1000000000090BC05080800000000000000B9
:1025C1007011002000000000E4B5050801000000C2
:1025D10000000000000000000000000000000000FA
:1025E1000E000000000000000000000000000000DC
:1025F10098BC05080000000000000000480E002003
:1026010000000000A8BC05080B000000000000004D
:10261100E411002000000000B4BC05080700000020
:1026210000000000DC11002000000000C0BC050813
:102631000700000000000000D4110020000000008D
:10264100CCBC05080700000000000000CC110020F0
:1026510000000000D8BC05080800000000000000D0
:10266100C011002000000000E0BC050808000000C7
:1026710000000000B411002000000000E8BC0508C3
:102681000700000000000000AC1100200000000065
:10269100E4B5050801000000000000000000000092
:1026A10000000000000000000E000000000000001B
:1026B1000000000000000000F4BC0508000000005C
:1026C10000000000480E00200000000000BD0508C9
:1026D100070000000000000054120020000000006C
:1026E10008BD050807000000000000004C12002092
:1026F1000000000010BD05080700000000000000F8
:10270100441200200000000018BD05080800000068
:1027110000000000381200200000000080A605081B
:10272100070000000000000030120020000000003F
:1027310088A60508070000000000000028120020FC
:102741000000000090A6050807000000000000003E
:1027510020120020000000003CA70508080000002E
:1027610000000000141200200000000020BD050838
:1027710007000000000000000C1200200000000013
:1027810028BD050807000000000000000412002019
:102791000000000030BD0508070000000000000037
:1027A100FC1100200000000038BD050808000000F1
:1027B10000000000F011002000000000E4B5050851
:1027C1000100000000000000000000000000000007
:1027D100000000000E0000000000000000000000EA
:1027E1000000000000000000D5B504085C120020C4
:1027F100A50201202B00000034670508A402012076
:1028010000C80100A2020120E803D0070100000076
:102811004F4D4E4942555346345344003F02012027
:10282100000301003E020120000301001DB5040860
:10283100F5B4040838130020B1B4040865B40408E1
:10284100B01300205DB5040845B5040864140020E8
:10285100D1B3040885B3040884170020EBB504083C
:1028610095CE040860180020D1B1040800000000D2
:10287100B0180020B9D2040889B804088C190020C6
:1028810011B6040800000000401A0020C9B604086F
:1028910095B60408CC1A002059B70408A5B7040856
:1028A100801B0020ED0301200106010059B6040838
:1028B10025B60408C01C0020FDB604080DCF04088D
:1028C100601D0020D5B7040869CF0408281E002028
:1028D100E20301200103010040BD050800000000E2
:1028E1000000000000000000000000004CBD0508D1
:1028F1000800000000000000741F0020000000001C
:1029010054BD050807000000000000006C1F0020F6
:102911000000000064BD05080D000000000000007B
:10292100601F00200000000070BD050803000000CA
:10293100BDD00408541F002000000000E4B50508C4
:102941000100000000000000000000000000000085
:10295100000000000E000000000000000000000068
:102961000000000078BD0508000000000000000024
:10297100000000000000000088BD05080A000000FA
:1029810000000000BCA805080000000090BD05087B
:102991000A000000000000008C6A05080000000029
:1029A10098BD05080A000000000000007C04012019
:1029B10000000000A0BD05080A00000000000000A2
:1029C100801F002000000000E4B5050801000000A0
:1029D10000000000000000000000000000000000F6
:1029E1000E000000000000000000000000000000D8
:1029F100A8BD050800000000000000000000000064
:102A010000000000B4BD050803000000BDD00408AB
:102A1100B41F002000000000C0BD05080300000035
:102A2100BDD00408A81F002000000000C8BD050893
:102A310003000000BDD004089C1F0020000000001E
:102A4100D0BD050805000000000000003D02012086
:102A510000000000D8BD05080700000000000000CC
:102A6100941F002000000000E4BD050807000000DD
:102A7100000000008C1F002000000000E4B50508E4
:102A81000100000000000000000000000000000044
:102A9100000000000E000000000000000000000027
:102AA10000000000F0BD050800000000000000006B
:102AB100000000000000000070A9050803000000EC
:102AC100BDD00408E41F00200000000004BE05087A
:102AD10003000000BDD00408700C002000000000BD
:102AE1000CBE050803000000BDD00408D81F00205B
:102AF1000000000014BE050803000000BDD004085A
:102B0100CC1F002000000000A0B905080300000050
:102B1100BDD00408C01F002000000000E4B5050876
:102B210001000000000000000000000000000000A3
:102B3100000000000E000000000000000000000086
:102B41000000000020BE0508000000000000000099
:102B5100000000000000000030BE05080700000072
:102B6100C5CF04084020002000000000C4B90508BA
:102B710003000000BDD00408342000200000000044
:102B81003CBE050803000000BDD004082820002039
:102B91000000000044BE050803000000BDD0040889
:102BA1001C200020000000004CBE050807000000AA
:102BB100A9CF04081420002000000000F8A6050891
:102BC10003000000BDD00408082000200000000020
:102BD10058BE050803000000BDD00408FC1F0020FA
:102BE1000000000064BE050803000000BDD0040819
:102BF100F01F002000000000E4B5050801000000FE
:102C010000000000000000000000000000000000C3
:102C11000E000000000000000000000000000000A5
:102C2100A5B5040875B504084820002055B8040866
:102C310000000000D420002041B404081DB40408A1
:102C4100602100200000000000000000142200208C
:102C51002DB80408E1CF0408B422002070BE050895
:102C61000000000000000000000000000000000063
:102C71007CBE050803000000BDD00408C02300206D
:102C81000000000084BE050803000000BDD0040858
:102C9100B423002000000000B895050803000000DF
:102CA100BDD00408A82300200000000090BE050844
:102CB10003000000BDD004089C2300200000000098
:102CC1009CBE050803000000BDD00408902300202D
:102CD10000000000A4BE05080200000031D3040872
:102CE1000000000000000000ACBE0508020000006A
:102CF10031D304080100000000000000B8BE05083F
:102D01000200000031D304080200000000000000AE
:102D1100000000000E0000000000000000000000A4
:102D2100000000001C02012088136F170100000041
:102D31001E02012088136F1700000000C4BE0508A1
:102D41000000000000000000000000000000000082
:102D5100D4BE05080800000000000000A0240020E7
:102D610004000000E0BE05080800000000000000AB
:102D710094240020000000005CBA05080400000053
:102D810099CC04080000000000000000E4B505082B
:102D91000100000000000000000000000000000031
:102DA100000000000E000000000000000000000014
:102DB100000000001A02012088136F1701000000B3
:102DC1000A9D002088136F170000000015B3040846
:102DD10000000000AC2400203D050120010000009E
:102DE100E46705080C9D002001000000F06705085C
:102DF100029D002002000000F86705081A9B0020D0
:102E01000000000000000000189B002000000000EE
:102E110000000000169B00200000000000000000E0
:102E2100149B00200000000000000000129B002005
:102E31000000000000000000109B002000000000C6
:102E410000000000E4090020000000000000000074
:102E51001902012002000000046805081CBF0508D2
:102E61000000000000000000000000000000000061
:102E7100D4BE050808000000000000003025002035
:102E810004000000E0BE050808000000000000008A
:102E910024250020000000005CBA050804000000A1
:102EA100E5B204080000000000000000E4B50508D8
:102EB1000100000000000000000000000000000010
:102EC100000000000E0000000000000000000000F3
:102ED100000000002CBF05080000000000000000F9
:102EE10000000000000000003CBF05080D000000CC
:102EF100E9CD0408602500200400000048BF050852
:102F01000D0000003DB3040854250020040000001A
:102F110054BF05080D000000ADCD04084825002070
:102F21000000000060BF0508030000009DB904080F
:102F31003C250020080000006CBF050803000000CC
:102F4100BDD004086428002000000000E4B5050895
:102F5100010000000000000000000000000000006F
:102F6100000000000E000000000000000000000052
:102F710000000000DCB505080000000000000000B2
:102F8100000000000000000083B5050804000000F7
:102F9100B1CC04080000000000000000E4B5050801
:102FA100010000000000000000000000000000001F
:102FB100000000000E000000000000000000000002
:102FC10000000000C0BF0508000000000000000074
:102FD1000000000000000000E8B205080D0000003C
:102FE10000000000C025002004000000D0BF05083B
:102FF1000800000000000000B425002004000000CB
:10300100DCBF05080800000000000000A825002022
:1030110004000000E4BF05080800000000000000F3
:103021009C25002004000000ECBF050808000000FA
:10303100000000009025002004000000F4BF0508F6
:1030410008000000000000008425002004000000AA
:10305100FCBF0508080000000000000078250020E2
:103061000400000004C00508080000000000000082
:103071006C25002004000000E4B5050801000000F3
:10308100000000000000000000000000000000003F
:103091000E00000000000000000000000000000021
:1030A100FDB2040800000000CC2500200000000053
:1030B1000000000044260020000000000000000085
:1030C100E4260020089D0020040000001068050887
:1030D100069D0020E0150C1700000000059D002052
:1030E1000800000068550508049D00200500000047
:1030F10024680508000000000000000034270020BB
:103101007428002000000000000000000000000002
:1031110000000000000000000000000000000000AE
:10312100000000000000000000000000000000009E
:10313100000000000000000000000000000000008E
:10314100000000000000000000000000000000007E
:10315100000000000000000000000000000000006E
:08316100000000000100000065
:1080000000232522027043708370C370704700BF45
:1080100090ED057A90ED004AD0ED066AD0ED014A68
:10802000D0ED047A90ED035AD0ED025AA4EE007A16
:10803000B0EE406AB0EE470AB0EE667AA4EE867AF9
:1080400067EEC07AA5EE407AE5EE867A80ED057A95
:10805000C0ED067A704700BFD0ED057A90ED013A89
:10806000D0ED003AD0ED064A90ED024A90ED077A45
:1080700090ED035A90ED086AD0ED045AC0ED067AEF
:10808000F0EE406A27EE830AC0ED056AA3EEA60A69
:1080900080ED087AA4EE240AA5EE470AA5EEC60AEA
:1080A00080ED070A704700BFD0ED007A90ED017AAD
:1080B00030EE670AE7EE007AB0EE670AC0ED007AAC
:1080C000704700BF704700BF2DE9F04714461D46BA
:1080D00006464FF47A7200232046294647F0EAFC10
:1080E0004D4BDFF848814D4A4D4F034488FB031048
:1080F0001844D91782FB032CC1EB601088FB0028C1
:1081000087FB03279C44474AC1EBEC2CC0EB001EC5
:1081100082FB0C29A3EB8E0E1F44434A86F806E02F
:10812000C1EB27474FEAEC7E08EB000ACEEBA90E25
:1081300082FB07824FEAE0780EEB4E0EC8EB6A181E
:10814000ACEBCE0CC8EB0818DFF8E4E086F804C00E
:10815000A0EB880070718EFB0303F817C0EBE212EE
:1081600040F2B55000FB1272C1EBE353B2F5896FD8
:108170004FEA83073CDA40F2DA239A4242DCB2F556
:10818000B77FB4BF4FF0000E4FF0010E4FEA4E091B
:10819000DFF8A08009EB0E0308EBC3031FFA8EFC87
:1081A000D88A09EB0E0108EBC10116310B2301E05F
:1081B00031F8020D904218DD013BF9D1CE44012384
:1081C00038F83E00B37007F5FA670132121ABC4462
:1081D000F270A6F800C0204629464FF47A720023B8
:1081E00047F068FC3281BDE8F0870133DBB2E9E794
:1081F0004FF0030CE64640F29650DFF838804FF01F
:108200000609CEE74FF0020CDFF82880E64640F280
:1082100029404FF00409C4E780BC92C7C5B3A291BE
:1082200007452EC2ABAAAA2A73B06D168988888822
:10823000792D03111818050830B403888278C478A2
:10824000154DA3F5FA6303F0030101EB4101013A77
:1082500002EB81029B0835F812500279611E40F250
:10826000B55404FB03132B4403EB430302EBC3039A
:108270004279847909490089C3EB031302EB830334
:108280002144C3EB031301EB83034FF47A72002103
:10829000C2FB030130BC70471818050880436D38D5
:1082A0000028F0B403DA2D230B7040420131092875
:1082B00004464FF0010307DD03EB83035B00B0FBD3
:1082C000F3F2092AF8D883B10F48A0FB0326B4FBC8
:1082D000F3F2092A02F1570C02F1300709DD03FB22
:1082E0001244F30801F801CBEFD100230B70F0BC6E
:1082F000704703FB1244F30801F8017BE5D100232A
:108300000B70F0BC704700BFCDCCCCCC884270B4B1
:108310004FF0010442D301FB04F4B0FBF4F58D42AD
:10832000F9D2ECB142BB092D04FB150005F157064B
:1083300005F130020EDDB4FBF1F403F8016B7CB102
:10834000B0FBF4F5092D04FB150005F1570605F106
:108350003002F0DCB4FBF1F403F8012B002CEFD178
:1083600000221A7070BC704703F8016BB4FBF1F483
:10837000002CF5D0B0FBF4F5092D04FB150005F138
:10838000370605F13002EFDCB4FBF1F403F8012B02
:10839000002CEFD100221A7070BC70470546002AED
:1083A000EAD1C0E703685A1C02601970704700BF29
:1083B0002DE9F047089C2578002B804689460CBFA4
:1083C0004FF0200A4FF0300A661C25B3002A26DD44
:1083D000334601E0024698B113F8011B501E0029F4
:1083E000F8D1971E60B13D46013D51464046C84711
:1083F0006B1C002BF8DC257827EAE770013045B1CB
:10840000041B29464046C847301916F8015B002D69
:10841000F7D1BDE8F087002A03DC2846F9E7002001
:10842000EEE7571EDFE700BF01211F220323017083
:1084300042708370704700BFF0B400250E4E00F10B
:10844000FF3C2F46142165B103788B420BD00346C5
:108450000CEB050403E013F8012F8A4203D0A3427A
:10846000F9D1C155013701350B2D02D016F8011F86
:10847000E9E7F0BC704700BF781805080C4AF0B473
:10848000002302F1080717261625152403EB4303E2
:10849000C118BA42C4544D708E7006D092F904309F
:1084A00054799579D6790432F0E7F0BC704700BF73
:1084B0008418050830B4012302253224312110220A
:1084C000057244704171C27003700371837030BCD7
:1084D000704700BF06224FF47A7302704360704702
:1084E00030B41D6995420AD314460A4621448D4290
:1084F000996938BF2A1B214430BC47F02BBD30BCE2
:10850000704700BF0020704700207047012070476F
:108510000120704700207047002070474FF4007022
:10852000024B10609B680B600020704770C60020F3
:1085300003484FF40073806A08600020136070479E
:10854000FCC50020013A30B4D2B28C1C04EB4204CA
:108550000025020F092AD3B203F130028ABF373354
:108560000A700B704D7002318C424FEA0010F0D14E
:1085700030BC70470B4A0C4B10681B681A22C0189D
:108580000A8001D10948704710B5094B09491C6898
:108590000822FFF7D7FF204604220749FFF7D2FF42
:1085A000024810BDE8F7FF1FECF7FF1F0000002096
:1085B000EAF7FF1F020000201200002004230B80B6
:1085C000004870471C00002012230B8000487047B1
:1085D000200000202C22022302704370704700BF4D
:1085E0000830704708307047044A054B126803EBA7
:1085F000421318465B689B69184700BFD8280020C3
:10860000C0BF00200448054B006803EB4013184628
:108610005B685B69184700BFD8280020C0BF0020F6
:10862000704700BF816170476D4B2DE9F04F5C686A
:108630006C4BB3F80AE0B3F804809A894FEA0E2A2B
:10864000B4EB0A044FEA1E6B4FF0000587B065EBF0
:108650000B05CDE900450746009C1889019EA0FB4B
:10866000044500FB0655E00940EA45604FEA08442E
:108670008C46E9114FEA184510EB0408D888009C95
:1086800041EB0509CDE90489A0FB0445B3F802805C
:1086900000FB0655200A40EA05604FEAC83429125B
:1086A0004FEA584510EB040841EB05090099A2FB7D
:1086B000010102FB06114FEAD05A4AEA412A1AF593
:1086C000FA634FEAE15B4BF10004B3F5FA6FCDE9D1
:1086D000023474F10003424E64DA0524AAFB04015B
:1086E00004FB0B1100FB0BF40AFB0144DDE904233E
:1086F000A0FB0A0121444D104FEA3004121B4FEA3F
:10870000900463EB050344EA8174B8EB0408CDE9F7
:108710000423DDE9023434484FEAA10569EB050979
:108720004FF0FF31834274EB010326DA40F6AC5080
:108730001AEB00024FF000014BEB010302FB03F1C7
:10874000A2FB022303EB4103D400DD00101B45EA2A
:10875000527563EB0501DDE9044524184D41CDE96F
:1087600004450B24A2FB040104FB031149104FEA4A
:108770003000B8EB000869EB0109DDE90032534332
:10878000009ADDE90201A2FB02AB0BEB430B4FEABF
:10879000DA7242EA4B02801A4FEAEB7361EB030193
:1087A000CDE9020197B1B168A1FB082301FB0933B0
:1087B000540D5D1544EAC324DDE90423A21A65EBD8
:1087C00003031D46D30B43EA45433B60BCF1000F56
:1087D00002D0029BCCF8003007B0BDE8F08F00BF9C
:1087E000D8280020C45D002024FAFFFF2DE9F04FB7
:1087F000DFF8DCC1754CDCF80C502288B4F90AA013
:10880000C2EB25135200C2EBE502B4F902505B4300
:108810006A43B4F904501B135D43AD1305EBE22525
:10882000B5F5FA324FEAE57B85B04BF1FF33CDE980
:108830000023DDE900325343009AA561A2FB0289BF
:10884000CDE90201B4F908200199009809EB430928
:108850005143D31700FB0311A2FB00230B444FEA43
:10886000EA7B0AFB09F11F0308FB0B13AAFB0801B3
:1088700019444FEA102A4AEA016A16034FEA212BEB
:1088800047EA12571AEB0602E6884BEB070312F190
:10889000000A43F5004BAAFB060106FB0B114A1028
:1088A000CB1752EA030100F08E80B4F910600098F3
:1088B00006FB09F1F71708FB0711A6FB0867394407
:1088C000B4F90E808B4601994FEAE87908FB01F173
:1088D00000FB0911A8FB00898944DCF810104FEA5D
:1088E0004947C1F5801C47EAD837B2464FEA4846A7
:1088F000B4F90C801AEB060A66464BEB070BF71728
:108900004FEAC806019600260096F907DDE90067E0
:108910004FEACC7016EB0A0647EB0B0741EA5C0105
:10892000801B61EB070140F6354C8946A0FB0C012A
:108930000CFB091147F0BEF8B4F91620B4F914A0E5
:108940004E13470B47EAC14702FB06FCD31707FB50
:1089500003CCA2FB07236344564307FB0366A2FB39
:1089600007233344560E46EAC31632184FEA6367AC
:1089700047EB010380460AFB01F14FEAEA7B08FB63
:108980000B17AAFB08013944C60C46EA413612EB24
:1089900006084FEAE147B4F9122043EB07094FEA12
:1089A000182141EA096113010B44029A0AB11B0A1A
:1089B0001360039B23B105EB850580352D121D60E7
:1089C00005B0BDE8F08F0023EFE700BFD85D0020C1
:1089D000D8280020704770472DE9F041334B344EC2
:1089E0009A8A7489B6F91450B6F90480B6F90E70F3
:1089F000B6F920C09B69121B34895443E213B6F9BF
:108A000012401544E40294FBF5F4B6F90250144404
:108A1000A4F57A6E0EFB0EF20EFB05F50EFB08FEBA
:108A2000B6F90C80F4611213574302FB08F21214DA
:108A300002EB6E32ED1205EBE7270232B6F9005079
:108A4000B6F806E0921002F5004207EB85070EFB30
:108A500002F207FA0CF74FEAD23E02374CF25032DC
:108A6000A3EBA70742FA0CF37B4355BF5B00B3FBB4
:108A7000FEF3B3FBFEF35B0078B11A1202FB02F5C2
:108A800040F6DE326A430B4D12145D4302EB254281
:108A900002F6CF6203EB2213036021B10A235C4389
:108AA000083424110C60BDE8F08100BFD8280020F4
:108AB000A05D002043E3FFFF4FF400638382704713
:108AC0004FF40063838270474FF4006383827047E2
:108AD000012380F854307047F0B4037C4569026884
:108AE0001F2B37D9203B2021546899400C4223D0BA
:108AF00010249C40D160D4605168D940CE074ED438
:108B0000EFF31183502282F31288EA6B1168C907D0
:108B100009D45468002C52D1D5E909618E4243D161
:108B2000012285F86020DBB283F31188037C0268A0
:108B30001F2B194614D9203B082150689940084240
:108B400000D0D1600421506801FA03F3184223D108
:108B5000F0BC7047202416689C4026420FD119466D
:108B6000082310688B40184200D0936004231068DB
:108B700003FA01F10842EBD09160F0BC704710217C
:108B80009940946091601168D940CC07B8D5012113
:108B900001FA03F39360B3E7D360F0BC704701219F
:108BA00001FA03F3D360ABE7AF690F44D7600ED887
:108BB0002E69711A5160AC62002185F8601011684D
:108BC00041F00101DBB2116083F31188AEE7711A45
:108BD0005160AE62F0E700BF70B4037C01681F2BE8
:108BE00026D9A3F1200520224C68AA40224214BFB6
:108BF00001220022D2B142691B481C4C02EB420206
:108C000000EB4212257854682068CDB9E568568992
:108C10002C6824F001042C6082891F2B22EA0602B2
:108C200082811AD8202202FA03F38B6070BC70474D
:108C300020220C689A40224214BF01220022D9E768
:108C4000A469226822F001022260828922F48072E3
:108C50001204120C1F2B8281E4D9A3F120022023DD
:108C60009340CB6070BC704794D50020C8110010B1
:108C700070B59D4C2368002B40F005819B4B1A7802
:108C8000002A68D09A4B19789A4B002964D1186849
:108C9000B3F82C5141628489012A44EA0504848195
:108CA000A3F82C1157D0D3F83001B3F85C524162CD
:108CB0008489022A44EA05048481A3F85C124AD01C
:108CC000D3F86002B3F88C5341628489032A44EAE2
:108CD00005048481A3F88C133DD0D3F89003B3F836
:108CE000BC5441628489042A44EA05048481A3F8BF
:108CF000BC1430D0D3F8C004B3F8EC554162848979
:108D0000052A44EA05048481A3F8EC1523D0D3F89E
:108D1000F005B3F81C5741628489062A44EA050429
:108D20008481A3F81C1716D0D3F82007B3F84C5849
:108D300041628489072A44EA05048481A3F84C1817
:108D400009D0D3F85028B3F87C4951629089204368
:108D50009081A3F87C1970BD5C68198961602568F1
:108D6000186845F0010540F20D312560A0F8481063
:108D70008489012A44F480748481ECD0D3F834418E
:108D8000B3F83851D3F830016560256845F0010526
:108D90002560A0F848108489022A44F480748481F4
:108DA000D9D0D3F86442B3F86852D3F86002656052
:108DB000256845F001052560A0F848108489032A3C
:108DC00044F480748481C6D0D3F89443B3F89853A4
:108DD000D3F890036560256845F001052560A0F88B
:108DE00048108489042A44F480748481B3D0D3F871
:108DF000C444B3F8C854D3F8C0046560256845F08E
:108E000001052560A0F848108489052A44F480747F
:108E10008481A0D0D3F8F445B3F8F855D3F8F00521
:108E20006560256845F001052560A0F84810848933
:108E3000062A44F4807484818DD0D3F82447B3F893
:108E40002857D3F820076560256845F0010525609F
:108E5000A0F848108489072A44F4807484813FF480
:108E60007AAFD3F85428B3F85808D3F85038506084
:108E7000106840F001001060A3F848109A8942F48D
:108E800080729A8170BD054615F01CFF217AA9B148
:108E90006DB1194A002316890133002E18BF002135
:108EA000AB4202F16002F6D100293FF4E7AE00F5D3
:108EB0001C501030002320602372DFE62368C31AA1
:108EC000002BFFF648AF637A3BB1013BDBB2637224
:108ED0002BB100F57A702060D0E62360CEE663689F
:108EE00003442360CAE600BF9C64002094D800209D
:108EF000C811001098D8002094D5002010B5027C2D
:108F000001681F2A4FF020030ED94C68203A934085
:108F10001C4208D00B4A406800241470026822F0FA
:108F200001020260CB6010BD0C6893401C42FAD075
:108F3000044A406800241470026822F001020260B2
:108F40008B60F0E70C89002010B5027C01681F2AB5
:108F50004FF020030ED94C68203A93401C4208D0B1
:108F60000B4A406800241470026822F0010202607B
:108F7000CB6010BD0C6893401C42FAD0044A406894
:108F800000241470026822F0010202608B60F0E796
:108F90002D7000202DE9F041C40023189B00B74933
:108FA000CA585268958AADB2EFB2FE070B4461D43D
:108FB000BE0737D5BFF35F8F1D7EEDB2012D00F0E8
:108FC000BB80AF4E138BBFF35F8F231801EB83037E
:108FD0001D7E022D00F0CE80231801EB83031D7E41
:108FE000032D05D19B7E1BB1737F002B40F01A81AE
:108FF000938896F91CC043F480639380231801EB97
:1090000083031B7E013363450AD1B37F0025757747
:10901000002B40F08A80204401EB80000023437540
:10902000BDE8F081964E17F0040F96F91CC04DD1A3
:1090300017F0400700F0B280178A1D6AFFB205F8EA
:109040000C705FFA8CF56F1C93F818E07BB2DF1C94
:10905000BE4533779C4600F00981271801EB87074E
:109060003F7EBB42CAD105F1020C4FFA8CFC86F858
:109070001CC0C3E71588824E25F400652D042D0C15
:109080001580158845F4806515809D7E002737770B
:10909000002D3DD0757F002D37D0231801EB8303C1
:1090A00001251B7E7577022B03D1138843F40063DF
:1090B0001380231801EB83039B7D43F0010313828C
:1090C000204401EB8000037EBDE8F0819F7E757F28
:1090D0004FF0010E86F81EE0002F5CD0002D78D1F5
:1090E000231801EB83035B7E002B00F0A480138820
:1090F0000CF1010C4FFA8CFC43F4007386F81CC091
:1091000013801388DF05FCD478E7DB7DFF2BC4D008
:10911000231801EB83039D7D05F0FE051582DB7DA1
:10912000FF2BCDD0FF233377CAE7938823F4407316
:109130001B041B0C93806EE79B7E514E002B3FF46B
:1091400041AF737F002B3FF43DAF138823F480635E
:109150001B041B0C1380BFF35F8F138B1388B57731
:1091600043F400731380938896F91CC043F4806322
:10917000938043E79B7E002B3FF42EAF737F002B41
:109180003FF42AAF138896F91CC023F480631B04B4
:109190001B0C138016E0002DA2D0A8E72D067FF54A
:1091A0002DAFBCF1FF3F6DD0DD6915F80C50158275
:1091B0000CF1010C1D7E4FFA8CF39D429C463377D7
:1091C0007FF41CAF938823F480631B041B0C9380F3
:1091D00014E71F7ED3F820805FFA8CF5AE44022F8F
:1091E0004FFA8EFE17882DD927F480673F043F0C75
:1091F0001780178AFFB208F80C701788D3F820C0C0
:1092000047F400731380138ADBB20CF80E30938896
:1092100005F1020C4FFA8CFC43F4806386F81CC005
:1092200093806EE7938896F91CC023F480631B0437
:109230001B0C9380E2E61388012543F480731380AE
:1092400075775EE747F400771780178AFFB208F852
:109250000C70178AD3F8208005F1030C4FFA8CFCB0
:10926000FBB286F81CC008F80E304AE7978827F44E
:1092700080673F043F0C9780EFE600BFA86A00209C
:10928000D8280020DD7D15829D7E37771DB91B7E95
:10929000002B7FF415AF938823F480631B041B0C11
:1092A00093800DE700230122036003714371C371B2
:1092B00003724372C3728271827270472DE9F84F54
:1092C000DDE90A64894617460021202298460546B2
:1092D00046F0A6FE5EB1D6E900327189EB81C3F398
:1092E0000F432B82C2F30F43EA822B8369824846E5
:1092F00045F0F4FE17F0100B10D1431E70B119F8B1
:1093000003202E2A18BF09EB030104D14AE011F80B
:10931000016D2E2E3ED013F1FF33F8D208280246FD
:10932000CA46A8BF08224FF0000B4FF020336B60F5
:109330002B60C5F807304946284605F1080646F077
:1093400009FE5A465146304646F004FE6B1EE81DA3
:1093500013F8012FA2F1610119299CBF203A1A705C
:109360008342F5D105F10B0116F8013BA3F161022F
:10937000192A9CBF203B06F8013CB142F4D11823C6
:10938000C8F30F42EF722B73A5F81A80AA82EC6122
:10939000BDE8F88FC01A00F1FF3BBBF1030FA8BF77
:1093A0004FF0030B082B03F1010AA8BF0823CA449E
:1093B0001A46BAE738B51D4B1B78044600F125055F
:1093C00093B104221A49203046F068FE2846142240
:1093D000184946F063FE012384F83A30164B1B7897
:1093E00073B984F83B3038BD28461422134946F03F
:1093F00055FE012384F83A300F4B1B78002BF0D038
:109400000F4B186859689A68DD68E56020606160F4
:10941000A260DD69186959699A69A2610123E56151
:109420002061616184F83B3038BD00BFBDAD0020D4
:10943000BEAD0020C3AD00209CAD002044680508EF
:109440009DAD0020014B186815F062BF0864002034
:1094500010B500210446012014F0E8FB207010BD77
:1094600038B500240472451EE1B2022014F0DEFB80
:109470000134082C05F8010FF6D138BD38B52C227F
:10948000002146F0CDFD0346642140F2DC5240F25B
:10949000022019745A821321202240F21A4540F208
:1094A0006C74188399760E2002211A7701229D820E
:1094B000DC8240F2753540F6430483F8220083F8DD
:1094C0002A109A7383F82920DD831C8419460248E8
:1094D000BDE838400FF0ECBC5068050808B530F026
:1094E0007DFE80F00100404240B208BD10B5044C42
:1094F00004480A46214631F0F9F8204610BD00BF65
:10950000F82800205C68050810B5044C04480A4699
:10951000214631F0EBF8204610BD00BFF8280020AE
:109520006C68050810B5044C04480A46214631F021
:10953000DDF8204610BD00BFF82800207868050837
:109540000A4608B5054920B1054831F0CFF803486F
:1095500008BD044831F0CAF8004808BDF8280020CA
:10956000A46805088C680508064B53F820302BB119
:109570001A689B8851690B4201D11383704753834A
:10958000704700BF60B2002003682DE9F04F03F17F
:109590003F4404F57E04534EA40A0125345D04F0D3
:1095A0001F066409032C05FA06F500F09580042CCB
:1095B00000F08D80022C46D08588B5FA85F0C0F188
:1095C0001F0080B2C40803EB840400F00700266A81
:1095D00080000F27874026EA07062662276A01F0E7
:1095E000030602FA00F0721E3843012AC1F3810E0D
:1095F000C1F3001820624FEA51114FF000024FF002
:10960000010C25D94FF0030E0CFA02F0A84315D136
:1096100050001F680EFA00F4E44327401F60D3F89F
:10962000008006FA00F747EA08071F60DF683C4041
:10963000DC60DC6801FA00F02043D8600132102AB7
:10964000E2D1BDE8F08F284C666C35436564B3E722
:109650004FF003090CFA02F737EA050033D1500046
:10966000D3F800A009FA00F4E4430AEA040AC3F8B4
:1096700000A0D3F800B006FA00FA4AEA0B0AC3F8D1
:1096800000A0D3F808A004EA0A0AC3F808A0D3F897
:1096900008B00EFA00FA4AEA0B0AC3F808A0D3F899
:1096A00004A02AEA07075F60D3F804A008FA02F7CB
:1096B00047EA0A075F60DF683C40DC60DC6801FA6B
:1096C00000F02043D8600132102AC3D1B9E7064C1C
:1096D000266B354325636FE7034C266C35432564C1
:1096E0006AE700BF8C5905080038024010B504092C
:1096F000013C032C17D80E4B33F8142000F00F0058
:1097000042FA00F313F001030FD0012303FA00F033
:109710000138104046F01EFA064A074B125D10440D
:1097200003EBC00010BD002010BD184610BD00BFE7
:10973000685C0508705C0508A0B200202DE9F04FB8
:109740004A484B494B4B4C4C4FF0010A4FF0020931
:109750004FF004084FF0080E4FF0100C2027402661
:10976000802530F8022B12F0010F03D01960A3F806
:1097700004A0083312F0020F03D01960A3F804907C
:10978000083312F0040F03D01960A3F804800833E3
:1097900012F0080F03D01960A3F804E0083312F0A8
:1097A000100F03D01960A3F804C0083312F0200F83
:1097B00002D019609F80083312F0400F02D0196068
:1097C0009E80083312F0800F02D019609D8008330C
:1097D00012F4807F05D04FF4807B1960A3F804B0A9
:1097E000083312F4007F05D04FF4007B1960A3F812
:1097F00004B0083312F4806F05D04FF4806B196009
:10980000A3F804B0083312F4006F05D04FF4006BD6
:109810001960A3F804B0083312F4805F05D04FF448
:10982000805B1960A3F804B0083312F4005F05D020
:109830004FF4005B1960A3F804B0083312F4804FB2
:1098400005D04FF4804B1960A3F804B00833D20B55
:1098500004D04FF4004219609A80083301F580610A
:10986000A1427FF47EAFBDE8F08F00BF685C0508C1
:1098700000000240A0B200200010024000B9704772
:1098800003682DE9F04F03F13F4404F57E04534E85
:10989000A40A0125345D04F01F066409032C05FAAF
:1098A00006F500F09580042C00F08D80022C45D048
:1098B0008588B5FA85F0C0F11F0080B2C40803EBBB
:1098C000840400F00700266A80000F27874026EAFC
:1098D00007062662276A01F003068240701E3A439B
:1098E00001282262C1F3810EC1F300184FF000027B
:1098F0004FEA51114FF0010C25D94FF0030E0CFA2D
:1099000002F0A84315D150001F680EFA00F4E4439A
:1099100027401F60D3F8008006FA00F747EA0807DF
:109920001F60DF683C40DC60DC6801FA00F0204327
:10993000D8600132102AE2D1BDE8F08F284C666C65
:1099400035436564B4E74FF003090CFA02F737EAD0
:10995000050033D15000D3F800A009FA00F4E44325
:109960000AEA040AC3F800A0D3F800B006FA00FA25
:109970004AEA0B0AC3F800A0D3F808A004EA0A0ACE
:10998000C3F808A0D3F808B00EFA00FA4AEA0B0AA6
:10999000C3F808A0D3F804A02AEA07075F60D3F849
:1099A00004A008FA02F747EA0A075F60DF683C4054
:1099B000DC60DC6801FA00F02043D8600132102A34
:1099C000C3D1BDE8F08F064C266B354325636FE7A6
:1099D000034C266C354325646AE700BF8C590508A3
:1099E0000038024000B97047036803F13F4202F5B6
:1099F0007E022DE9F04F920A464DAA5C02F01F0547
:109A000052090124032A04FA05F47ED0042A77D0EF
:109A1000022A30D001F00306721E012AC1F3810E22
:109A2000C1F300188588C1F341114FF000024FF0D7
:109A3000010C25D94FF0030E0CFA02F0A84315D102
:109A400050001F680EFA00F4E44327401F60D3F86B
:109A5000008006FA00F747EA08071F60DF683C400D
:109A6000DC60DC6801FA00F02043D8600132102A83
:109A7000E2D1BDE8F08F284A556C2C435464C9E705
:109A80004FF003090CFA02F737EA050033D1500012
:109A9000D3F800A009FA00F4E4430AEA040AC3F880
:109AA00000A0D3F800B006FA00FA4AEA0B0AC3F89D
:109AB00000A0D3F808A004EA0A0AC3F808A0D3F863
:109AC00008B00EFA00FA4AEA0B0AC3F808A0D3F865
:109AD00004A02AEA07075F60D3F804A008FA02F797
:109AE00047EA0A075F60DF683C40DC60DC6801FA37
:109AF00000F02043D8600132102AC3D1BDE8F08FB6
:109B0000054A156B2C43146384E7034A156C2C43F8
:109B100014647FE78C5905080038024010B10368CF
:109B200082885A83704700BF10B1036882881A8305
:109B3000704700BF18B10368828809B95A8370471B
:109B40001A83704710B40A4B0A4A1C7801238340D9
:109B5000234052F8200029B9B3FA83F149095DF88E
:109B6000044BE7E7191C18BF01215DF8044BE1E73E
:109B70005DB2002060B200202DE9F04F002087B0D8
:109B80000C461D4601219246FFF7DCFF002D63D0F5
:109B900005EB0A03DFF8D094DFF8D0B40393554601
:109BA0001CE0002D00F0C581D9F81430AB4264D020
:109BB000D9F81030AB4200F09780D9E90631AB42BA
:109BC00052D8A94200F26F81691A20463DF058FC34
:109BD000039B01359D4204F500743DD0D9F8206007
:109BE000AE42DED8D9F83080AE1B4FEAD60AD8F89C
:109BF00030300AF1020A9A4506F0070603D3D8F876
:109C000038309A4509D9414650463DF007FC804618
:109C1000002800F04D81C9F8300098F80430002B7E
:109C200040F0E280D8F82870002F00F0DF81D8F8EB
:109C30003030D8F80C20AAEB030A06EBCA0A4346D8
:109C4000204602EB4A224FF40071B847039B0135CE
:109C50009D4204F50074C1D100210846FFF772FF50
:109C6000002007B0BDE8F08FA942ADD94FF40072D3
:109C70000021204646F0D4F9AAE752226120412370
:109C8000002622706270A070722284F8E70184F8C6
:109C9000E631D9F82800E3704FF0FF33314684F8FD
:109CA000E42184F8E521C4F8E8014FF4F07284F867
:109CB000EC3184F8ED3184F8EE3184F8EF31201D79
:109CC00046F0AEF955216FF05502C4F8F061C4F8C2
:109CD000F461C4F8F86184F8FC6184F8FD6184F8EB
:109CE000FE1184F8FF2173E74FF400720021204633
:109CF00046F096F9D44BD54F03CBEB2302222370C9
:109D00004FF0080C9026F8234FF0580EC4F80300CB
:109D1000227484F80DC0C4F8071084F801E0A6701E
:109D20006375D9F81010D9F80830D9F81C6022737F
:109D3000591A21624FF0FF3100233F20A1763E21C6
:109D4000A273E372E3736374A374E3742375A3755E
:109D5000E3756376E3766377A377E37720762177FD
:109D600084F82C2007CFD9F8187084F82830F61B17
:109D700084F8293084F82A3084F82B3084F82D3088
:109D800084F82E3084F82F3084F8313084F8323063
:109D900084F8333080236662C4F8470004F1470634
:109DA00084F8403029209423A94F84F846C084F8D1
:109DB000420084F843300E200D234FF0010C84F84C
:109DC000440084F8453084F830C0716003CF3346D6
:109DD0005527AA269A60C4F85200C4F8561084F891
:109DE000FE7184F8FF61F3E64FF400720021204613
:109DF00046F016F9D8F84030002E61D104F1200762
:109E0000002B77D0D8F8303092491122CDE9006686
:109E10002046FFF753FAD8F840301A6C04F1400A94
:109E2000002A79D01B6B8C49CDE900663846112297
:109E3000FFF744FAD8F84460002E3FF4C9AE4FF45F
:109E4000E078CDE904450CE00024CDE900C4FFF73B
:109E500035FAB66CBA46A8F120080EB3B8F11F0F58
:109E60001ED93468356B96F804E011222B46214642
:109E700050460AF1200706F11C0CBEF1000FE3D199
:109E800072793369019342F021022B46CDF800C06C
:109E9000FFF714FAB66CBA46A8F12008002EDDD1FF
:109EA000DDE9044594E6E91A20463DF0E9FA8FE63B
:109EB000231F04F5FE7243F804BF9A42FBD187E6E4
:109EC000002BD8F844200CBF01230223C3EB061358
:109ED000002A3FF47DAE966C013B002E3FF478AE35
:109EE000013BB66CF9D1002E3FF472AEA2464FF49E
:109EF0000078A6E7CDE900663346D9F80C100822B1
:109F00002046FFF7DBF9D8F84460002E3FF460AE3E
:109F1000BA464FF4F07894E7CDE900663346384608
:109F200011224D49FFF7CAF9D8F84460002E86D1B6
:109F30004EE64FF400722946204646F071F8802222
:109F40000C2384F8BE2184F8C231D9F81000434BA9
:109F5000D9F8086084F8B85183FB0032C117C1EB0F
:109F60002232B2F5806F84F8B95184F8BA5184F87E
:109F7000BB5184F8BC5184F8BD51C4F8C601C4F883
:109F8000CA6142DBFF2384F8BF3184F8C13184F811
:109F9000C031324B711E83FB0132CE17C6EB223229
:109FA000B2F5806F29DA2E4B84F8C52183FB0103BB
:109FB0000B442C48C6EB6313C3EB831680FB037082
:109FC000891B1844DE17921022F03F020131C6EBC4
:109FD000E0100A43034484F8C42184F8C3315522B5
:109FE000AA2384F8FE2184F8FF31F1E539464FF4C5
:109FF0000072204646F014F8EAE5FF2384F8C331E6
:10A0000084F8C53184F8C431E9E7154B84F8C121DF
:10A0100083FB00730344134FC1EB631387FB0317E8
:10A02000C3EB831C9110A0EB0C02F818DF1721F092
:10A030003F010132C7EBE0100A43034484F8C0211A
:10A0400084F8BF31A5E700BFC4680508D0680508DB
:10A05000E0680508BC680508C068050897554541D3
:10A06000832008828180808070C60020DEADBEEF34
:10A0700070B50C4601211E4608461546FFF762FDE5
:10A08000AEB104EB462601E030F0A8F800222146EC
:10A0900028463DF057F80028F6D130F09FF8002808
:10A0A000FBD004F50074B44205F10105EED10021A6
:10A0B0000120FFF747FD002070BD00BF70B50C46C2
:10A0C00001211E4608461546FFF73CFD96B104EBFC
:10A0D00046260022214628463DF0CCF80028F8D03C
:10A0E00030F07CF80028FBD004F50074B44205F190
:10A0F0000105EED100210120FFF724FD002070BDF5
:10A10000002108B50846FFF71DFD3DF0EFF830F0DF
:10A1100065F80028FBD001210020FFF713FD002087
:10A1200008BD00BF30B1036882881B691A4214BFA2
:10A1300001200020704700BF2DE9F0410C4E35682A
:10A1400073691D4011D0DFF82C800127B5FA85F422
:10A15000C4F11F0408EB840307FA04F4D3F82001C8
:10A1600003689847A5437461F0D1BDE8F08100BF52
:10A17000003C0140D82800202DE9F0410C4E356804
:10A1800073691D4011D0DFF82C800127B5FA85F4E2
:10A19000C4F11F0408EB840307FA04F4D3F8200188
:10A1A00003689847A5437461F0D1BDE8F08100BF12
:10A1B000003C0140D82800202DE9F0410C4E3568C4
:10A1C00073691D4011D0DFF82C800127B5FA85F4A2
:10A1D000C4F11F0408EB840307FA04F4D3F8200148
:10A1E00003689847A5437461F0D1BDE8F08100BFD2
:10A1F000003C0140D82800202DE9F0410C4E356884
:10A2000073691D4011D0DFF82C800127B5FA85F461
:10A21000C4F11F0408EB840307FA04F4D3F8200107
:10A2200003689847A5437461F0D1BDE8F08100BF91
:10A23000003C0140D82800202DE9F0410C4E356843
:10A2400073691D4011D0DFF82C800127B5FA85F421
:10A25000C4F11F0408EB840307FA04F4D3F82001C7
:10A2600003689847A5437461F0D1BDE8F08100BF51
:10A27000003C0140D82800202DE9F0410C4E356803
:10A2800073691D4011D0DFF82C800127B5FA85F4E1
:10A29000C4F11F0408EB840307FA04F4D3F8200187
:10A2A00003689847A5437461F0D1BDE8F08100BF11
:10A2B000003C0140D82800202DE9F0410C4E3568C3
:10A2C00073691D4011D0DFF82C800127B5FA85F4A1
:10A2D000C4F11F0408EB840307FA04F4D3F8200147
:10A2E00003689847A5437461F0D1BDE8F08100BFD1
:10A2F000003C0140D8280020002875D02DE9F0410D
:10A300008488B4FA84F4C4F11F04651C82B002D1BD
:10A3100002B0BDE8F081E7B207F0FC0606F1804626
:10A3200006F59C3607F00307D6F808E0DFF8C4C04E
:10A330000068BF004FF00F0808FA07F82EEA08057A
:10A340000CEB840E00F13F40CEF8201100F57E00AA
:10A35000B560D6F808E02549254DC0F38720B84000
:10A360000127A74040EA0E00B0604F610E68F84335
:10A3700006400E604E6806404E600E683E430E601A
:10A380008E6806408E60CE682C443040102BC8602A
:10A3900094F8780021D003F1804303F59E331968C7
:10A3A0003943196084449CF860319342B0DD054420
:10A3B000941195F888308DF804300021012301A80C
:10A3C0008CF860218DF805408DF806108DF8073067
:10A3D00031F096FB02B0BDE8F0818B683B438B60A7
:10A3E000CB681F43CF60DDE7704700BF003C0140F2
:10A3F00018180508D8280020094A10B5536C094CD4
:10A4000043F48043536404F590704022002145F0EA
:10A4100007FE4FF0FF33C4F86031C4F8633110BD5C
:10A4200000380240D828002010B58B68016004462F
:10A4300098470022FF230121A2736373217310BD8B
:10A4400003685B6A184700BF03681B6A184700BFB0
:10A4500070B44E1C0568C2728672AC69A44670BCAA
:10A46000604700BF2DE9F041044618460D461646E8
:10A470001F4644F033FE2844A0722068E672294645
:10A4800045693B4632462046AC46BDE8F041604750
:10A49000036810B504461B689847236820469B68EC
:10A4A0009847A37B0133A37310BD00BF10B50368A9
:10A4B00004469B689847FF2301226373227310BDF3
:10A4C00038B50D46FFF712F9044650B136238371B3
:10A4D000C5710121FFF786FA2046BDE83840FFF735
:10A4E00023BB38BD38B50D46FFF700F9044650B11F
:10A4F00035238371C5712021FFF774FA2046BDE82A
:10A500003840FFF711BB38BDF8B5124F054600249F
:10A51000E65D3046FFF7EAF8854204D12146304631
:10A52000BDE8F840DEE701340B2CF1D10A4C20786D
:10A53000FFF7DCF8854209D06078FFF7D7F885424D
:10A5400006D10121605CBDE8F840B9E70021F9E7D8
:10A55000F8BD00BF956A0020A06A00200E4B98420B
:10A5600014D0A3F5784398420ED003F58063984247
:10A570000ED10222094B03EB02135A89013292B227
:10A580005A81588980B270470122F3E70022F1E72F
:10A590004FF0FF30704700BF0030014018B200207C
:10A5A000F8B584894FF6FF764FF47A7433B319B354
:10A5B0000F78013101E0B44218D00589013CAD07A4
:10A5C000A4B2F8D5BCB284814FF47A7402E0BCB274
:10A5D000B4420BD00589ED0704F1FF37F7D5858923
:10A5E000ADB20AB115700132013BDFE7FFF7B6FFEC
:10A5F000003018BF0120F8BDFF27DEE70120F8BDBD
:10A6000030B5437F83B004461BB90120637703B0A4
:10A6100030BD0523ADF80430056800BFA868FFF71A
:10A620007DFA6A4601A902236868FFF7B9FFA868A6
:10A63000FFF77AFA00BF9DF8013003F0010383F0C1
:10A640000100637703B030BDF8B5074C05460F46EF
:10A65000266803E023689B1BBB4204D82846FFF70B
:10A66000CFFF0028F6D0F8BD94B20020F0B5077FE8
:10A6700083B004464FF0030C0020009016461D46A0
:10A680008DF804008DF800C06FB30B0E8DF801300B
:10A690000DF10203080C0A0A997018700621204671
:10A6A0005A70FFF7D1FFE0B1236800BF9868FFF749
:10A6B00035FA237F2268002B14BF05230423694643
:10A6C00050680022FFF76CFF23683246002158686B
:10A6D0002B46FFF765FF23689868FFF725FA00BF50
:10A6E000284603B0F0BD0DF10103D3E72DE9F04199
:10A6F0008046806810B1046880886083D8F80400C0
:10A7000085894FF47A744FF6FF7613F1FF3320D327
:10A7100041B30F78013101E0B44218D00589013C02
:10A72000AD07A4B2F8D5BCB284814FF47A7402E0CC
:10A73000BCB2B4420BD00589ED0704F1FF37F7D561
:10A740008589ADB2002AE0D015700132DDE7FFF750
:10A7500005FFD8F8083013B11A689B8813830120CD
:10A76000BDE8F081FF27D9E7F0B5876983B00646D9
:10A7700017B13B68BA885A837069DFF8A8E083890B
:10A78000C3244FF47A734FF0060C6D464FF6FF71F9
:10A790000EF1010E03E0013B9BB28B4220D00289F7
:10A7A0009207F8D5A3B283814FF47A7302E0A3B283
:10A7B0008B4215D00289D20703F1FF34F7D5828985
:10A7C00092B20DB12A700135BCF1000F0BD00CF123
:10A7D000FF3CFF24BEF1000FE1D09EF80040D7E718
:10A7E000FFF7BCFEB76917B13B68BA881A839DF8BA
:10A7F00005009DF801509DF802109DF803409DF85A
:10A8000004209DF8063041EA052143EA002342EA8C
:10A8100004220120A6F85010A6F85220A6F85430C1
:10A8200003B0F0BDA818050808B540F2E93300E010
:10A83000A3B10289013B12F0020F9BB2F8D089B29A
:10A84000818140F2E93300E043B10289013B12F01B
:10A85000010F9BB2F8D08089C0B208BDFFF77EFE21
:10A86000C0B208BD427A4AB110B5044604F10A01EB
:10A87000D0E9003098470023637210BD704700BFD5
:10A88000437A5A1C0344D2B242729972037A9342B9
:10A890000AD84AB110B5044604F10A01D0E90030E3
:10A8A00098470023637210BD704700BF48B1012371
:10A8B000302803FA01F101D0312803D14A0709D128
:10A8C000002070473228F9D03328F7D0342803D13C
:10A8D0008B07F5D0012070473528F9D02028F7D014
:10A8E0002128F5D01028E9D01128E7D01228E5D08A
:10A8F0001328E3D01428EBD01528E9D0162804D16A
:10A9000011F0030018BF012070471728D8D111F0AB
:10A91000030018BF01207047302829D0312829D0E2
:10A92000322829D0332829D0342829D0352829D0D5
:10A9300020282BD021282BD0102825D0112829D031
:10A94000122829D0132829D0142829D0152829D035
:10A95000162805D0172808BF0F2302D00020704703
