:020000040800F2
:10000000F0FF00102D98060821F2000895D304088F
:10001000CD980608CD980608CD9806080000000087
:100020000000000000000000000000001DF20008B9
:1000300019F200080000000015F20008619A040897
:10004000CD980608CD980608CD980608CD980608E4
:10005000CD980608CD98060899E40408C5E504087B
:1000600089E504084DE5040811E50408F57C060857
:10007000E57C0608D57C0608C57C0608B17C060828
:100080009D7C0608897C0608CD980608CD98060850
:10009000CD980608CD980608CD980608D5E4040842
:1000A00071850408F1850408618504081586040833
:1000B000E5850408D5850408C58504087186060809
:1000C00079860608658606086D860608CD980608B6
:1000D000CD980608719E0408B59D0408F99C040893
:1000E0005DE40408CD9806083D090108518504081F
:1000F0008185040841850408A5850408757C0608E7
:10010000CD98060851420608B5850408CD98060822
:100110003D9C0408819B0408C9060408B506040830
:10012000617C06084D7C0608397C0608257C06089B
:10013000117C0608CD980608CD980608CD980608CB
:10014000CD980608CD980608CD980608B1EB0008B2
:10015000FD7B0608E97B0608D57B0608C59A0408DE
:100160005986060861860608CD980608CD980608C7
:10017000CD980608CD980608CD980608CD980608B3
:08018000CD980608CD98060891
:08018800DC93060001000000F9
:100190000E0201000200000064600020C460002024
:1001A00000000000E809000814020100050000003A
:1001B000303E0020C860002000000000EA0900086E
:1001C0001302010004000000BC240020D0600020C5
:1001D00000000000F00900080D1001007000000090
:1001E000085F0020D460002000000000A1F903088F
:1001F0000400080080000000485E002044610020E8
:1002000000000000000000000902010001000000E1
:10021000F05D0020C461002000000000F409000827
:10022000FD01010024000000945D0020C861002051
:100230000000000033690408FB0101000100000018
:10024000505D0020EC61002000000000AD85050835
:10025000FC010100090000001C5C0020F06100208E
:1002600000000000B5850508F70101000600000048
:10027000105C0020FC61002000000000F60900086E
:10028000F9010100040000000C5C00200462002061
:1002900000000000DD690408160215003F000000A0
:1002A0005031002008620020000000005185050840
:1002B0003400010010000000005B002048620020B4
:1002C0000000000025930208110201000800000050
:1002D000D85A00205862002000000000FC090008E5
:1002E0001212010004000000D05A002060620020B9
:1002F00000000000040A000818200100320000007D
:100300009C5A00206462002000000000398E05081D
:100310001220010011000000BC590020986200204A
:1003200000000000080A0008000201000B000000A5
:10033000F8560020AC620020000000000000000021
:10034000FF11010006000000A0560020B862002046
:100350000000000041850508081203000F0000009E
:10036000AC560020C0620020000000005585050842
:10037000FA0101000300000098500020D062002024
:1003800000000000DD8505080A800100280000004B
:1003900060500020D462002000000000E514020834
:1003A000061001001C00000034310020FC62002017
:1003B0000000000039860508020201000300000069
:1003C000A8280020186300200000000000000000A2
:1003D0000C02010004000000882800201C6300209B
:1003E0000000000005860508110001000C00000057
:1003F000B644002020630020000000009DF20308A6
:10040000FE010100140000005C3F00202C6300206E
:1004100000000000E1840508FD07010076000000EF
:1004200080B40020F8B4002000000000C578010866
:10043000261001000E00000080B5002070B50020DD
:1004400000000000051C01080B3001001A0000002C
:1004500038AF0020C0B50020000000001C0A0008D2
:100460001F3001002400000074AE0020DCB5002025
:1004700000000000380A0008050201000400000026
:1004800004B1002000B60020000000005C0A000853
:10049000030101000A000000B8AE002004B60020ED
:1004A00000000000A5160108220201001C01000046
:1004B0005CCD002014D0002000000000F18D050864
:1004C0000C200600CC000000D8CB002030D100204A
:1004D0000000000009F10308010201000B00000008
:1004E0007CCB0020FCD1002000000000F585050831
:1004F0001B0201001000000050CB002008D2002099
:1005000000000000258605081B1001000C000000FB
:1005100004B8002018D2002000000000397F010834
:1005200021020100F000000084B6002024D2002047
:10053000000000000DA101082312010010000000BE
:1005400058C8002014D3002000000000600A0008F2
:10055000371001002E000000C0CA002024D3002064
:1005600000000000700A00081610010006000000DC
:1005700050C8002054D30020000000009E0A00084C
:100580002F10010022000000F0CF00205CD30020DB
:1005900000000000A40A00081E000100090000007D
:1005A00078C7002080D3002000000000C60A0008A1
:1005B0000510010006000000BCC700208CD30020FD
:1005C00000000000D00A0008F5810100680000006A
:1005D00014B6002094D30020000000008991010887
:1005E0002320010010000000FCC70020FCD30020E5
:1005F00000000000F9150208F62101000C000000BF
:1006000040DF002030E1002000000000D80A000890
:100610001C0202001C000000E4DE002080E100203B
:1006200000000000258F05082820010018000000A8
:1006300000DF00209CE1002000000000E52E020801
:100640000412010002000000F0E00020B4E10020EC
:1006500000000000E40A00080F0201000100000091
:10066000ECE00020B8E1002000000000E60A0008ED
:100670001400010004000000DCDE0020BCE10020CA
:1006800000000000E80A0008012001000C00000042
:100690001CD70020C0E1002000000000EC0A000888
:1006A0000EF003009E01000004D50020CCE10020E4
:1006B000000000006D930208130001000400000018
:1006C000D4DA00206CE3002000000000F80A0008E3
:1006D000010101000400000050D4002070E300205C
:1006E0000000000000000000000101000400000004
:1006F00048D4002074E3002000000000FC0A000839
:10070000020101000300000044D4002078E300202F
:100710000000000045F10308190001000500000079
:10072000A0ED00206CEE002000000000000B00088F
:100730001A0001000E00000028ED002074EE0020D9
:1007400000000000060B0008203201000A00000033
:10075000F4EB002084EE0020000000004993020822
:1007600015001000700000008CE9002090EE0020C1
:1007700000000000000000002A00080060000000E7
:10078000E8ED002000EF002000000000FD920208CC
:100790002C0004001000000070EF002060EF00202B
:1007A00000000000D59002082B0012002400000079
:1007B000A4EF002080EF002000000000A9900208B4
:1007C00029201400780000002CE70020C8EF00204A
:1007D00000000000000000001902010010000000ED
:1007E00060E6002040F0002000000000E5850508DC
:1007F000030001000100000004F4002038F4002090
:100800000000000000000000031201003D00000095
:10081000ACF300203CF4002000000000140B0008A2
:1008200025201E002C01000010F100207CF4002087
:100830000000000000000000101001000200000095
:10084000A4F00020A8F5002000000000520B0008D2
:10085000F821010006000000ECF00020ACF50020BB
:1008600000000000540B0008020001000C00000012
:1008700044FE0020D8FE0020000000000000000020
:10088000290201004000000094F80020E4FE00204E
:10089000000000005A0B00080A02010014000000CA
:1008A00004F8002044FF002000000000D5F00308F9
:1008B00028020400040000007803012054050120F0
:1008C0000000000021860508270204000400000043
:1008D000740301205805012000000000158605085A
:1008E0001F02080010000000D00001205C0501205C
:1008F00000000000F98405081A0201003C00000015
:10090000940001206C05012000000000A98E05085C
:10091000381001000100000078FF0020A805012028
:10092000000000009A0B00082700010004000000EE
:100930006806012070070120000000009C0B0008E1
:100940000B1201003C00000028090120881A012038
:1009500000000000A00B00080D12010014000000B0
:10096000DC150120C41A012000000000DC0B000887
:100970000702010002000000701A0120D81A0120AD
:1009800000000000F00B00081D020200060000003D
:10099000381A0120DC1A01200000000000000000CD
:1009A000060203000C000000441A0120E423012089
:1009B00000000000B18F05083900010005000000AB
:1009C000501A0120F023012000000000CD85050809
:1009D00010020100010000009C57012098570120DF
:0809E00000000000F20B00080A
:1009E8000000000000FF00000000010000000000FF
:1009F800010000000000000001010101FFFFFFFFEE
:100A080000000001000005533430350000000002EA
:100A180000000000AE014A015E012C0164000200E2
:100A2800000001000A019A01001E0A0000020000ED
:100A380000000000000100000005000001020300A2
:100A4800000000000000000000000000000000009E
:100A58000080070000000000000000000000000007
:100A6800000000000000000020003200C800D0078D
:100A780096001400320028004C044006000550007F
:100A880014000F00080064000100010005000A00BE
:100A98000000F4019600C4090000190000000000DD
:100AA800000000000000000000000000000000003E
:100AB8000000000000000000000000000000000529
:100AC80001000000000000002000030100000000F9
:100AD8000000000001000000020200000000000009
:100AE80003000023E8036400040A000114001E0048
:100AF80000204030900100000000280100007E0521
:100B0800EA05B4053200E803D00700000000000041
:100B180000000000000000000000000000000000CD
:100B280000000000000000000000000000000000BD
:100B380000000000000000000000000000000000AD
:100B48000000000000000000010000050101F401A0
:100B58001400000000000000000000000000000079
:100B6800000000000000000000000000000000007D
:100B7800000000000000000000000000000000006D
:100B8800000000000000000000000000000000005D
:100B9800000000002003000000000000000000002A
:100BA800000000000000000000000000000000003D
:100BB800000000000000000000000000000000002D
:100BC800000000000000000000000000000000001D
:100BD800010000000000000000000000000000000C
:0B0BE8000000000000000000003C00C6
:100BF3000403090412010002EF0201408304563288
:100C0300000201020301000012010002020200407F
:100C1300830440570002010203010800FFFFFFFFA6
:100C2300006002401060024000000000000000006D
:100C3300000B0000000000000000000000000000A6
:100C43000060024028600240010000000000000034
:100C5300060C00000000000000000000000000007F
:100C630000600240406002400200000000000000FB
:100C7300100D000000000000000000000000000054
:100C830000600240586002400300000000000000C2
:100C9300160E00000000000000000000000000002D
:100CA3000060024070600240040000000000000089
:100CB300200F000000000000000000000000000002
:100CC3000060024088600240050000000000000050
:100CD30026100000000000000000000000000000DB
:100CE30000600240A0600240060000000000000017
:100CF30030110000000000000000000000000000B0
:100D030000600240B86002400700000000000000DD
:100D1300362F00000000000000000000000000006B
:100D23000064024010640240000000000000000064
:100D33000038000000000000000000000000000078
:100D4300006402402864024001000000000000002B
:100D53000639000000000000000000000000000051
:100D630000640240406402400200000000000000F2
:100D7300103A000000000000000000000000000026
:100D830000640240586402400300000000000000B9
:100D9300163B0000000000000000000000000000FF
:100DA3000064024070640240040000000000000080
:100DB300203C0000000000000000000000000000D4
:100DC3000064024088640240050000000000000047
:100DD30026440000000000000000000000000000A6
:100DE30000640240A064024006000000000000000E
:100DF300304500000000000000000000000000007B
:100E030000640240B86402400700000000000000D4
:100E13003646000000000000000000000000000053
:100E23007D00000015830008118300080D8300086E
:100E330001830008FD820008098300080583000878
:100E4300000000000D910008B1AD0008D19000082A
:100E5300F1AE0008E591000885830008718300085E
:100E63005583000831A70008558A0008119400082B
:100E73008594000805950008B5960008310F010810
:100E83005D8300084D830008010000000000803FDF
:100E930001390108053E01087D390108CD0F01081C
:100EA300B1110108DD0F0108F90F0108A50F0108B1
:100EB300950F010800000000000000000902200057
:100EC300010104C0320904000002080650050705A9
:100ED300810240000007050102400000090264008E
:100EE300030100C0320904000001030000000921CE
:100EF300110100012236000705830309000A080BCC
:100F030001020202010009040100010202010005BD
:100F13002400100105240100020424020205240612
:100F23000102070582030800FF09040200020A0008
:100F33000000070501024000000705810240000090
:100F430009024300020100C0320904000001020249
:100F530001000524001001052401000104240202FC
:100F63000524060001070582030800FF09040100A8
:100F7300020A000000070501024000000705810284
:100F830040000000FF00000000FF00000000000020
:100F93000000AA550701000001AA55050100000839
:100FA300F8DA0608FF1FFF1F05010905A101A100CB
:100FB3000501093009310932093309350934093684
:100FC30009371581257F75089508810205091901DF
:100FD300290815002501950875018102C0C000008C
:100FE30009022200010100E03209040000010301AB
:100FF30002000921110100012236000705830309BC
:10100300000A0000000000000102030401020304BF
:10101300060708092D202D2D202D2D2D2D202D2DBA
:101023002D2D000000000000000000000000000063
:10103300000000AA550B010000AA5505010000AAF3
:10104300550902000000AA5503009F00010000009B
:10105300C0120000B8B500200000000090B50020C9
:101063000000000001000000888307089083070840
:1010730000000000B5F10308A08601000400000091
:10108300000000000000000000000000000000005D
:10109300000000000000000000000000000000004D
:1010A30000000000000000008883070898830708F9
:1010B30000000000697B0408E8030000040000004E
:1010C300000000000000000000000000000000001D
:1010D300000000000000000000000000000000000D
:1010E3000000000000000000A083070800000000CB
:1010F30000000000E15D03087D000000FF00000028
:1011030000000000000000000000000000000000DC
:1011130000000000000000000000000000000000CC
:10112300000000000000000084090808000000001F
:1011330000000000197103087D000000FF0000009B
:10114300000000000000000000000000000000009C
:10115300000000000000000000000000000000008C
:1011630000000000000000004C9807080000000089
:101173000000000089B703087D000000FF000000A5
:10118300000000000000000000000000000000005C
:10119300000000000000000000000000000000004C
:1011A3000000000000000000A88307080000000002
:1011B30000000000CD710408E803000003000000F4
:1011C300000000000000000000000000000000001C
:1011D300000000000000000000000000000000000C
:1011E3000000000000000000AC83070800000000BE
:1011F30000000000ED260308102700000300000094
:1012030000000000000000000000000000000000DB
:1012130000000000000000000000000000000000CB
:10122300000000000000000098050808000000000E
:10123300B58C020849D404085F760000050000005D
:10124300000000000000000000000000000000009B
:10125300000000000000000000000000000000008B
:10126300000000000000000028090808000000003A
:101273000000000031F20408102700000100000004
:10128300000000000000000000000000000000005B
:10129300000000000000000000000000000000004B
:1012A3000000000000000000B883070800000000F1
:1012B3000000000005660408E803000005000000C4
:1012C300000000000000000000000000000000001B
:1012D300000000000000000000000000000000000B
:1012E3000000000000000000C483070800000000A5
:1012F3000000000009F80308204E0000030000006E
:1013030000000000000000000000000000000000DA
:1013130000000000000000000000000000000000CA
:101323000000000000000000D48307080000000054
:1013330000000000F1F50308204E00000300000048
:10134300000000000000000000000000000000009A
:10135300000000000000000000000000000000008A
:101363000000000000000000E48307080000000004
:1013730000000000E1770408400D030003000000B3
:10138300000000000000000000000000000000005A
:10139300000000000000000000000000000000004A
:1013A3000000000000000000F483070800000000B4
:1013B30000000000392E040810270000010000007F
:1013C300000000000000000000000000000000001A
:1013D300000000000000000000000000000000000A
:1013E3000000000000000000FC830708000000006C
:1013F30000000000A5AD0108102700000300000055
:1014030000000000000000000000000000000000D9
:1014130000000000000000000000000000000000C9
:101423000000000000000000008407080000000026
:1014330000000000916A0208A0860100010000007C
:101443000000000000000000000000000000000099
:101453000000000000000000000000000000000089
:1014630000000000000000000884070800000000DE
:10147300000000004D70040850C30000010000008C
:101483000000000000000000000000000000000059
:101493000000000000000000000000000000000049
:1014A3000000000000000000108407080000000096
:1014B300000000001D6E0408A0860100000000006B
:1014C3000000000000000000000000000000000019
:1014D3000000000000000000000000000000000009
:1014E30000000000000000001C840708000000004A
:1014F30000000000FD690408A8610000010000006D
:1015030000000000000000000000000000000000D8
:1015130000000000000000000000000000000000C8
:1015230000000000000000002884070800000000FD
:101533000000000091070208A086010001000000DE
:101543000000000000000000000000000000000098
:101553000000000000000000000000000000000088
:1015630000000000000000003484070800000000B1
:101573000000000019A30408A00F000001000000F0
:101583000000000000000000000000000000000058
:101593000000000000000000000000000000000048
:1015A3000000000000000000408407080000000065
:1015B300000000008D020208102700000100000057
:1015C3000000000000000000000000000000000018
:1015D3000000000000000000000000000000000008
:1015E30000000000000000004C8407080000000019
:1015F30000000000EDF10308A00F0000010000004F
:1016030000000000000000000000000000000000D7
:1016130000000000000000000000000000000000C7
:1016230000000000000000005884070800000000CC
:1016330000000000DDDC01081A4100000100000089
:101643000000000000000000000000000000000097
:101653000000000000000000000000000000000087
:1016630000000000000000005C8407080000000088
:1016730000000000DD160108102700000100000033
:101683000000000000000000000000000000000057
:101693000000000000000000000000000000000047
:1016A300000000000000000068840708000000003C
:1016B300000000009945020850C30000010000002B
:1016C3000000000000000000000000000000000017
:1016D3000000000000000000000000000000000007
:1016E30000000000000000006C84070800000000F8
:1016F300000000001D200108400D03000000000051
:1017030000000000000000000000000000000000D6
:1017130000000000000000000000000000000000C6
:1017230000000000000000007484070800000000AF
:1017330000000000BDF20308400D0300000000009C
:101743000000000000000000000000000000000096
:101753000000000000000000000000000000000086
:1017630000000000000000007C8407080000000067
:101773000000000065EB010850C3000003000000F7
:101783000000000000000000000000000000000056
:101793000000000000000000000000000000000046
:1017A300000000000000000088840708000000001B
:1017B30000000000390B040840420F000000000045
:1017C3000000000000000000000000000000000016
:1017D3000000000000000000000000000000000006
:1017E30000000000000000009484070800000000CF
:1017F30000000000C5FC030850C300000000000007
:1018030000000000000000000000000000000000D5
:1018130000000000000000000000000000000000C5
:1018230000000000000000000100000000000100B3
:10183300E0010000FFFFFFFF01007EFFFFFFFFFF4E
:101843000800000042570200000001064257020050
:101853000000010601FFFF00FFFFFFFF0101010080
:10186300FD0A0208000000000000000030E5060841
:10187300C4D8002018D90020152402083D220208EC
:10188300000000007CFD060811FA010800000000BA
:1018930000000000E0FC0608B52402080000000078
:1018A3000000000098FC0608000000000000000093
:1018B3000000000048FB06080000000000000000D4
:1018C3000000000000FC060800000000000000000B
:1018D30000000000ACFB0608000000000000000050
:1018E3001921020899DA0020FF2D202D2D202D2DFE
:1018F3002D2D202D2D2D00000000000000000000E4
:101903000000000000000000FFFFFFFFA527020802
:101913000000000000000000D8FA060801000000E3
:10192300FA000000010000000100000001000000B7
:10193300000101010000000016D700200000F4019F
:101943000100000014D700200000F4010100000092
:1019530012D700200000F4010100000010D700207E
:101963000000F401010000000ED700200000F40184
:10197300010000000CD700200000F401010000006A
:101983000AD700200000F40101000000351302080B
:10199300F91202080000000058E70608FAD60020F2
:1019A3000532010008D700206400F40101000000A3
:1019B30006D700206400C40901000000F8D6002007
:1019C300E803D00701000000F6D60020E803D007A3
:1019D30001000000F4D60020E803D0070100000056
:1019E300F2D600201E00B80B0100000000D7002033
:1019F30005000F000100000002D7002003000A00C9
:101A030001000000F0D600201E00F40101000000D8
:101A130004D7002002000000E4E70608EED6002009
:101A23001400640001000000FCD600203200E8032B
:101A330001000000ECD600200000C80001000000F7
:101A4300C5D6002000C80100C4D600200050010004
:101A5300C3D60020005A0100C1D6002002000000B6
:101A6300F0E70608948F07089C8F07089E5F002005
:101A73000100C409000000009C5F00200100C409AC
:101A8300000000009A5F00200100C409000000006C
:101A9300985F00200100C40900000000945F00204B
:101AA3000100C40900000000965F00200100C40982
:101AB30000000000925F00200100C4090000000044
:101AC300905F00200100C409000000006FD40020D3
:101AD30000C801006ED4002000C801006CD40020AF
:101AE3000000FFFF0A0000006AD400200100C800C4
:101AF3000100000068D4002032003075320000007D
:101B030066D400200582050064D4002005002C0162
:101B13000500000062D40020055A05005FD40020B0
:101B230000FF010061D4002002000000FC0F002030
:101B33005DD400200300000018DD06085ED40020F9
:101B430000FF010060D4002002000000FC0F002011
:101B53005CD400200300000018DD06088912020887
:101B63001912020800000000FCE706082CD7002029
:101B7300EE02CA08010000002AD7002000C80100B5
:101B83006400000029D7002000C8010064000000A1
:101B930028D700200200000008E9060856D40020D8
:101BA3000000803E0500000054D4002080C1803E28
:101BB300050000004ED400200083007D05000000D6
:101BC3004CD4002080C1803E0500000047D4002093
:101BD30000FF010042D400206400F4010100000072
:101BE30040D400200400000014E906083FD400207C
:101BF3000200000028E90608F5D400200D000000CB
:101C030034E90608F2D4002000640100F0D4002077
:101C1300320010270A000000EED400200D0000005F
:101C230034E90608EDD400200D00000034E906086D
:101C3300ECD40020020000006CE90608000000005C
:101C4300000000000000000078E9060832D70020F9
:101C53003E000000B0E9060830D700200100FF7FF6
:101C6300010000002FD7002002000000ACEA0608A4
:101C7300F7D4002003000000BCEA0608F6D40020D5
:101C830003000000BCEA0608B2D60020000A0100E7
:101C9300B0D600200000E80301000000AED600200B
:101CA3000000E80301000000ACD600200000E803B8
:101CB30001000000AAD600200000E8030100000094
:101CC300A2D600200000E80301000000A8D60020EF
:101CD3000000E80301000000A6D600200000E8038E
:101CE30001000000A4D6002000140100C0D600208B
:101CF30002000000CCEA0608BED600200000F40172
:101D030001000000BCD600200000F4010100000027
:101D1300BAD600200000F40101000000B8D600206C
:101D23000000F40101000000B6D600200000A00F5F
:101D330001000000B4D600200000A00F0100000045
:101D4300D9D6002019640100D8D600200200000073
:101D5300D8EA0608D6D60020E803D0070A00000018
:101D6300D4D60020006401000A000000C9D6002078
:101D730000640100C8D6002000640100D0D6002012
:101D8300006401000A000000CFD6002000640100B7
:101D93000A000000CED60020006401000A00000003
:101DA300D3D6002000FF01000A000000D2D6002095
:101DB30000FF01000A000000D1D6002000FF01004F
:101DC3000A000000CDD6002001FF01000A00000038
:101DD300CCD6002001FF01000A000000CBD6002072
:101DE30001FF01000A00000000D500200000F401FB
:101DF30001000000FED400200000A00F010000003D
:101E0300FCD400200000A00F01000000FAD4002041
:101E13000000A00F01000000F8D400200000A00F74
:101E230001000000E9DA002000C80100E8DA002020
:101E330000640100E7DA002000640100E6DA002014
:101E430000640100E5DA002000640100E4DA002008
:101E5300FF080100E3DA0020016401008111020898
:101E63004511020800000000E4EA0608ECDA00204D
:101E730001320100EBDA00200100000054EB0608F8
:101E8300EADA0020040000005CEB0608E2DA002036
:101E930000640100E0DA00201400E8030100000000
:101EA300DEDA0020E80330750A000000DCDA0020E7
:101EB30000C80100DBDA002000C80100DADA0020E4
:101EC30000C80100D9DA002000320100EEDA002058
:101ED300004B0100EDDA00200400000070EB06085F
:101EE300D8DA0020006401000A000000FCDA0020B8
:101EF3000000D00701000000F7DA002000C801004D
:101F0300F6DA002000C80100F5DA002000C801005D
:101F1300FADA00200000D00701000000F4DA002004
:101F230000C80100F3DA002000C80100F2DA002043
:101F330000C80100F8DA00200000D007010000000B
:101F4300F1DA002000C80100F0DA002000C8010027
:101F5300EFDA002000C80100390F0208210F020840
:101F63000000000084EB0608E9D40020005A0100B9
:101F7300E8D4002000C80100E6D40020E803D0071D
:101F830001000000000000000000000059210208C9
:101F930020EC060853544D333246343035000000EC
:101FA3005BD40020000301005AD400200003010089
:101FB3005D0E0208110E02080000000074EC060812
:101FC300D10D0208890D02080000000010ED06087B
:101FD300A90E0208892702080000000090ED0608F8
:101FE30058D400200103010011140208E51302086C
:101FF30000000000E8F00608150D0208D10C0208E5
:102003000000000058F10608490F0208DD28020805
:1020130000000000F4F10608A52C02083D14020894
:10202300000000009CF20608990F0208000000005F
:102033000000000028F30608751002081D100208AE
:10204300000000008CF3060809110208CD100208F5
:102053000000000034F4060835870208BD110208A9
:1020630000000000C0F40608EBD6002001060100C2
:10207300E10F0208AD0F020800000000BCF50608DE
:1020830069860208A9290208000000002CF6060848
:102093007D870208712A0208000000007CF7060809
:1020A300EAD6002001030100F10E0208C10E020866
:1020B3000000000050F80608D58702080000000061
:1020C30000000000B4F80608590D02087127020841
:1020D3000000000034F906080000000000000000C2
:1020E30000000000C0F90608F1110208E92A0208FD
:1020F3000000000030FA06080000000000000000A5
:102103000000000048FC0608B0B000209CFF2C0132
:1021130000000000F4DB0020E0150C1700000000B5
:1021230084CF00200200000080FC06083BD400207E
:10213300020000008CFC060836D4002088136F17B9
:102143000100000038D4002088136F17000000003E
:10215300E25F00200000000000000000E05F0020BC
:102163000000000000000000DE5F0020000000000F
:1021730000000000DC5F0020000000000000000001
:10218300DA5F00200000000000000000D85F00209C
:102193000000000000000000E8050020000000002F
:1021A300000000000CD4002003000000E0FD06083E
:1021B30034D4002088136F1701000000FAB0002008
:1021C30088136F1700000000B50B02080000000021
:1021D30000000000F0FD0608DDD90020010000002A
:1021E30044FE0608FCB000200100000050FE060873
:1021F300F2B000200200000058FE060800000000B4
:10220300000000000000000064FE0608A10B0208A5
:10221300000000000000000000FF060800000000AE
:10222300000000000000000054FF0608000000004A
:102233000000000000000000C4FF06083AD400209C
:1022430002000000FCFF0608F6B00020E0150C17A2
:102253000000000001D60101FFFFFFFF0000803FE7
:10226300000000000000000000000000000000006B
:10227300000000000000000000000000000000005B
:10228300000000000000803F00000000000000008C
:10229300000000000000803F00000000000000007C
:1022A300000000000000803F00000000000000006C
:1022B30000000000010000000000FA430000FA43A0
:1022C3000000803F493004080000000000000000C7
:1022D30000000000FFFFFFFFFF0000000000000000
:1022E30034FF0020080000000000000024FF00204D
:1022F3000800000059380108C1100108F13701082E
:1023030000000000910F0108D9400108413701087E
:102313008D3301080000000000000000510F010888
:1023230025830008198300085D9000087990000850
:102333004190000825900008099000081138010811
:102343009D1001084537010800000000690F0108CE
:102353009133010815370108ED3201080000000030
:10236300000000005D0F0108685E0C00FFFFFFFF27
:1023730002010000A00F0000B80B000002FFFF01E4
:10238300FFFF00008C050808000008020503030096
:10239300000000009405080801000802050403007A
:1023A300000000005CAD07080200FE0101100300FD
:1023B30000000000FC920708030014020003000061
:1023C300000000009C05080804001F02020008002A
:1023D30000000000A405080805001F020201080010
:1023E30000000000FFFFFFFF1A03000000000000D1
:1023F30000000000000000000000000000000000DA
:102403000000000004030904120100020000004060
:10241300830420570002010203010B01D99605082A
:10242300AD96050851960508ED8605086D960508D5
:1024330011960508E9860508D41A0020C9970508EE
:10244300E9970508B9970508CD8605087597050826
:102453002D970508BD860508B01A0020ED8F0508E5
:10246300D5860508D1860508C9860508359105086E
:10247300C5860508C18605083C560708754001084E
:102483007D100108553F0108000000000000000016
:10249300ED360108FD3501080000000000000000D2
:1024A30000000000450F01087587050869870508C6
:1024B3003998050855980508218705081D980508CA
:1024C30001980508FFFFFFFF0100000050C3000053
:1024D300010100001F0000001C0000001F0000009D
:1024E3001E0000001F0000001E0000001F0000006F
:1024F3001F0000001E0000001F0000001E0000005F
:102503001F0000000068214C01250000DC52070871
:10251300DC5F0708F81A0020008002021F00000099
:1025230053544D202020202050726F647574202056
:102533002020202020202020302E30310080020255
:102543001F00000053544D202020202050726F6440
:10255300757420202020202020202020302E303190
:10256300A31601089F160108971601088114010894
:10257300851F0108B11F0108E11E01088D1601081E
:102583007D1601086D1601085D160108791401080E
:10259300FF010000F4010000FF000000000004013F
:1025A300000000000000000210000000070000000F
:1025B30000000000000000000102030406070809F0
:1025C30001000000601B002000000000000000006C
:1025D30000000000000000000000000000000000F8
:1025E30000000000000000000000000000000000E8
:1025F30000000000000000000000000000000000D8
:1026030000000000000000000000000000000000C7
:1026130000000000000000000000000000000000B7
:082623000000000000000000AF
:0828000000C00F0800001008E1
:10800000F0B401292A4C2B4D23684FF0000694BF91
:1080100000270127EE626662A6626763676B47EA24
:1080200042076763EE63EC6B002A38D144F4957421
:10803000EC631C6824F001041C601C68E407FCD499
:10804000490289085960D8601968EAB921F04001ED
:10805000196019498B421DD018494FF47410C8603B
:10806000196841F01E011960596941F08001596198
:10807000196841F00101196022B90E4AD36A43F030
:108080000803D362F0BC704741F0400119600A490F
:108090008B42E1D14FF0746041F8500CE0E744F0BE
:1080A0001A04EC63EC6A44F00804EC62C1E700BF18
:1080B000C01B0020002C01405864024000640240B4
:1080C0001148002302461178032902F1060216D056
:1080D0000133062BF7D10D4AD36D052B0ED0591C59
:1080E00003EB4303D16500EB4303032040F2EB3184
:1080F00040F2FF32187059809A807047704703EB46
:10810000430300EB4303F0E7F81B0020C01B0020F3
:1081100070B4C3080D4CE25C00F00706B24004EBFB
:10812000D004D2B20020C6F108038B4228BF0B4610
:10813000C3F108052A419840C91A40EA02004FF0ED
:10814000000614F8012FEED170BC7047601C0020AF
:10815000084AD2E9343199420AD0D118013391F852
:10816000D8100170C3F30A03C2F8D0300120704761
:1081700000207047C01B0020064AD2F8D838D2F839
:10818000DC28934294BF4FF400600020013B9B1A0F
:1081900018447047C01B0020012380F851307047FD
:1081A00007B501A8FFF7D4FF0028FAD09DF8040016
:1081B00003B05DF804FB044BD3E93403984288BF55
:1081C00003F50063181A7047C01B00200120704798
:1081D000024BC3F8E028C3F8E4187047C01B002026
:1081E000024BC3F8E828C3F8EC187047C01B002006
:1081F0007047704730B4134DD5E934239A4286BF97
:1082000003F50064A21A9A1A0A44B2F5006F13D853
:10821000A9B101444A1E013810F8014FE918824201
:1082200003F1010381F8D840C3F30A03F4D1C5F880
:10823000D430002030BC7047022030BC7047084664
:10824000F8E700BFC01B0020212838B50C4605D038
:1082500022282ED0202813D0002038BD0029FBD0A2
:10826000072AF9D11A4BD3F8F00893F8F41893F8C9
:10827000F52893F8F638206021716271A371EBE75D
:108280000029E9D0072AE7D1114DD5F8E4381BB110
:108290000968D5F8E0089847206821796279A379C0
:1082A000C5F8F00885F8F41885F8F52885F8F6384B
:1082B000D2E70029D0D0022ACED1054AD2F8EC3834
:1082C000002BC9D00988D2F8E8089847C4E700BF56
:1082D000C01B0020024B0020C3F8F808704700BF05
:1082E000C01B0020044B00200522C3F8F828C3F867
:1082F000EC08C3F8E4087047C01B0020704700BFBB
:10830000704700BF704700BF704700BF704700BF95
:10831000704700BF704700BF042301480B807047BF
:108320008801002010B4074A074B92F8FC08122479
:1083300003F114020C8001280CBF184610465DF8AA
:10834000044B7047C01B00208C0100200048704780
:10835000481C002000487047481C0020034B93F83D
:108360008400032894BF002001207047C01B002018
:10837000034B93F88400032894BF0020012070472A
:10838000C01B0020034B93F88400003818BF012065
:10839000704700BFC01B0020A0B182680D4B12B116
:1083A00007229A7070471978DA6003294FF00400A9
:1083B0000CBF80214FF48071C3E901111A611A7555
:1083C00098707047034B41F2E47101225A545A707D
:1083D000704700BF409300200378022B10D0006943
:1083E00008B9012070470C4B1B78032B0EBF0B4BB9
:1083F00080B24FF6F773984294BF00200120704777
:108400000549436841F650028A58B3EB422F2CBF0E
:1084100001200020704700BF40930020F7FFFF0FAE
:108420000378022B14D030B4104A4368006941F637
:10843000480402F5C2511559096841F63C042B4025
:1084400012595B0A023801FB0030104430BC7047FF
:10845000064B426841F6340141F63000595818582D
:1084600000EB410000EB5220704700BF409300201A
:1084700008B5124BD3F8BC00828940F2E933028977
:10848000013B12F0020F9BB212D0FF23838140F216
:10849000E9330289013B12F0010F9BB202D08089BF
:1084A000C0B208BD002BF4D146F0BCFAC0B208BD82
:1084B000002BE4D146F0B6FAC0B2F8E7C01B0020AA
:1084C00070B505460E460924FFF7D2FFFF2803D1F9
:1084D000013CF9D1012070BDFE2801D0022070BD01
:1084E000064933462A46D1F8BC0000215FF03CFC27
:1084F000FFF7BEFFFFF7BCFF002070BDC01B0020D0
:1085000010B51D4C0023C4F88030FFF7B1FFD4F83C
:10851000BC00828940F2E9330289013B12F0020F6C
:108520009BB217D0FD23838140F2E9330289013BDE
:1085300012F0010F9BB212D08389FFF799FFFF2839
:1085400012D1FFF795FFFF280ED10423022084F8F3
:10855000843010BD002BDFD146F064FAEDE7002B2C
:10856000E4D146F05FFAE8E7D4F8003963670923FD
:10857000002084F8843010BDC01B002070B582B08C
:1085800040F040060C0E05460A0A080C95238DF8AB
:1085900001408DF804108DF800608DF802008DF810
:1085A00003208DF805300824FFF762FFFF2802D072
:1085B000013CF9D125BB1A4BD3F8BC0006258389B1
:1085C0006E464FF47A734FF6FF713EB316F8012BE7
:1085D0000489013BA4079BB215D593B283814FF464
:1085E0007A730489E40703F1FF3211D5013D8289D2
:1085F000EBD10924FFF73CFFFF2802D1013CF9D160
:10860000FF2002B070BD8B42E2D146F00BFAF0E7DA
:1086100093B28B42E5D146F005FAEAE7FF22D7E7AD
:10862000C01B00202DE9F041684C00234FF4F0728C
:108630002021064604F6081084F8043964F057FC3B
:1086400004F6E8204FF4F072202164F050FC94F816
:10865000C90C10B194F8CA2C1AB900252846BDE8F7
:10866000F08144F079FB0746C4F8D40C44F048FE8E
:1086700005460028F1D00FB12323FB80092138469D
:1086800040F0FCFBD4F8D40C514F44F05BFE94F85E
:10869000CA0C013840B246F02FFB0223102184F8A7
:1086A000CC3CC4F8D00C5FF02DFB798D494846F0E6
:1086B0006FF9D4F8D40C44F03FFEFF218C205AF01F
:1086C00031FD8046D4F8D40C44F03CFED4F8D00CF4
:1086D00004215FF017FBB8F11B0F05D0D4F8D40CC0
:1086E000202140F0CBFBB8E7D4F8D43C012284F839
:1086F00004290BB12322DA80798D364846F048F9F7
:10870000D4F8D40C44F018FE40210A205AF00AFD97
:10871000FF218A205AF006FDC0F38013D4F8D40C50
:1087200084F8D83C44F00EFED4F8D00C04215FF05D
:10873000E9FA94F8C83C012B3FD0022B37D0CBB3D9
:1087400094F8D93C182B08D194F8D82C7B8DA4F838
:10875000DC6CA4F8DE2CA4F8E03C798D1D4846F0D2
:1087600017F9798D1B4846F013F9D4F8D40C44F06E
:10877000E3FD022100205AF0D5FCD4F8D40C44F0DB
:10878000E1FD0421D4F8D00C5FF0BCFA94F8E92C98
:1087900094F8EA3C94F8E81C84F8E41CC2F1200246
:1087A000C3F1100384F8EB2C84F8EC3C56E7082363
:1087B0007B85C5E710237B85C2E7002EF7D094F8B0
:1087C000D83C002B14BF08231023F1E7C01B002066
:1087D000880100208C2800202DE9F84F564B984244
:1087E00010D003F568530833984267D0534B0020EC
:1087F000A3F8480DA3F8540DC3F84C0DC3F8500D61
:10880000BDE8F88F4D4C4E4E02224FF0000BC4F8DD
:10881000F02C04F6F445D9464FF4007A4FF48078F2
:10882000F26A01275A455946BB4403D0D4F8640D77
:1088300054F08EF894F8682D85F82420D4F8640D4F
:10884000A5F804A04FF000724FF48031A960EA60EF
:10885000A5F8108085F81290A5F806802F7628627A
:10886000B72154F06BFAD4F8F02C364B6F76934561
:1088700045F8283BD4DB84F8569DD4F8F01CB4F8B6
:10888000F82CD4F8003DD4F8FC0CB4F8045DC4F81E
:108890006C3D12FB01F203FB01F3A4F8482DB4F880
:1088A000FA1C294AC4F84C0DC4F8503DA4F8545D94
:1088B000A4F84A1DC4F8442D0120A1E71F4C204E06
:1088C0000223C4F8F03C04F6F4454FF0000B4FF4DB
:1088D000806A4FF040094FF40068F26A01275A4558
:1088E0005946BB4403D0D4F8640D54F031F8D4F8A1
:1088F000641D94F8682D296285F824204FF4003116
:108900004FF00062C5E90212A5F804A0A5F8109086
:10891000A5F80680AF74FFF7D3FB28466F7654F0B6
:108920005FF9D4F8F02C094B45F8283B9345D4DB8C
:1089300084F8567DA1E700BF1971EF00C01B00202D
:108940008801002090CF0608E8CF0608BCCF0608B3
:10895000F8B51A4C94F8703D002BFBD159B3014483
:108960004E1E451ED4F8DC28D4F8D81815F8017F1F
:10897000531CC3F30A038B422CBF4FF4006000204A
:10898000C91A22440144012982F8747DC4F8DC38F4
:108990000FD1012040F0C0FFD4F8D838D4F8DC184B
:1089A0008B4294BF4FF4006200225B1A1344012BE8
:1089B000EFD0B542D6D10020F8BD00BFC01B0020CB
:1089C00010B590F85010002380F8503081B10B4C56
:1089D000D4F8F82872B1D4F8F828052A0CD13C3024
:1089E000D4F80039FFF7B4FFD4F80039012010BDE6
:1089F0000120FCE71046FAE71846F8E7C01B002004
:108A0000002280F85120DBE790F85020531C0244EC
:108A1000DBB280F8503082F83C1090F851200AB157
:108A2000132B00D9CCE7704710B5094CD4F8F838AF
:108A3000084611465BB1D4F8F838052B07D1002A57
:108A4000D4F8003903DDFFF783FFD4F8003910BDF7
:108A5000C01B00202DE9F04143794F4C002B14BF7F
:108A60000122002284F8B02003D184F88430BDE8CC
:108A7000F08190F8018008F1FF3676B20546304665
:108A80000F4646F039F90223C4F8BC0084F8B83028
:108A90002B78002B5BD1ED78002D4CD14FF48071F9
:108AA000D4F8BC00C4F8C0505FF02CF94FF47A70D1
:108AB00040F032FFD4F8C00044F044FCD4F8BC00CD
:108AC0000A2683894FF6FF714FF47A73FF270289D4
:108AD000950719D587814FF47A730289D20703F17C
:108AE000FF3524D5013E8289F1D12C4B02899207B2
:108AF00013D5028912F080020FD1D4F8001984F83E
:108B0000782001236167B0E7013B9BB28B42DED145
:108B100045F088FFD4F8BC00E7E7013BE6D194F8C4
:108B2000782084F88430531C84F878309FE7ABB207
:108B30008B42D2D1ECE7284644F00EF9054608B145
:108B40001E23C3800921284640F098F9A6E706EBCA
:108B500086063E44414696F90320002041F06EFB14
:108B6000064630B140685DF0C3FDB36884F8CE308E
:108B700018B9002384F8C4308DE7094A431E02EB7C
:108B8000431317210022C4F8C8305DF0C3FD012350
:108B900084F8C4307FE700BFC01B0020A18601001D
:108BA000B80100202DE9F04FCF4DDFF87083DFF8DA
:108BB000789384460F4616460FCD44462DED068B1E
:108BC0000FC40FCD0FC495E807008BB099F87E3421
:108BD000029684E80700CDE906C7042B00F25C8109
:108BE000DFE813F0BD015A0155010500CD019FEDED
:108BF000BF8ADFEDBF8ABF49C8F81C10BE49BF4B12
:108C0000BF4AC8F818100299002918BF134638EE59
:108C1000887AF5EE006A86EE87AAC8F82430B94F44
:108C2000B94B03930026DFEDB97A9FEDB99A28EE90
:108C3000278AF0EE679A079BB34200F02281039BDC
:108C400013F8014B039306F1010B5FFA8BF2002C32
:108C500000F09881DFF8D4C2002303E00133152B24
:108C600000F0908103EB43015D001CF80100A0427D
:108C7000F4D14944049291F89914002900F08A81B2
:108C800020463FF0D1FE03680593824618463FF028
:108C9000B7FE9AF805103FF0E7FE90F800C0BCF16F
:108CA000000F40F06F8109EB05002509013D049A92
:108CB00080F8D9240321052D80F8D814059B04F0F1
:108CC0000F0000F23781934C04EB450CBCF8B0C0A8
:108CD0004CFA00FE1EF0010E00F03E81012303FA63
:108CE00000F0013800EA0C002544049260F026FCF4
:108CF00095F8BC50DFF838C2049A28440CEBC00544
:108D00000321A971EA715CF830007D6100F13F41F7
:108D100001F57E0104EB9124012394F8C4109AF824
:108D2000082001F01F044909032903FA04F300F0A5
:108D30000E81042900F00681022900F0FE80AB8834
:108D40000893B3FA83F3C3F11F03C3F3CC0100EB21
:108D5000810103F007030C6A9B000F259D4024EA64
:108D600005040C620C6A02FA03F323430B6202232C
:108D700008A909930BF0F8FCDAF80030029A002AEF
:108D800000F0A280B9F87C2400EE102AB8EEC00AE8
:108D9000FCEEC07A17EE901A5F4A934200F0818091
:108DA000A2F5806293427CD002F58042934278D053
:108DB00002F58062934274D002F58062934270D0D3
:108DC000D9F8042850084FF6FF73B0FBF1F21A44AB
:108DD000120CB0FBF2F20298002865D0B2FBF1F160
:108DE00099F87E0404288BB263D007EE902AF8EE3F
:108DF000676A66EE887A29EE677A99F87F040699A1
:108E00000091A6EEA87A019051463846C7ED027A45
:108E100087ED037A37F040F9002E60DD7B68D8F8E3
:108E2000382093425DD0012E59D0D8F8502093427B
:108E300057D0022E53D0D8F86820934251D0032E39
:108E40004DD0D8F8802093424BD0042E47D0D8F88C
:108E50009820934245D0052E41D0D8F8B0209342B7
:108E60003FD0062E3BD0D8F8C820D31A18BF012314
:108E70005E460122082E3B747A7407F118077FF4CE
:108E8000DAAE26480BB0BDEC068BBDE8F08F9FED47
:108E9000248AF0EE488AAEE69FED228AF0EE488AF8
:108EA000A9E6D9F804088EE799F87E040428194643
:108EB0009BD107EE901A07EE102AF8EE677AF8EECB
:108EC000476A67EEA97A96E7B0EE4A0A049361F022
:108ED00063FCFCEEC07A049B17EE901A5CE701235A
:108EE000C6E70023C4E700BF14D00608ACC5A73707
:108EF000ACC5A736C5F50308C9690408B1EC030879
:108F0000BD690408480000103B3100206F12833A0D
:108F100000007A4490CF06080004014014000010BD
:108F2000282930386F120339B82C00205031002026
:108F3000BC310020C7F814C020E717494C6C23430C
:108F40004B64FCE614490C6B23430B63F7E61249B0
:108F50000C6C23430B64F2E6C7F814E00EE79FEDB8
:108F60000F8A0F4BC8F8183000230E4A06930123CE
:108F70000293C8F81C200C4BF0EE488A47E69FEDA0
:108F80000B8AEEE70A4A084BC8F81C20C8F82430C0
:108F9000002077E70B68FFDE003802406F12833A4B
:108FA000C9690408C5F50308BD690408000000008C
:108FB000A9EF0308F8B5114ED6F804480546006835
:108FC0000F4664080BF0D4FAB4FBF7F1B1F5803F1B
:108FD00003D3012CFAD96408F6E72246284689B261
:108FE0003FF0A0FB41F26C03054AF25028460549C8
:108FF000BDE8F84000223FF015BB00BFB82C0020B0
:10900000B5FD0108243D002010B5044C04480A4673
:1090100021460AF0EFF8204610BD00BF2C3D00208D
:10902000A082070810B5044C04480A4621460AF0FD
:10903000E1F8204610BD00BF2C3D0020B08207089B
:1090400010B5044C04480A4621460AF0D3F82046DD
:1090500010BD00BF2C3D0020BC82070810B5044C99
:1090600004480A4621460AF0C5F8204610BD00BF54
:109070002C3D0020C882070810B5044C04480A465D
:1090800021460AF0B7F8204610BD00BF2C3D002055
:10909000D482070810B50C4C94F8CD200023C4F8F6
:1090A00080300AB1094AD3675BF032F920B104235A
:1090B000022084F8843010BDD4F800396367092396
:1090C00084F8843010BD00BFC01B0020B03D0020DC
:1090D00070B50D4D95F88430042B04460E460AD029
:1090E000082B06D1EB6F83420CD0FFF7D3FF022889
:1090F00001D0012070BD0823C5E91F4685F88430E2
:10910000022070BD022070BDC01B002070B54379E5
:10911000234C002B14BF0123002384F8B03003D16B
:10912000002384F8843070BD1E4D002195F9832002
:10913000032041F083F80028F2D0466830465DF005
:10914000D7FA84F8CC000028EAD095F88130003BAB
:1091500018BF0123304684F8CD305AF0A5FC09F041
:10916000F9FF38B994F8783084F88400013384F832
:10917000783070BD5BF0B2F940B194F878300022DD
:10918000013384F8783084F8842070BDD4F8002945
:1091900084F878000123626784F8843070BD00BFD2
:1091A000C01B0020B03D002010B55BF097F958B10E
:1091B0000B4C94F878300133DBB2072B84F878300D
:1091C00003D9002384F8843010BD09F0C3FF0028C0
:1091D000F7D0D4F800396367012384F8843010BDD8
:1091E000C01B00202DE9F041874C94F8B050002DB1
:1091F00000F0F78094F88420844F0226531E082B39
:1092000040D8DFE803F036389D3F674F153F050033
:109210005BF07EF8002840F0EB80636FD4F8002903
:10922000FA3393422BD2FFF7BFFF94F88420E5E78F
:109230005BF06EF80028F0D0D4F880300022012BCB
:1092400084F8782040F2D880E16F94F8CD00013B9B
:109250000131C4E91F1308B16C4BDA67082284F8A6
:109260008420A2F10805B5FA85F56D092846BDE808
:10927000F08184F884605BF04BF8002841D194F8C9
:109280008420531EDBB2022B09D8D4F80039616F59
:109290005B1AC82BE5D9FFF787FF94F88420042ACE
:1092A000DFD1E3E7236B002BDBD1E66ED4F8003986
:1092B0006367072284F88420002ED2D0D4E91821D5
:1092C000236F0120B047DAE7636FD4F800196433E5
:1092D0008B42C6D2D4F82C80B8F1000FF4D15BF0E9
:1092E00017F80028A1D0E66E84F87880042384F86B
:1092F0008430002E7AD0D4E91821236F4046B0473D
:10930000BDE75AF0A3FC0028B9D197F88530002BAF
:10931000A3F10203B3FA83F314BF022201225B0913
:1093200084F8792084F87A305AF090FC00287FF491
:109330007AAFD7F8D030C4F88830032384F884306B
:109340005AF084FC00289AD1304BC4F8800093F87E
:10935000B460B3F8B600D3F8B8E0D3F8B8C0D3F827
:10936000B870D3F8B82084F88E6093F8BC10A4F8D5
:109370008C0093F8BD6084F8922093F8BD00D3F878
:10938000C020C4F89420B3F8C680B3F8C62084F88F
:109390009310B3F8C610C2F30B1343EA182303F07B
:1093A0000F0301F00F024FEA1E6E4FEA1C4C3F0AFA
:1093B000360900F00F0003F5FA63042184F89900E0
:1093C00084F88FE084F890C084F8917084F89860F5
:1093D000A4F89A3084F89C2084F884102846BDE8CC
:1093E000F08184F884502846BDE8F08105463DE7C9
:1093F000042384F8843039E7FAD1FFF74BFE94F860
:109400008420531E3EE700BFC01B0020B03D00205B
:109410002DE9F8431A4C94F88460042E05468946D9
:1094200090461F4608D0082E02D00020BDE8F883E1
:10943000FFF766F80228F8D1D4F8C00043F07CFFAB
:1094400094F87A3093B969021120FFF797F898B928
:10945000D4F80039C4F860900522C4E91B8765661A
:1094600084F8842063670120BDE8F8832946112031
:10947000FFF784F80028EBD009F042FED5E700BFE3
:10948000C01B002070B51E4C94F88430042B064697
:109490000D4608D0082B22D1E36F83422DD0FFF771
:1094A0002FF802281BD1D4F8C00043F045FF00215B
:1094B0003720FFF763F829461720FFF75FF8B0B9A8
:1094C00094F87A306BB971021920FFF757F870B928
:1094D0000823C4E91F6584F88430022070BD012090
:1094E00070BD31461920FFF749F80028F0D009F087
:1094F00007FE09F041FE032070BD022070BD00BFD1
:10950000C01B00202DE9F043694D91B006460F467F
:109510009046994695F88430042B0DD0082B07D13E
:10952000EB6FB34200F0C080FEF7EAFF0228F1D0F3
:10953000012011B0BDE8F083D5F8C00043F0FCFE77
:1095400095F87A30002B40F09E8071021820FFF7CA
:1095500015F8002840F0A28095F88440FEF788FFB7
:10956000082C0CBFFC22FE22D5F8BC00818940F2F9
:10957000E9330189013B11F0020F9BB24FD093B246
:10958000838140F2E9340389013C13F0010FA4B256
:1095900076D0838995F8C430002B48D001A80AF012
:1095A0000FFED5F8BC30D5F8C82095F8CE1050681D
:1095B00003970C334022029300234906CDE9083378
:1095C00004920B934FF4806206930A934FF4007356
:1095D0000792019105930AF031FED5F8C83001A930
:1095E00058680AF0FFFDD5F8C830D5F8BC20596896
:1095F0000B6843F001030B6093889BB243F00203B6
:109600009380012206230020C5E91B892F666E6620
:1096100085F8682085F8843011B0BDE8F083002B10
:10962000A7D145F0FFF995F8C430002BB6D1D5F895
:10963000BC00BE4683894FF480724FF47A744FF6B3
:10964000FF71BEF1000F19D01EF8013BB0F808C041
:10965000013C1CF0020FA4B217D09BB283814FF4DF
:109660007A74B0F808C01CF0010F04F1FF3311D078
:10967000013A8389C5D0BEF1000FE5D1FF23E5E7AC
:10968000002C80D1CDE7314660E78C42DED145F039
:10969000C9F9B6E79CB28C42E3D1F8E709F030FD96
:1096A00009F06AFD032044E7FEF7E2FEFC225BE7D7
:1096B000C01B00202DE9F04FA44C94F8B06087B097
:1096C000002E00F0D68194F88420DFF88892DFF82D
:1096D00088829F4F4FF6FF75531E082B00F295802E
:1096E000DFE813F0A700D1006B01930082000900AE
:1096F00014019300FF0094F8C430002B40F03E8228
:10970000D4F8BC00236E94F868E0828903EB0E2C39
:109710004FF480714FF47A73BCF1000F00F0B78101
:109720001CF801AB0289013B92079BB240F1EE812C
:109730001FFA8AF383814FF47A730289D20703F107
:10974000FF3A40F1EB8101398289E5D10EF1010E3A
:109750005FFA8EFEBEF1020F84F868E052D1D4F8B1
:10976000BC00838940F2E9330289013B12F0020F09
:109770009BB200F0C7810023838140F2E933028964
:10978000013B12F0010F9BB200F0B4818389838901
:1097900040F2E9330289013B12F0020F9BB200F064
:1097A000A5810023838140F2E9330289013B12F055
:1097B000010F9BB200F094818389FEF759FE00F0FF
:1097C0001F00052800F0A18209F0D6FCD4F86CA097
:1097D000BAF1000F00F0CC810022236F616E0120EE
:1097E000D04794F8842077E7206E4FF40071FEF79D
:1097F00067FE012800F0A481022800F0A88100285B
:1098000000F0EF8194F88420531EDBB2022B00F2AB
:109810003A81D4F80039616F5B1AC82B00F22F81AE
:10982000A2F10806B6FA86F67609304607B0BDE81A
:10983000F08FD4F8C00043F07FFD00210846FEF70A
:109840009DFE824609F05CFCBAF1010FDAD10023DB
:10985000D4F8C00084F8793043F06EFD40F2AB11CB
:109860000820FEF78BFE052800F08581012800F016
:10987000118109F045FC94F87920002A00F0428219
:10988000022384F88430D4F8C00043F055FD94F8E6
:109890007930022B0CBF4FF0804A4FF0000A0021B4
:1098A0003720FEF76BFE51462920FEF767FE824601
:1098B00009F026FCBAF1000FA4D194F87930022BFC
:1098C00000F0A48184F87AA0D4F8C00043F034FDFD
:1098D00000210920FEF752FE00283FD009F010FCBD
:1098E00090E74FF0080AFEF7C3FDFF2800F0208242
:1098F000BAF1010AF7D1636FD4F80029FA33934221
:1099000080D209F039FC94F88420E5E6FEF7B0FD3A
:10991000FF284FF0080A06D0BAF1010AEBD0FEF793
:10992000A7FDFF28F8D1D4F880300022012B84F85D
:10993000782040F20382E26F08210132013BC4E942
:109940001F2384F884100A466AE700BFC01B00206A
:10995000006402400F64024000600240C5481021CC
:10996000FEF7AEFD83460028B8D101217F20FEF727
:10997000CFFB01288246B1D158460221FEF7C8FB31
:10998000002800F0A0810128A8D116213A20FEF776
:10999000BFFB01308002C4F8880009F0B1FBD4F8A5
:1099A000C00043F0C9FC00210A20FEF7E7FD0028B3
:1099B00040F06481032384F88430102102A8FEF76C
:1099C0007FFD00287FF41EAF9DF815309DF816101E
:1099D0009DF810209DF809009DF80AC01B01DBB21C
:1099E00043EA111303F5FA63A4F89A30DDF8113055
:1099F00001F00F0184F89C101BBA110902F00F024C
:109A00004CEA002084F8981084F899209DF80810FA
:109A10009DF80B20C4F89430039BC4F89030A4F850
:109A20008C0084F88E1084F88F2009F069FB94F87C
:109A30007A307BB9D4F8C00043F07EFC4FF400715B
:109A40001020FEF79BFD824609F05AFBBAF1000F89
:109A50007FF457AFD4F8BC0004215EF053F9002224
:109A600004233046C4F8802084F8843007B0BDE871
:109A7000F08F304684F8846007B0BDE8F08F09F0BD
:109A80007BFB94F88420042A7FF4CAAECDE64FF025
:109A9000FF0A47E6D4F8BC004FF0040E838902A900
:109AA0004FF47A734FF0FF0C028992073CD5A0F86F
:109AB0000CC04FF47A730289D20703F1FF3A3AD50A
:109AC000828992B209B101F8012BBEF1010EEBD1EE
:109AD0009DF80B30AB2B04BF022384F87930C8E625
:109AE000002B7FF462AE44F09DFF66E6002B7FF40E
:109AF00051AEF8E7002B7FF442AE44F093FFD4F868
:109B0000BC0044E6002B7FF42FAEF6E7AB427FF4B7
:109B100009AE44F087FF94F868E017E61FFA8AF36D
:109B2000AB427FF40AAEF4E7013B9BB2AB42BBD140
:109B300044F078FFCCE71FFA8AF3AB42BBD1F7E7DA
:109B4000636FD4F8002964339342BFF45BAE09F02D
:109B5000D7FA09F011FBD4F86CA0BAF1000F07D0C6
:109B600000221046236F616ED04794F88420B3E53D
:109B700094F88420B0E584F879A07AE6D4F8C83067
:109B80005968DB69494594BF4046384613F0005F89
:109B900000F08B80D0F804C0DFF8DCE003EA0C0CA6
:109BA0001CEA0E0F3FF43CAE03EA0E03C3600B68E1
:109BB000D4F8BC0023F001030B600389D90703D557
:109BC00083890389DA07FBD403899B07FCD50389C2
:109BD0001906F9D4838823F002031B041B0C83802D
:109BE000BFE5019009F08CFAE56E019884F87800E1
:109BF000042384F88430002D3FF417AED4E91821F3
:109C0000236FA84794F88420531EFEE5D4F8C000C3
:109C100043F092FB51463A20FEF7B0FCD4F8BC105A
:109C200082468B894FF0040E4FF47A7302A84FF0EE
:109C3000FF0C0A89920728D5A1F80CC04FF47A735B
:109C40000A89D20703F1FF3B2AD58A8992B208B16B
:109C500000F8012BBEF1010EEBD1BAF1000F0DD1CE
:109C600009F04EFA029B1BBAC3F3807384F87A3072
:109C70002AE600BF601C00207D0F7D0F09F040FA2E
:109C800009F07AFA94F8842026E5013B9BB2AB42B6
:109C9000CFD1084644F0C6FEBAF1000FEED1DFE79F
:109CA0001FFA8BF3AB42CBD1F3E7D0F800C0DFF85B
:109CB000ACE003EA0C0C1CEA0E0F3FF4B1AD03EA72
:109CC0000E03836073E704212C20FEF721FA0321A1
:109CD00083464E20FEF71CFA0C21034636200193E2
:109CE000FEF716FA019B421C02339A400AFA0BFA5D
:109CF000A2FB0A01420A42EAC152C4F8882009F0D4
:109D0000FFF94CE684F884208AE5E56ED4F8003942
:109D10006367072284F88420002D3FF481ADD4E9E5
:109D20001821236F0120A84794F88420531E6CE566
:109D300009F0E6F9042384F8843076E508D004239A
:109D400084F8843009F0DCF994F88420531E5CE533
:109D5000FEF7D6FB02287FF455ADBFE57D0F7D0FE2
:109D60002DE9F04FC14C94F8E01083B00546C1F3E3
:109D70004001D4F8E80043F0EBFA94F8E010D4F88E
:109D8000E400C94301F001016F1E43F0E1FAFBB2A8
:109D90000193002D00F0D080B54EDFF8DC82B54D88
:109DA0004FF01009D4F8E80043F0B6FAD4F8E40014
:109DB00043F0B2FAB4F8F030002B40F04E8194F842
:109DC000F210D4F8F40043F0C3FA4FF0FA0A4FF45B
:109DD0007A710120D8F80430C3F30803002B40F057
:109DE0000F81EFF31183002B40F00A81D6F8002990
:109DF000D5F808C0D6F800399A42F7D1D4F818310E
:109E00009C45F3D8D4F8147101FB07F3A3EB0C03C2
:109E1000B3FBF7F301FB0232D8F80430C3F30803B5
:109E2000002B40F0AB80EFF31183002B40F0A680B5
:109E3000D6F80039D5F808B0D6F80079BB42F7D18A
:109E4000D4F81871BB45F3D8D4F8147101FB07FCA2
:109E5000ACEB0B0CBCFBF7FC01FB03C39B1AB3F58B
:109E60007A7FD9D3BAF1010AB4D1D4F8E80043F02B
:109E700053FAD4F8E40043F04FFAB4F8F030002B72
:109E800040F0DF8094F8F210D4F8F40081F0010182
:109E900043F05EFAFA204FF47A714FF0010CD8F8D3
:109EA0000430C3F30803002B40F08980EFF31183E3
:109EB000002B40F08480D6F80029D5F808E0D6F8C9
:109EC00000399A42F7D1D4F818319E45F3D8D4F826
:109ED00014A101FB0AF3A3EB0E03B3FBFAF301FB9E
:109EE0000232D8F80430C3F3080343BBEFF3118305
:109EF0002BBBD6F80039D5F808B0D6F80079BB42AC
:109F0000F7D1D4F81871BB45F3D8D4F814A101FBEC
:109F10000AFEAEEB0B0EBEFBFAFE01FB03E39B1A3F
:109F2000B3F57A7FDDD30138B9D1019B5F1EFBB257
:109F3000FF2B01937FF436AF03B0BDE8F08FEFF352
:109F4000118A89F31288AF682B68DB0344BFC4F819
:109F500010C1AF68D6F80039D4F810E15FFA8AFA78
:109F60008AF31188D4F814A1734401FB0AFEAEEB06
:109F7000070EBEFBFAFE01FB03E3D0E7EFF3118E01
:109F800089F31288D5F808B02B68DF0344BFC4F802
:109F90001001D5F808B0D6F80039D4F810C15FFA2E
:109FA0008EFE8EF31188D4F81471634401FB07FC14
:109FB000ACEB0B0CBCFBF7FC01FB03C34EE7EFF370
:109FC000118E89F31288D5F808A02B68DA0344BFF4
:109FD000C4F810C1D5F808A0D6F80039D4F810217B
:109FE0005FFA8EFE8EF31188D4F814E11A4401FB57
:109FF0000EF3A3EB0A03B3FBFEF301FB023270E79F
:10A00000EFF3118C89F31288D5F808E02B68DB0395
:10A0100044BFC4F81001D5F808E0D6F80039D4F8E8
:10A0200010215FFA8CFC8CF31188D4F814711A4457
:10A0300001FB07F3A3EB0E03B3FBF7F301FB0232C3
:10A04000EAE6D4F80C31002B3FF424AFD4F8F83012
:10A05000C3F800A084F809A11CE7D4F80C31002B48
:10A060003FF4B3AE3FF01CFDAFE600BFB03D0020B3
:10A07000C01B002010E000E000ED00E02DE9F04FF3
:10A08000BD4CBE4E94F8E010D4F8E800DFF8F4823E
:10A09000BB4D83B0C1F3400143F05AF994F8E0108E
:10A0A000D4F8E400C94301F0010143F051F905235C
:10A0B00001934FF01009D4F8E80043F02DF9D4F8DB
:10A0C000E40043F029F9B4F8F030002B40F04C8163
:10A0D00094F8F210D4F8F40043F03AF932274FF430
:10A0E0007A710120D8F80430C3F30803002B40F044
:10A0F0000F81EFF31183002B40F00A81D6F800297D
:10A10000D5F808C0D6F800399A42F7D1D4F81831FA
:10A110009C45F3D8D4F814E101FB0EF3A3EB0C0338
:10A12000B3FBFEF301FB0232D8F80430C3F308039B
:10A13000002B40F0AB80EFF31183002B40F0A680A2
:10A14000D6F80039D5F808B0D6F800C96345F7D17C
:10A15000D4F818C1E345F3D8D4F814E101FB0EFCA0
:10A16000ACEB0B0CBCFBFEFC01FB03C39B1AB3F571
:10A170007A7FD9D3013FB5D1D4F8E80043F0CCF8C9
:10A18000D4F8E40043F0C8F8B4F8F030002B40F005
:10A19000E08094F8F210D4F8F40081F0010143F06B
:10A1A000D7F832204FF47A710127D8F80430C3F37E
:10A1B0000803002B40F08B80EFF31183002B40F05D
:10A1C0008680D6F80029D5F808E0D6F800399A42FA
:10A1D000F7D1D4F818319E45F3D8D4F814A101FB77
:10A1E0000AF3A3EB0E03B3FBFAF301FB0232D8F838
:10A1F0000430C3F3080343BBEFF311832BBBD6F842
:10A200000039D5F808B0D6F800E97345F7D1D4F88D
:10A2100018E1F345F3D8D4F814A101FB0AFEAEEB24
:10A220000B0EBEFBFAFE01FB03E39B1AB3F57A7F2C
:10A23000DDD30138B9D1019B5F1E17F0FF030193F5
:10A240007FF439AF03B0BDE8F08FEFF3118A89F3E3
:10A250001288D5F808B02B68DB0344BFC4F810712E
:10A26000D5F808B0D6F80039D4F810E15FFA8AFAC8
:10A270008AF31188D4F814A1734401FB0AFEAEEBF3
:10A280000B0EBEFBFAFE01FB03E3CEE7EFF3118EEC
:10A2900089F31288D5F808B02B68DB0344BFC4F8F3
:10A2A0001001D5F808B0D6F80039D4F810C15FFA1B
:10A2B0008EFE8EF31188D4F814E1634401FB0EFC8A
:10A2C000ACEB0B0CBCFBFEFC01FB03C34EE7EFF356
:10A2D000118E89F31288D5F808A02B68DA0344BFE1
:10A2E000C4F81071D5F808A0D6F80039D4F81021B8
:10A2F0005FFA8EFE8EF31188D4F814E11A4401FB44
:10A300000EF3A3EB0A03B3FBFEF301FB02326EE78D
:10A31000EFF3118C89F31288D5F808E02B68DA0383
:10A3200044BFC4F81001D5F808E0D6F80039D4F8D5
:10A3300010215FFA8CFC8CF31188D4F814C11A44F4
:10A3400001FB0CF3A3EB0E03B3FBFCF301FB0232A6
:10A35000EAE6D4F80C31002B3FF423AFD4F8F83000
:10A360001F6084F809711CE7D4F80C31002B3FF40E
:10A37000B5AE3FF095FBB1E6B03D0020C01B00201C
:10A3800010E000E000ED00E000F01F0240090123B2
:10A39000032803FA02F304D004280CD0022805D0C5
:10A3A0007047074A116C0B4313647047044A516CA1
:10A3B0000B4353647047024A116B0B43136370479E
:10A3C0000038024000285FD00368374A2DE9F04189
:10A3D00003F13F4404F57E0402EB9422012492F839
:10A3E000C42002F01F055209032A04FA05F456D0CE
:10A3F000042A4FD0022A48D08588B5FA85F0C0F1EA
:10A400001F00C0F3CC0603EB860600F007008200B5
:10A410000F24306A944020EA04003062306A01FA66
:10A4200002F20243002132624FF0010E0A464FF061
:10A43000030C02270EFA02F838EA050002F10102C5
:10A440001CD118680CFA01F420EA0400186018689E
:10A4500007FA01F606431E609E6826EA04069E601F
:10A4600098689860586820EA0800586058685860F2
:10A47000D86820EA0400D860D868D860102A01F1B2
:10A480000201D7D1BDE8F0817047084A556C2C43D2
:10A490005464B1E7054A156B2C431463ACE7034AD7
:10A4A000156C2C431464A7E790CF060800380240CF
:10A4B000002861D00368384A03F13F4101F57E016D
:10A4C00002EB91222DE9F04192F8C42002F01F0422
:10A4D00052090121032A01FA04F158D0042A51D06B
:10A4E000022A4AD08588B5FA85F2C2F11F02C2F36A
:10A4F000CC0403EB840402F00702216A92000F20CF
:10A50000904021EA00012162206A0C2101FA02F246
:10A5100002430021226208464FF0010E4FF0030C67
:10A5200002270EFA00F838EA050200F101001DD1F9
:10A530001C680CFA01F224EA02041C601E6807FA87
:10A5400001F434431C609E6826EA02069E609E6801
:10A5500016439E605C6824EA08045C605C685C608A
:10A56000DC6824EA0202DA60DA68DA60102801F1B5
:10A570000201D6D1BDE8F0817047084A546C2143EE
:10A580005164AFE7054A146B21431163AAE7034AFC
:10A59000146C21431164A5E790CF060800380240EF
:10A5A00058B183884FF00042B3FA83F332FA03F3D1
:10A5B00003D002490A6813430B607047003C014016
:10A5C000134B0268196821EA02011960596821EAEF
:10A5D0000201596019680A431A609968026821EA01
:10A5E00002019960D96821EA0201D96041791029F4
:10A5F00007D001F1804303F59E3319680A431A60BE
:10A600007047996811439960D9680A43DA607047C6
:10A61000003C0140002864D0F0B58388B3FA83F38E
:10A62000202B0A4685B00446C3F11F0143D02D4DAF
:10A630002D4E05EB81037718C3F81C21002197F8F4
:10A64000CC703EF01BFCB4F804C02268274CBCFA66
:10A650008CFCCCF11F0303F0FC0101F1804101F5FA
:10A660009C3103F0030398004FF00F0E02F13F43BB
:10A670008A680EFA00FE22EA0E0203F57E038A6063
:10A68000C3F38723834088684FF0004222FA0CF21C
:10A6900003433D448B6002A8626101234FF40061D3
:10A6A0008DF80E300292ADF80C10FFF789FF95F887
:10A6B0005C31F02B01D805B0F0BD3E44F02196F896
:10A6C000DC308DF8043003224FF4807301A885F844
:10A6D0005C118DF80520ADF8063009F007FD05B0D6
:10A6E000F0BD7047B03D002090CF0608003C01400F
:10A6F00010B4B8B10D4CD4F86431102B05D15DF80D
:10A70000044B052100203EF0A1BE03EB430222448E
:10A7100082F8691101210B4482F8680182F86A11FC
:10A72000C4F864315DF8044B704700BFB03D0020B1
:10A73000C0782021DCE700BF2DE9F04FDFF87CA3D3
:10A740002DED028B9AF8AC110022CAE96722CAE902
:10A75000692297B0CAF8982119B19AF8AD218AF800
:10A7600098219AF8AE211AB19AF8AF218AF8A72158
:10A770009AF8B2211AB19AF8B3218AF8A2219AF86C
:10A78000B0211AB19AF8B1218AF89D219AF8B43112
:10A7900005935A1ED3B257B204937B1C00F0AA80D3
:10A7A000BC4ABD4E52F83780029602EBC702002326
:10A7B0001279019308EE102A1D46344699462678F0
:10A7C0003946304645F0D0FD83463046BBF1000F98
:10A7D0001ED042F0C1FAEA1D1321D2B220B14FF0CF
:10A7E000000E827180F807E03EF048FB207845F0CB
:10A7F000EDFD4FF0070309F1010223714FF0010352
:10A8000084F802906070CDF804B05FFA82F9E370CA
:10A810000135042D04F10504D1D118EE100A029E71
:10A82000CDF80C90FFF7B0FD9C499D4A4868024066
:10A8300042F440324A600FB9019B5BB9994C482001
:10A84000FFF7A2FD204602215DF028FFA26842F03A
:10A850000102A2609148934A4168BAF8B64141F4B6
:10A8600000014160516821F480515160916B21F4E5
:10A87000401141F480119163D16841F46001D160CD
:10A88000956B85F44011C1F3015101EB81011F204B
:10A8900000FA01FC25EA0C0C112505FA01F141EA48
:10A8A0000C019163D16841F4E011D160956BC5F35F
:10A8B0000151C1F10401C9B201EB810188404FF09F
:10A8C000100C25EA00000CFA01F108439063E4B192
:10A8D000BAF8B811CAF8C041A1B1BAF8BA21CAF899
:10A8E000C41162B1019B7048521A90FBF2F2CAF88F
:10A8F000C8216BB917B0BDEC028BBDE8F08F6B4A75
:10A900001288EFE76A4A1188E7E76A4A1488DFE7A6
:10A91000404603995DF0C2FE5F4B012003F114092C
:10A920000723F278441CE4B252B375783279A5F16A
:10A930000A0101EB410105EB450C092D03FA01FE6B
:10A9400003FA0CFB02FA01F140F28E80D8F80C20D9
:10A9500022EA0E0E41EA0E01C8F80C10421E02EB6C
:10A9600082021F21062801FA02FC05FA02F261D8D0
:10A97000D8F8341021EA0C010A432046C8F83420E4
:10A980000536B145CDD1D8F80820049942F40072BB
:10A99000C8F80820D8F8082042F48072C8F80820C7
:10A9A000D8F80820574442F00102C8F8082097F967
:10A9B000BC2102203FF042FC044600289AD04068A7
:10A9C0005BF096FE059A06215BF0A4FE606809F034
:10A9D00035FC07A809F0F4FB039EA368364A0793E9
:10A9E000012E8CBF4FF48060002000230D9008F1F1
:10A9F0004C054FF40060089509920A934FF4807259
:10AA00000C930E904FF4003360680B9607A94FF437
:10AA10000055CDE90F52119309F0E4FB6268136809
:10AA200043F001031360D8F8083043F08043C8F8BE
:10AA300008305FE7C11FA0F10D0201EB81014FF06B
:10AA40001F0E02EB82020C280EFA01FC0EFA02F035
:10AA500005FA01F113D8D8F8302022EA0C0211438C
:10AA60002046C8F830108BE7D8F8101002FA0CF224
:10AA700021EA0B0B42EA0B02C8F810206EE7D8F867
:10AA80002C1005FA02F221EA00010A432046C8F818
:10AA90002C2075E774D00608483F002000230140B1
:10AAA000E030FCFF00200140803801002E7AFF1FBB
:10AAB0002C7AFF1F2A7AFF1F7C3F0020B03D002028
:10AAC000F8B5264E00EBC00406EB8404D4F8D85148
:10AAD000002D36D094F8E9C10CF0FF07BCF1000F4F
:10AAE0002FD149004FF0010CC9B284F8EA1184F863
:10AAF000EB2184F8EDC184F8EE7184F8ECC184F8A0
:10AB0000E9C184F8E871AA88C4E97C33940502D5C8
:10AB100001273846F8BD2B88D9050CD44FF4805353
:10AB200001E0013B10D02A889205FAD42B889BB211
:10AB300043F480732B80AB889BB243F44073AB80AB
:10AB4000E6E700273846F8BDB6F8403201339BB23D
:10AB5000A6F840325DF04EFADBE700BFB03D0020C2
:10AB600070B44E4A92F8423203EB430002EBC0004D
:10AB7000590090F8440203281ED8DFE800F00E20A8
:10AB80000250C81802EBC000D0F848420CB3013C98
:10AB9000C0F84842002070BC7047414890F82061DE
:10ABA000002E63D03F4C002001E086425ED0258815
:10ABB00001308C34002DF8D0012070BC7047C818CB
:10ABC00002EBC000D0F84842002CE0D1022480F80B
:10ABD0004442194402EBC10191F850020138C0B25D
:10ABE00081F85002B0BB304892F80457D0F83002D8
:10ABF000D1F84C42013303F00303421E0326AB425B
:10AC0000224481F84462B2FBF0F4C1F84842D3D048
:10AC100090429CBF04F1FF34C1F84842CCE719448C
:10AC200002EBC101D1F8480290BB92F804178B42A5
:10AC3000C2D0013303F00304A14282F84242BBD0E8
:10AC400004EB440302EBC3020223C2F8480282F879
:10AC50004432B2E7144BD3F83022012002F2E7333A
:10AC600070BCB3FBF2F3C1F8483270470E480B4496
:10AC7000D0F8301202EBC302012001F51C530F3350
:10AC800070BCB3FBF1F382F84402C2F8483270475B
:10AC90000138C1F8480200208FE700BFB03D002016
:10ACA000140000105440002088010020064B93F847
:10ACB0000527002AFBD141F2682204499B5801F183
:10ACC0000C001B68184700BFB03D0020B8440020AE
:10ACD0002DE9F84F3249DFF8D4B091F885100124FE
:10ACE0000229074619461046CBF82C404FF00002C7
:10ACF0002C4C1D4618BF7F02FDF782F92A4B636278
:10AD00006B02A362E36A40F2FF5943F093034FF4EE
:10AD100000704FF48A62E3620121C4F83890A060A9
:10AD20001020E26059F0DEF8012D40F251434E460A
:10AD3000C4F83890CA4640F252488EBF4FF012090C
:10AD400098464FF011090A25C4F838A00121A760E0
:10AD50004846C4F80C8059F0C5F803464FF0000C83
:10AD600040F2774201213720A6632BB90023184611
:10AD7000CBF82830BDE8F88FA663C4F808C0E260BD
:10AD800059F0B0F8013DA6630028EFD015F0FF059B
:10AD9000DAD10346CBF82C50CBF82830BDE8F88F39
:10ADA000B03D0020002C014000E1F505C01B002053
:10ADB0002DE9F843184C94F88460042E0546894622
:10ADC00090461F4608D0082E02D00020BDE8F88328
:10ADD000FEF760F90228F8D101234A4628460021EF
:10ADE000FFF776FF50B1FEF7DFF9E56E002DECD0EE
:10ADF0000022236F616E1046A847E6E7D4F80039B9
:10AE0000C4F860900522C4E91B87656684F8842035
:10AE100063670120BDE8F883C01B00202DE9F84FCF
:10AE20002F49DFF8C49091F885101E4602292D4B5A
:10AE300007464FF0010418BF4702012E40F259485F
:10AE40001C6398BF4FF48B683B469346474640F2DD
:10AE5000FF55B0468CBF4FF0190A4FF0180A0A246C
:10AE60001E4640F2FF53C9F838300121C9F8086086
:10AE70005046C9F80C7059F035F803464FF0000CF5
:10AE800040F2774201213720C9F83850A3B958461B
:10AE900041460122FDF7B4F84646134A134B53626C
:10AEA00076029662D36A43F09103D3620D4B002180
:10AEB00008469962BDE8F88FC9F83850C9F808C04B
:10AEC000C9F80C2059F00EF8013CC9F83850002898
:10AED000DDD014F0FF04C4D1024B1C63BDE8F88F31
:10AEE000B03D0020C01B0020002C014000E1F50512
:10AEF0002DE9F047374C82B005460E461746984676
:10AF000094F8840004280CD0082806D1E36FAB42E3
:10AF100007D0FEF7BFF80228F2D0012002B0BDE84A
:10AF2000F087DFF8B8A02666DAF87C906566C9F38A
:10AF30004F210F294FEA592223D8D4F880300193AA
:10AF4000FBB194F8CD00E0B1B9F5005F13D0224811
:10AF500031464FF40072484461F068FF09F5007211
:10AF6000C2F34F211029CAF87C204FEA522202D0A6
:10AF7000019B012B21D192B2013A174EAD1A0B461B
:10AF800000E0012332462846062601250021E76617
:10AF9000C4F8708084F8685084F88460FFF73EFF3E
:10AFA0000028BBD0FEF700F9E66E86B12846236F75
:10AFB000616E0022B0470320B0E7E26F013B01322F
:10AFC0000421C4E91F2384F884100220A6E703208B
:10AFD000A4E700BFC01B002040630020B03D00205C
:10AFE00070B52E4D95F87441022C84B01AD0012C06
:10AFF00002D0002004B070BD95F97841631CF8D0F0
:10B00000032CF6DC0091134695F879110246204690
:10B010005DF082F90028ECD0204604B0BDE8704015
:10B020005DF016BAD5F87C3113B11C689B88638338
:10B03000D5F87861B38940F2E9343389013C13F0E3
:10B04000020FA4B219D084B2B48140F2E93433893A
:10B05000013C13F0010FA4B21BD0B3891346304654
:10B060000A4600215CF080FED5F87C31A3B11A6855
:10B070009B881383012004B070BD002CDDD13046C5
:10B08000CDE9021243F0CEFCDDE90212D5F8786179
:10B09000E4E7002CDBD1F2E70120ABE7A84E00206B
:10B0A00010B50278022A044613D0012A01D00020EC
:10B0B00010BD2D4B90F9040083F8B421421CF6D04A
:10B0C0000328F4DC0A4603F5DA736179BDE8104021
:10B0D000F6E4836813B11A689B8853836368988980
:10B0E00040F2E9321889013A10F0020F92B225D0ED
:10B0F00089B2998140F2E9321989013A11F0010FC0
:10B1000092B22BD09A899A8940F2E9321989013A90
:10B1100011F0020F92B21ED001229A8140F2E93260
:10B120001989013A11F0010F92B20ED09B89A368E0
:10B13000BBB11A689B881383012010BD002AD1D1AE
:10B14000184643F06FFC6368DDE7002AE8D1184633
:10B1500043F068FCEBE7002AD8D1F8E7002ACBD10E
:10B16000EEE7012010BD00BFA84E002010B50C4C2A
:10B1700094F87431022B11D1D4F87C0142F0E2F83A
:10B18000D4F87C0108B12123C38001213DF076FE73
:10B19000BDE810400348082143F0FABB10BD00BFD2
:10B1A000A84E00201C50002073B50D4E05460C46DD
:10B1B000FF230A46014630468DF8073043F01AFD5A
:10B1C00001230DF1070245F08001304643F0D6FC23
:10B1D0009DF80700031B5842584102B070BD00BFE4
:10B1E0001C500020094B93F87E34042B08D9053BF2
:10B1F000032B08D801231A4600B10370104670478C
:10B2000000230122F8E700231A46F5E7B82C0020B6
:10B21000F0B40D6800240CE0BCF1050F18D8A0F1C3
:10B2200037030A2B14D104EB840415F8010B03EB4C
:10B230004404A0F13003DEB2092EA0F16107A0F1B1
:10B24000410CF0D9052FE7D8A0F157030A2BEAD01B
:10B250000D601460F0BC70479FED737A07EE901A92
:10B2600020EE070AF8EE677A27EE800AFDEEC07A34
:10B2700017EE903A2033402B00F2C780DFED6B7A57
:10B28000B4EEE70AF1EE10FAF0EE407A0CDD9FED35
:10B29000686ADFED686AB0EE677AB4EEE67AF1EEDE
:10B2A00010FA77EEC67AF6DC9FED637AF4EEC77A91
:10B2B000F1EE10FA0CD59FED5E6ADFED606AB0EE3C
:10B2C000677AB4EEE67AF1EE10FA77EE867AF6D483
:10B2D0009FED5B7AF4EEC77AF1EE10FA00F38D8001
:10B2E0009FED587AF4EEC77AF1EE10FA44BF9FED65
:10B2F000527A77EE677A27EEA76ADFED535A9FED11
:10B30000537ADFED536AA6EE257A67EE865AE6EEAB
:10B31000076AB6EE007AE5EEA67A27EE877ADFEDC9
:10B32000486A70EE267ABDEEE76A16EE103A2033D0
:10B33000402B67D8B4EEE60AF1EE10FA0CDDDFED33
:10B340003C5A9FED3C6AF0EE676AF4EEC66AF1EE95
:10B3500010FA77EEE57AF6DCDFED376AF4EEE67A9E
:10B36000F1EE10FA0CD5DFED325A9FED346AF0EEB3
:10B37000676AF4EEC66AF1EE10FA77EEA57AF6D4B3
:10B38000DFED2F6AF4EEE67AF1EE10FA40DDDFED44
:10B39000276A76EEE77A67EEA75A9FED2B5A9FED64
:10B3A0002B6ADFED2B6AA5EE856A27EEA55AE5EE3E
:10B3B000866AB8EE006AE5EE267A67EE867AC7EE10
:10B3C000206A0023836143610362C361B7EE006AB0
:10B3D00076EE865A76EE666A86EE257A67EE277AEC
:10B3E00066EE876AC0ED017AC0ED037A80ED007ADF
:10B3F00080ED027AC0ED046A70479FED0C7A77EE1B
:10B40000677A78E7DFED137AD9E79FED127A86E75E
:10B41000DFED0C6AF4EEE67AF1EE10FA44BFDFEDF0
:10B42000066A76EEE77AB6E727D4D236DB0F4940D4
:10B43000DB0FC940E4CB1641DB0F49C0E4CB16C19A
:10B44000DB0FC93FDB0FC9BF92E741B99730083C1A
:10B4500015A82ABE000000002DE9F0418C4B82B0F7
:10B4600093F8B5210190002A40F00C8193F8D8217F
:10B47000B3F8DA11DFED876AB3F8DC81864D07EEA9
:10B48000102A07EE901AB8EEC76AB7EE007AB3F842
:10B49000D611A5F83481F0EE475A4FEA4804E6EE9B
