:020000040800F2
:10000000F0FF001021CD0408294403081DF1020867
:10001000BDCD0408BDCD0408BDCD0408000000001E
:10002000000000000000000000000000354403084C
:1000300031440308000000002D440308ADF102081C
:10004000BDCD0408BDCD0408BDCD0408BDCD040858
:10005000BDCD0408BDCD040855A0000895A1000839
:1000600055A1000815A10008D5A00008DDE1000891
:10007000CDE10008BDE10008ADE1000899E100080C
:1000800085E1000871E10008BDCD0408BDCD04087C
:10009000BDCD0408BDCD0408BDCD040895A0000861
:1000A00091D202081DD80208BDCD0408DDD802088F
:1000B0005DD702089DD60208D1D50208850B01083C
:1000C0008D0B0108750B01087D0B0108BDCD0408DF
:1000D000BDCD040879F30208BDCD0408DDF20208A5
:1000E00015A00008BDCD0408F9920308C1D102088B
:1000F00061D30208BDCD040831D402085DE10008D7
:10010000BDCD0408BDCD040801D50208BDCD04084D
:10011000BDCD0408BDCD0408717702085D770208E3
:1001200049E1000835E1000821E100080DE100087F
:10013000F9E00008BDCD0408BDCD0408BDCD04081C
:10014000BDCD0408BDCD0408BDCD0408A15C0308E5
:10015000E5E00008D1E00008BDE0000841F2020837
:10016000650B01086D0B0108BDCD0408BDCD040869
:10017000BDCD0408BDCD0408BDCD0408BDCD040827
:08018000BDCD0408BDCD04084B
:08018800C8C8040001000000DA
:1001900010020100A4320020A03200200000000064
:1001A00030070008F8210600625600207C6000201D
:1001B000000000003407000803123300885F0020AD
:1001C000BB5F0020000000003A07000825009600F1
:1001D0003C5E0020D25E0020000000000000000015
:1001E000F6210C00085C0020B85D00200000000033
:1001F0007007000815007000D85C0020485D0020E2
:1002000000000000000000002A006000185C0020D0
:10021000785C002000000000754704082C001000E6
:10022000685F0020785F0020000000004D28010872
:100230002B00240012600020EE5F00200000000070
:100240001D28010829107800185B0020C45D0020DB
:10025000000000000000000028101000E4590020F9
:100260008460002000000000850C010804120200D8
:10027000705A002094600020000000007C070008F5
:100280000F0201006C5A002098600020000000005E
:100290007E07000814000300D0590020145C0020E1
:1002A00000000000800700080E502001A07100200F
:1002B000D0790020000000009D47040813000400CE
:1002C000BC760020F07A00200000000084070008BF
:1002D000010104001A710020F47A002000000000DF
:1002E000000000000001040012710020F87A0020D4
:1002F0000000000088070008020103000D710020C3
:10030000FC7A002000000000012A02080902010016
:10031000EC780020007B0020000000008C07000823
:100320000C106C00EA720020047B0020000000002A
:10033000D92902080102050022710020707B0020EB
:1003400000000000B1A30108000205002076002093
:10035000787B002000000000000000001B02080065
:10036000FC750020807B002000000000BD84000898
:1003700001200800B8770020887B002000000000E2
:100380008E070008190005005C780020907B002093
:10039000000000009607000837001E003478002097
:1003A000987B0020000000009C0700081E0005004C
:1003B000D8730020B87B002000000000BA070008B6
:1003C0001B00F400A8600020C07B0020000000009B
:1003D00061B401080E02020050770020B47C0020B6
:1003E00000000000C00700082F001100B0790020B5
:1003F000B87C002000000000C207000807020200CD
:10040000488300208083002000000000D4070008FB
:1004100002000C00208300208483002000000000E4
:100420000000000006020C001483002090830020CE
:100430000000000071920008081209009882002054
:100440009C830020000000007D840008F701060066
:100450008E820020A883002000000000D60700083C
:100460000A020A0008820020B08300200000000079
:10047000DC07000803000100207D0020BC83002071
:10048000000000000000000010100200047D0020A9
:10049000C083002000000000E60700081A023C00AC
:1004A00060850020C88800200000000081930008BB
:1004B000270004005C850020048900200000000063
:1004C000E807000805100600349F002024A400203F
:1004D00000000000EC070008F5317000949E002039
:1004E0002CA400200000000021AE010826000E0010
:1004F000ACA400209CA400200000000041370308A9
:100500000B201000AC9B0020E0A4002000000000A5
:10051000F20700081F201C00FC920020F0A400201D
:100520000000000002080008050204005C9E002094
:100530000CA50020000000001E08000803010A00AE
:10054000649B002010A50020000000002208000885
:1005500013020300349100201CA5002000000000BD
:100560002C0800081600080048B6002050B60020ED
:10057000000000003008000804008000ECEF0020BC
:10058000A4F0002000000000000000002300100084
:10059000B4EF002024F1002000000000A10C0108AD
:1005A0000D00340008EF002034F1002000000000AE
:1005B000B5950308FD01240038E6002068F100200D
:1005C00000000000ADB1020818202C0008E6002051
:1005D0008CF1002000000000519400080610180063
:1005E00060D90020B8F1002000000000F94704089D
:1005F000FB0101005CD90020D0F1002000000000C8
:1006000025940008FC01090028D80020D4F100201E
:1006100000000000359400080A40200000D80020A7
:10062000E0F100200000000038080008340010004D
:10063000F4D6002000F2002000000000CD4704089E
:1006400011020800CCD6002010F2002000000000AB
:100650005808000812120400C4D6002018F2002026
:10066000000000006008000812200D00B4D6002031
:100670001CF200200000000064080008F9010400DA
:1006800078CA00202CF20020000000000180000841
:100690001802020080C4002030F200200000000098
:1006A0000000000017020B0074C4002034F2002088
:1006B0000000000039840008FA01020008C400208C
:1006C00040F2002000000000A185000802020300A3
:1006D000C8B6002044F20020000000000000000026
:1006E0000C02030084B6002048F200200000000045
:1006F0002984000811000C0094B800204CF200205E
:100700000000000071930308FE0109007CB800207E
:1007100058F20020000000009D8400081A000E001E
:1007200070F400207CF50020000000007208000832
:10073000000000000401F4011900000000000000A6
:1007400000000000000000000000000000000000A9
:100750000000000000000000000000000000000099
:100760000000000000000000000000000100000088
:10077000000000000100000002020000111800004B
:100780000300000000200430900100002E00E80368
:100790006400040A0001000028010000200032006B
:1007A000C800D0079600140032002800B0044006AC
:1007B0000005500014000F000801000001000000B7
:1007C0000000000000000000000000000000000029
:1007D00000000000023C24010000000000004A016B
:1007E000B400D60100000005200300002000010134
:1007F00000002B21231E64010100000001000A01FA
:1008000029000000000000010000000500000102B6
:1008100003000000000000000000000000000000D5
:100820000000040101006C16000000000000000040
:10083000C409000019012828003001000000000050
:1008400064002C0100000000000000000000020015
:1008500000019E077D0046320000000001010101F9
:10086000FFFFFFFF000000010000054F424634007B
:1008700000007E05EA05B4053200E803D007000059
:100880001A0300000000000000000000000000004B
:100890000000000000000000000000000403090444
:1008A00012010002000000408304205700020102F0
:1008B0000301000029C00008FD840008F984000835
:1008C000F5840008B1940008F1840008ED84000864
:1008D00068E90408D95703088D2C0308C15603089A
:1008E0000000000000000000114C0308394C030810
:1008F000000000000000000000000000ED2A0308D6
:100900009585000889850008E1990008FD9900088F
:1009100041850008C5990008A99900080100000058
:10092000500100000700000002000000000000006D
:10093000000000000102030406070809D6010100B7
:10094000000101010001FFFFFFFFFFFF01000000A8
:1009500000000100E0010000FFFFFFFF01010100B6
:10096000B1A701080000000054020020607E0508C5
:100970000000000000000000000000000000000077
:10098000B87305080000000000000000FA02002013
:10099000040000000C7E05080D00000021D50108B0
:1009A000D81C002000000000647705080D0000003E
:1009B00049D50108CC1C002000000000CC780508B7
:1009C0000800000000000000C01C0020040000001F
:1009D000D07705080D00000065A80108B41C0020B0
:1009E00000000000807805080300000091D701088E
:1009F000A81C002000000000707E05080300000015
:100A000091D701089C1C002000000000007405081C
:100A100001000000000000000000000000000000D5
:100A2000000000000E0000000000000000000000B8
:100A300000000000607E05080000000000000000CB
:100A40000000000000000000B8730508000000006E
:100A500000000000FA02002004000000B87D050834
:100A60000300000011AF0108901C002008000000E6
:100A7000D07705080D00000065A80108B41C00200F
:100A800000000000807805080300000091D70108ED
:100A9000A81C002000000000707E05080300000074
:100AA00091D701089C1C002000000000007405087C
:100AB0000100000000000000000000000000000035
:100AC000000000000E000000000000000000000018
:100AD00000000000787E0508000000000000000013
:100AE0000000000000000000B873050800000000CE
:100AF00000000000FA02002004000000C07D05088C
:100B00000300000091D70108E41C00200000000051
:100B10000074050801000000000000000000000053
:100B200000000000000000000E00000000000000B7
:100B3000000000000000000020700020702D7200F6
:100B4000FFFFFFFF010000000000803F08000000E1
:100B50004257020000000106425702000000010651
:100B600000000000000000004C180020FA00000007
:100B70000100000001000000FFFF2D202D2D202D81
:100B80002D2D2D202D2D2D00000000000000000037
:100B9000000000000000000000000000FFFFFFFF59
:100BA000D4730508DC730508F8730508000000001D
:100BB000000000000000000000000000AA7105080D
:100BC00004000000E9D2010800000000000000005D
:100BD0000074050801000000000000000000000093
:100BE00000000000000000000E00000000000000F7
:100BF00000000000000000008CF000200100C4098B
:100C0000000000008AF000200100C409000000007C
:100C100088F000200100C4090000000086F00020D8
:100C20000100C4090000000082F000200100C40996
:100C30000000000084F000200100C4090000000052
:100C400080F000200100C409000000007EF00020B8
:100C50000100C40900000000347100200100C80038
:100C600001000000327100203200307532000000B7
:100C700030710020055A05002D71002000FF010091
:100C80002F71002001000000200300202B710020A4
:100C900002000000CC2305082C71002000FF010099
:100CA0002E71002001000000200300202A71002086
:100CB00002000000CC2305082071002080C1803E86
:100CC000050000001E71002080C1803E050000006C
:100CD0001871002080C1803E0500000016710020C0
:100CE00080C1803E050000001071002000FF01005F
:100CF0000C7100200A3201000B710020040000007A
:100D0000B81A05080A71002002000000CC1A050874
:100D1000000000000000000028030020089E0020C2
:100D20009CFF2C0100000000DC0000200A000000F5
:100D3000D81A050800710020E0150C17000000000B
:100D4000DE00002008000000A0230508DD000020D0
:100D5000050000000C1C05080271002002000000C4
:100D6000F01A0508707300200100FF7F01000000E9
:100D70006F73002002000000FC1A05089371002028
:100D8000030000000C1B0508927100200300000006
:100D90000C1B0508CA7200200000F40101000000CD
:100DA000C87200200000F40101000000C67200209B
:100DB0000000F40101000000C47200200000F401F2
:100DC00001000000C27200200000803E010000000F
:100DD000C07200200000803E01000000E67200208A
:100DE000E803D0070A000000E4720020006401005C
:100DF0000A000000D972002000640100D8720020AF
:100E000000640100E0720020006401000A0000009C
:100E1000DF720020006401000A000000DE72002082
:100E2000006401000A000000E37200200064010079
:100E30000A000000E2720020006401000A000000C5
:100E4000E1720020006401000A000000DD72002051
:100E500000FF01000A000000DC72002000FF01001A
:100E60000A000000DB72002000FF01000A00000001
:100E70009C7100200000F401010000009A71002024
:100E80000000F40101000000987100200000F4014E
:100E900001000000967100200000F4010100000034
:100EA000947100200000F40101000000D6720020BF
:100EB00000640100D47200201400E8030100000067
:100EC000D2720020E80330750A000000D0720020C2
:100ED00000C80100CF72002000C80100CE720020BF
:100EE00000C80100CD720020006401000A0000006B
:100EF000647300200000D007010000005F73002031
:100F000000C801005E73002000C801005D7300206E
:100F100000C80100627300200000D007010000003B
:100F20005C73002000C801005B73002000C8010052
:100F30005A73002000C80100607300200000D00731
:100F4000010000005973002000C801005873002000
:100F500000C801005773002000C80100287405086C
:100F60000000000000000000000000000000000081
:100F7000E44305080900000000000000CC03002045
:100F800004000000EC430508090000000000000018
:100F9000C003002004000000907B05080900000049
:100FA00000000000B403002004000000A472050843
:100FB0000900000000000000A80300200400000059
:100FC0003874050809000000000000009C030020A0
:100FD0000400000040740508090000000000000043
:100FE0009003002004000000487405080900000078
:100FF0000000000084030020040000005074050875
:101000000900000000000000780300200400000038
:10101000007405080100000000000000000000004E
:1010200000000000000000000E00000000000000B2
:1010300000000000000000005076050800000000DD
:1010400000000000000000000000000030650508FE
:101050000700000000000000F00300200000000076
:10106000607605080800000000000000E40300208E
:10107000000000006C760508080000000000000079
:10108000D8030020000000000074050801000000E3
:101090000000000000000000000000000000000050
:1010A0000E00000000000000000000000000000032
:1010B0007476050800000000000000000000000039
:1010C00000000000847605080D000000000000000C
:1010D0002C040020000000008C7605080D000000A4
:1010E00000000000200400200000000094760508A5
:1010F00007000000000000001804002000000000AD
:101100009C7605080D000000000000000C04002083
:1011100000000000A47605080D000000000000009B
:101120000004002000000000AC7605080700000065
:1011300000000000F8030020000000000074050813
:10114000010000000000000000000000000000009E
:10115000000000000E000000000000000000000081
:1011600000000000B4760508000000000000000048
:101170000000000000000000306505080C000000C1
:10118000000000003671002000000000C87605084D
:101190000C0000000000000038710020000000007A
:1011A000D87605080C000000000000006E710020D9
:1011B00000000000E87605080C00000000000000B8
:1011C0006271002000000000FC7605080C000000A1
:1011D000000000003A7100200000000008770508B8
:1011E0000C000000000000003C7100200000000026
:1011F000107705080C000000000000003E71002080
:1012000000000000247705080C000000000000002A
:1012100040710020000000002C7705080C00000041
:101220000000000042710020000000003477050833
:101230000C00000000000000807100200000000091
:101240004C7705080C0000000000000044710020ED
:1012500000000000587705080C00000000000000A6
:101260004671002000000000F44305080C00000057
:1012700000000000487100200000000060770508B1
:101280000C000000000000004A7100200000000077
:101290006C7705080C000000000000004C71002075
:1012A00000000000787705080C0000000000000036
:1012B0004E71002000000000847705080C0000003B
:1012C0000000000050710020000000009077050829
:1012D0000C0000000000000052710020000000001F
:1012E0009C7705080C0000000000000066710020DB
:1012F00000000000A47705080C00000000000000BA
:101300006471002000000000AC7705080C000000AC
:10131000000000007271002000000000B87705088E
:101320000C000000000000007471002000000000AC
:10133000C47705080C000000000000007A7100204E
:1013400000000000F47405080C000000000000001C
:101350005471002000000000D07705080C00000048
:10136000000000005C71002000000000D877050834
:101370000C0000000000000056710020000000007A
:10138000E47705080C000000000000005871002000
:1013900000000000F07705080C00000000000000CD
:1013A0005A71002000000000F87705080C000000CA
:1013B000000000005E71002000000000506505087C
:1013C0000C00000000000000687100200000000018
:1013D000047805080C000000000000006071002087
:1013E00000000000437305080C000000000000002E
:1013F0007071002000000000107805080C0000004B
:10140000000000006A710020000000001878050844
:101410000C000000000000006C71002000000000C3
:10142000207805080C000000000000007671002004
:1014300000000000287805080C00000000000000F3
:101440007871002000000000307805080C000000D2
:10145000000000008A7100200000000000740508F0
:10146000010000000000000000000000000000007B
:10147000000000000E00000000000000000000005E
:10148000000000003878050800000000000000009F
:101490000000000000000000447805080D00000076
:1014A0000000000084040020000000004C780508C3
:1014B0000D00000000000000780400200000000083
:1014C00054780508070000000000000070040020A8
:1014D0000000000060780508070000000000000020
:1014E00068040020000000006C7805080900000076
:1014F000000000005C04002000000000787805086F
:10150000090000000000000050040020000000005E
:101510008478050809000000000000004404002051
:101520000000000094780508090000000000000099
:1015300038040020000000000074050801000000CD
:10154000000000000000000000000000000000009B
:101550000E0000000000000000000000000000007D
:10156000A87805080000000000000000000000004E
:1015700000000000B8780508050000000000000029
:1015800091710020000000000074050801000000B7
:10159000000000000000000000000000000000004B
:1015A0000E0000000000000000000000000000002D
:1015B000C0780508000000000000000000000000E6
:1015C00000000000B87305080000000000000000E3
:1015D000E41E002004000000A07205080D000000B9
:1015E0004DD30108D8040020000000000C7E05083F
:1015F0000D00000069A70108CC04002000000000D5
:10160000647705080D0000004DA70108C004002004
:1016100000000000CC780508080000000000000071
:10162000B404002004000000D07705080D0000007D
:1016300095A60108A804002000000000D478050841
:1016400009000000000000009C04002004000000CD
:10165000807805080300000091D70108900400205D
:1016600000000000007405080100000000000000F8
:101670000000000000000000000000000E0000005C
:10168000000000000000000000000000DC780508F9
:10169000000000000000000000000000000000004A
:1016A000EC7805080D00000000000000F0040020A8
:1016B00000000000F47805080A00000000000000A7
:1016C0001877002000000000007905080A000000DB
:1016D00000000000207700200000000008790508C5
:1016E0000A00000000000000287700200000000031
:1016F000107905080800000000000000E404002044
:10170000000000001879050804000000C5D8010891
:101710000000000000000000007405080100000047
:1017200000000000000000000000000000000000B9
:101730000E0000000000000000000000000000009B
:1017400024790508000000000000000000000000EF
:1017500000000000387905080D00000000000000BE
:10176000080500200000000048790508040000007A
:10177000C5D50108000000000000000050790508F0
:101780000D00000000000000FC040020000000002C
:101790006479050804000000A1D5010800000000DC
:1017A00000000000007405080100000000000000B7
:1017B0000000000000000000000000000E0000001B
:1017C0000000000000000000000000006C79050827
:1017D0000000000000000000000000000000000009
:1017E0008079050808000000000000005005002076
:1017F000000000008C7905080800000000000000CF
:101800004405002000000000987905080800000049
:10181000000000003805002000000000A479050841
:1018200008000000000000002C050020000000005F
:10183000B079050808000000000000002005002025
:1018400000000000BC79050808000000000000004E
:1018500014050020000000000074050801000000CD
:101860000000000000000000000000000000000078
:101870000E0000000000000000000000000000005A
:10188000C87905080000000000000000BB0200202D
:1018900000000000D47905080B00000000000000E3
:1018A000E405002000000000E07905080B000000BE
:1018B00000000000D805002000000000EC790508B9
:1018C0000B00000000000000CC050020000000001C
:1018D000F87905080B00000000000000C00500209A
:1018E00000000000047A05080B0000000000000062
:1018F000B405002000000000107A05080B0000006D
:1019000000000000A8050020000000001C7A050867
:101910000B000000000000009C05002000000000FB
:10192000287A05080B000000000000009005002048
:1019300000000000347A05080B00000000000000E1
:101940008405002000000000407A05080700000020
:10195000000000007C05002000000000487A050817
:1019600007000000000000007405002000000000D7
:10197000547A05080B0000000000000068050020F4
:1019800000000000607A0508080000000000000068
:101990005C05002000000000007405080100000044
:1019A0000000000000000000000000000000000037
:1019B0000E00000000000000000000000000000019
:1019C0006C7A050800000000000000000000000024
:1019D00000000000807A05080800000000000000F8
:1019E00020060020000000008C7A05080800000096
:1019F000000000001406002000000000987A05088E
:101A000008000000000000000806002000000000A0
:101A1000A47A05080800000000000000FC05002072
:101A200000000000B07A0508080000000000000077
:101A3000F00500200000000000740508010000000F
:101A40000000000000000000000000000000000096
:101A50000E00000000000000000000000000000078
:101A6000B87A05080000000000000000B80200205D
:101A700000000000C87A05080B000000000000000C
:101A80006406002000000000D47A0508070000006A
:101A9000000000005C06002000000000E07A05085D
:101AA00007000000000000005406002000000000B5
:101AB000EC7A050807000000000000004C0600203A
:101AC00000000000F87A050808000000000000008F
:101AD0004006002000000000007B05080800000010
:101AE000000000003406002000000000087B05080C
:101AF00007000000000000002C060020000000008D
:101B00000074050801000000000000000000000053
:101B100000000000000000000E00000000000000B7
:101B20000000000000000000147B05080000000019
:101B300000000000B802002000000000207B050823
:101B40000700000000000000D40600200000000094
:101B5000287B05080700000000000000CC060020DC
:101B600000000000307B05080700000000000000B6
:101B7000C406002000000000387B050808000000B3
:101B800000000000B806002000000000407B0508AF
:101B90000700000000000000B00600200000000068
:101BA000487B05080700000000000000A806002090
:101BB00000000000507B0508070000000000000046
:101BC000A006002000000000587B05080800000067
:101BD000000000009406002000000000607B050863
:101BE00007000000000000008C060020000000003C
:101BF000687B050807000000000000008406002044
:101C000000000000707B05080700000000000000D5
:101C10007C06002000000000787B0508080000001A
:101C2000000000007006002000000000007405089D
:101C300001000000000000000000000000000000A3
:101C4000000000000E000000000000000000000086
:101C50000000000000000000D9AA0108DC060020F6
:101C60008F7100202B0000001C1B05088E710020C6
:101C700000C801008C710020E803D00701000000BB
:101C80004F4D4E4942555346340000002971002003
:101C900000030100287100200003010021AA0108AF
:101CA000F9A90108B8070020B5A9010869A9010828
:101CB0003008002061AA010849AA0108E4080020B0
:101CC000D5A8010889A80108040C0020EFAA010882
:101CD00071D50108E00C0020D5A601080000000025
:101CE000300D0020A1D801086DAD01080C0E0020B8
:101CF00015AB010800000000C00E0020B5AB0108C4
:101D000081AB01084C0F002041AC01088DAC0108EB
:101D100000100020D77200200106010055AB010819
:101D200029AB010840110020E9AB0108E9D5010801
:101D3000E0110020BDAC01083DD60108A81200202A
:101D4000CC72002001030100807B05080000000028
:101D50000000000000000000000000008C7B05086F
:101D60000800000000000000F41300200000000044
:101D7000947B05080700000000000000EC13002021
:101D800000000000A47B05080D000000000000001A
:101D9000E013002000000000B07B050803000000F5
:101DA00091D70108D413002000000000007405083A
:101DB0000100000000000000000000000000000022
:101DC000000000000E000000000000000000000005
:101DD00000000000B87B05080000000000000000C3
:101DE0000000000000000000C87B05080A00000099
:101DF00000000000D07B050800000000D87B05082B
:101E00000A000000000000000E3905080000000074
:101E1000E07B05080A000000000000006673002057
:101E200000000000E87B05080A0000000000000038
:101E300000140020000000000074050801000000EC
:101E40000000000000000000000000000000000092
:101E50000E00000000000000000000000000000074
:101E6000F07B0508000000000000000000000000FA
:101E700000000000FC7B05080300000091D701086A
:101E80003414002000000000087C05080300000056
:101E900091D701082814002000000000107C0508DC
:101EA0000300000091D701081C140020000000006E
:101EB000187C0508050000000000000027710020C4
:101EC00000000000207C0508070000000000000062
:101ED00014140020000000002C7C050807000000FE
:101EE000000000000C140020000000000074050831
:101EF00001000000000000000000000000000000E1
:101F0000000000000E0000000000000000000000C3
:101F100000000000387C0508000000000000000000
:101F200000000000000000004C7C050803000000D9
:101F300091D701086414002000000000587C0508B7
:101F40000300000091D70108E0000020000000001D
:101F5000607C05080300000091D701085814002098
:101F600000000000687C05080300000091D701080C
:101F70004C14002000000000D0770508030000008A
:101F800091D70108401400200000000000740508EB
:101F90000100000000000000000000000000000040
:101FA000000000000E000000000000000000000023
:101FB00000000000747C0508000000000000000024
:101FC0000000000000000000847C050807000000FD
:101FD00099D60108C014002000000000F47705081D
:101FE0000300000091D70108B41400200000000095
:101FF000907C05080300000091D70108A814002078
:1020000000000000987C05080300000091D701083B
:102010009C14002000000000A07C050807000000C0
:102020007DD601089414002000000000B08005084F
:102030000300000091D70108881400200000000070
:10204000AC7C05080300000091D701087C14002037
:1020500000000000B87C05080300000091D70108CB
:10206000701400200000000000740508010000004A
:102070000000000000000000000000000000000060
:102080000E00000000000000000000000000000042
:10209000A9AA010879AA0108C814002039AD0108CD
:1020A000000000005415002045A9010821A90108DD
:1020B000E015002000000000000000009416002041
:1020C00011AD0108B5D6010834170020C47C0508FD
:1020D0000000000000000000000000000000000000
:1020E000D07C05080300000091D7010840180020AB
:1020F00000000000D87C05080300000091D701080B
:1021000034180020000000004866050803000000A5
:1021100091D701082818002000000000E47C050881
:102120000300000091D701081C18002000000000E7
:10213000F07C05080300000091D70108101800206A
:1021400000000000F87C05080200000019D9010811
:102150000000000000000000007D050802000000F3
:1021600019D9010801000000000000000C7D0508DD
:102170000200000019D90108020000000000000060
:10218000000000000E000000000000000000000041
:10219000000000000671002088136F170100000086
:1021A0000871002088136F1700000000187D0508D3
:1021B000000000000000000000000000000000001F
:1021C000287D0508080000000000000020190020FC
:1021D00004000000347D0508080000000000000035
:1021E0001419002000000000807805080400000099
:1021F00075D301080000000000000000007405080D
:1022000001000000000000000000000000000000CD
:10221000000000000E0000000000000000000000B0
:10222000000000000471002088136F1701000000F7
:10223000489E002088136F170000000019A80108AD
:10224000000000002C190020B976002001000000D9
:10225000CC1B05084A9E002001000000D81B050881
:10226000409E002002000000E01B05084E93002065
:1022700000000000000000004C930020000000005F
:10228000000000004A930020000000000000000051
:10229000489300200000000000000000469300204A
:1022A0000000000000000000449300200000000037
:1022B00000000000201F00200000000000000000BF
:1022C0000371002002000000EC1B0508707D05086A
:1022D00000000000000000000000000000000000FE
:1022E000287D05080800000000000000B01900204B
:1022F00004000000347D0508080000000000000014
:10230000A4190020000000008078050804000000E7
:10231000E9A70108000000000000000000740508A3
:1023200001000000000000000000000000000000AC
:10233000000000000E00000000000000000000008F
:1023400000000000807D0508000000000000000083
:102350000000000000000000907D05080D00000056
:10236000C5D40108E0190020040000009C7D050888
:102370000D00000041A80108D4190020040000004D
:10238000A87D05080D00000089D40108C8190020A7
:1023900000000000B47D05080300000031AF010813
:1023A000BC19002008000000C07D050803000000E3
:1023B00091D70108E41C002000000000007405080B
:1023C000010000000000000000000000000000000C
:1023D000000000000E0000000000000000000000EF
:1023E00000000000F8730508000000000000000075
:1023F0000000000000000000AA71050804000000B1
:102400008DD30108000000000000000000740508E2
:1024100001000000000000000000000000000000BB
:10242000000000000E00000000000000000000009E
:1024300000000000147E05080000000000000000FD
:102440000000000000000000284805080D00000002
:1024500000000000401A002004000000247E05084F
:102460000800000000000000341A002004000000F2
:10247000307E05080800000000000000281A002037
:1024800004000000387E050808000000000000007D
:102490001C1A002004000000407E0508080000000F
:1024A00000000000101A002004000000487E05080B
:1024B0000800000000000000041A002004000000D2
:1024C000507E05080800000000000000F8190020F8
:1024D00004000000587E050808000000000000000D
:1024E000EC19002004000000007405080100000041
:1024F00000000000000000000000000000000000DC
:102500000E000000000000000000000000000000BD
:1025100001A80108000000004C1A00200000000083
:1025200000000000C41A00200000000000000000AD
:10253000641B0020469E002004000000F81B0508D4
:10254000449E0020E0150C1700000000439E002070
:1025500008000000A0230508429E0020050000009E
:102560000C1C05080000000000000000B41B002047
:10257000010000000000803F00000000000000009B
:1025800000000000FF00000090210508050804007D
:10259000000000000C1C0508A0230508F81B050816
:1025A0000000000000000000BC21050805080A002A
:1025B000000000000C1C0508A0230508D81A050817
:1025C0000000000000000000685E0C00010102FF36
:1025D000FF0000000403090412010002EF020140A1
:1025E00083045632000201020301000012010002BE
:1025F0000202004083044057000201020301000070
:1026000009022000010104C032090400000208068A
:102610005005070581024000000705010240000047
:1026200009026400030100C0320904000001030034
:10263000000009211101000122260007058303087B
:10264000000A080B01020202010009040100010254
:1026500002010005240010010524010002042402E7
:10266000020524060102070582030800FF0904028F
:1026700000020A0000000705010240000007058172
:102680000240000009024300020100C032090400B8
:1026900000010202010005240010010524010001CF
:1026A000042402020524060001070582030800FF36
:1026B00009040100020A00000007050102400000B1
:1026C0000705810240000000FF00000000FFFF003E
:1026D00000000000AA5505010000010005010905E0
:1026E000A101A10005010930093109320933093579
:1026F0000934094009381581257F7508950881023C
:10270000C0C0000009022200010100E032090400FB
:102710000001030102000921110100012226000726
:1027200005830308000A0000000000000102030402
:102730000102030406070809654E03082D55030826
:10274000A9500308792B03089D2D0308892B030842
:10275000A52B0308512B0308412B030800000000A0
:10276000000000002D202D2D202D2D2D2D202D2D74
:102770002D2D0000000000000000000000000000FF
:10278000000000AA550B010000AA5507010000AA8D
:10279000550902000000AA5503009F000100000037
:1027A000C0120000FF1FFF1F01000000BCA400209A
:1027B0000000000020250020040000007C650508C2
:1027C0005C8105080000000045930308A086010015
:1027D00004000000000000000000000000000000F5
:1027E00000000000000000000000000000000000E9
:1027F0007C650508E48705080000000071AE02084A
:10280000E8030000040000000000000000000000D9
:1028100000000000000000000000000000000000B8
:1028200000000000F47705080044050800000000DF
:10283000E93302087D0000000600000000000000EF
:102840000000000000000000000000000000000088
:102850000000000000000000D46405080000000033
:102860000000000039E70208E80300000300000050
:102870000000000000000000000000000000000058
:10288000000000000000000000000000EC870508C8
:1028900000000000000000004D4B0408102700005D
:1028A0000300000000000000000000000000000025
:1028B0000000000000000000000000000000000018
:1028C000A87E0508000000005124010871B5020827
:1028D0005F7600000500000000000000000000001E
:1028E00000000000000000000000000000000000E8
:1028F000000000003C670508000000000000000028
:102900003121030810270000010000000000000032
:1029100000000000000000000000000000000000B7
:102920000000000000000000F8870508000000001B
:102930000000000075AE0208E8030000050000007A
:102940000000000000000000000000000000000087
:1029500000000000000000000000000004880508DE
:1029600000000000000000004D9A0308204E000007
:102970000300000000000000000000000000000054
:102980000000000000000000000000000000000047
:10299000148805080000000000000000B993030837
:1029A000204E0000030000000000000000000000B6
:1029B0000000000000000000000000000000000017
:1029C000000000002488050800000000000000004E
:1029D000C9C20208400D030003000000000000000F
:1029E00000000000000000000000000000000000E7
:1029F0000000000000000000406605080000000024
:102A00000000000071A6030810270000010000006C
:102A100000000000000000000000000000000000B6
:102A2000000000000000000000000000EC64050849
:102A3000000000000000000099ED010810270000D0
:102A40000300000000000000000000000000000083
:102A50000000000000000000000000000000000076
:102A6000348805080000000000000000216B010808
:102A7000A08601000100000000000000000000002E
:102A80000000000000000000000000000000000046
:102A900000000000D86405080000000000000000ED
:102AA00099B4020850C300000100000000000000BB
:102AB0000000000000000000000000000000000016
:102AC0000000000000000000000000000000000006
:102AD00000000000000000000000000000000000F6
:102AE00000000000000000000000000000000000E6
:102AF000000000000000000000000000F474050861
:102B0000000000000000000025B20208A8610000DB
:102B100001000000000000000000000000000000B4
:102B200000000000000000000000000000000000A5
:102B30003C8805080000000000000000FD090208B4
:102B4000A08601000100000000000000000000005D
:102B50000000000000000000000000000000000075
:102B600000000000446705080000000000000000AD
:102B7000C9F40208A00F00000100000000000000DE
:102B80000000000000000000000000000000000045
:102B90000000000000000000488805080000000058
:102BA0000000000045B001081027000001000000EF
:102BB0000000000000000000000000000000000015
:102BC0000000000000000000000000006C66050826
:102BD0000000000000000000F9950308A00F0000AD
:102BE00001000000000000000000000000000000E4
:102BF00000000000000000000000000000000000D5
:102C0000486605080000000000000000A5720308E7
:102C10001A41000001000000000000000000000058
:102C200000000000000000000000000000000000A4
:102C300000000000A467050800000000000000007C
:102C4000A933030810270000010000000000000065
:102C50000000000000000000000000000000000074
:102C60000000000000000000708105080000000066
:102C70000000000099DA01081A410000010000007C
:102C80000000000000000000000000000000000044
:102C9000000000000000000000000000548805084B
:102CA00000000000000000001D6E0308400D03003E
:102CB0000000000000000000000000000000000014
:102CC0000000000000000000000000000000000004
:102CD0005C88050800000000000000002DAE02081E
:102CE000400D030000000000000000000000000094
:102CF00000000000000000000000000000000000D4
:102D000000000000648805080000000000000000CA
:102D100031FB010850C30000030000000000000068
:102D200000000000000000000000000000000000A3
:102D3000000000000000000070880508000000008E
:102D400000000000199A030840420F000000000034
:102D50000000000000000000000000000000000073
:102D60000000000000000000000000007C88050852
:102D700000000000000000001D97030850C3000081
:102D80000000000000000000000000000000000043
:102D90000000000000000000000000000000000033
:102DA000000200051002700B0000000068B6002051
:102DB000080000000000000058B6002008000000D5
:102DC00005310308D12C03088550030800000000DA
:102DD0003D2B030839580308B9300308BD4D0308DB
:102DE0000000000000000000F92A03088D2A0308F3
:102DF000812A0308D9440308F5440308BD440308A5
:102E0000A144030885440308BD300308AD2C030822
:102E1000C54F030800000000112B0308C14D030833
:102E20008D3003081D4D0308000000000000000065
:102E3000052B030808000000FFFFFFFF7D2A0308A1
:102E4000792A0308752A0308692A0308652A0308F2
:102E5000712A03086D2A0308010000000060024087
:102E6000106002400000000000000000000B0000A5
:102E700000000000000000000000000000600240B0
:102E8000286002400100000000000000060C000065
:102E90000000000000000000000000000060024090
:102EA000406002400200000000000000100D000021
:102EB0000000000000000000000000000060024070
:102EC000586002400300000000000000160E0000E1
:102ED0000000000000000000000000000060024050
:102EE000706002400400000000000000200F00009D
:102EF0000000000000000000000000000060024030
:102F0000886002400500000000000000261000005C
:102F1000000000000000000000000000006002400F
:102F2000A060024006000000000000003011000018
:102F300000000000000000000000000000600240EF
:102F4000B86002400700000000000000362F0000BB
:102F500000000000000000000000000000640240CB
:102F60001064024000000000000000000038000073
:102F700000000000000000000000000000640240AB
:102F80002864024001000000000000000639000033
:102F9000000000000000000000000000006402408B
:102FA000406402400200000000000000103A0000EF
:102FB000000000000000000000000000006402406B
:102FC000586402400300000000000000163B0000AF
:102FD000000000000000000000000000006402404B
:102FE000706402400400000000000000203C00006B
:102FF000000000000000000000000000006402402B
:103000008864024005000000000000002644000023
:10301000000000000000000000000000006402400A
:10302000A0640240060000000000000030450000DF
:1030300000000000000000000000000000640240EA
:10304000B86402400700000000000000364600009F
:103050000000000000000000000000000000803FB1
:103060000000000000000000000000000000803FA1
:103070000000000000000000000000000000000050
:103080000000000000000000000000000000000040
:1030900000000000010000000000803F0000000070
:1030A00000000000000000000000803F30280020E9
:1030B0000000000000000000000000000000000010
:1030C0000000000000000000000000000000000000
:1030D00000000000000000000000000000000000F0
:1030E00000000000000000000000000000000000E0
:1030F00000000000000000000000000000000000D0
:1031000000000000000000000000000000000000BF
:0431100001000000BA
:1080000000232522027043708370C370704700BF45
:1080100090ED057A90ED004AD0ED066AD0ED014A68
:10802000D0ED047A90ED035AD0ED025AA4EE007A16
:10803000B0EE406AB0EE470AB0EE667AA4EE867AF9
:1080400067EEC07AA5EE407AE5EE867A80ED057A95
:10805000C0ED067A704700BFD0ED057A90ED013A89
:10806000D0ED003AD0ED064A90ED024A90ED077A45
:1080700090ED035A90ED086AD0ED045AC0ED067AEF
:10808000F0EE406A27EE830AC0ED056AA3EEA60A69
:1080900080ED087AA4EE240AA5EE470AA5EEC60AEA
:1080A00080ED070A704700BFD0ED007A90ED017AAD
:1080B00030EE670AE7EE007AB0EE670AC0ED007AAC
:1080C000704700BF704700BF2DE9F04714461D46BA
:1080D00006464FF47A7200232046294644F054FCA9
:1080E0004D4BDFF848814D4A4D4F034488FB031048
:1080F0001844D91782FB032CC1EB601088FB0028C1
:1081000087FB03279C44474AC1EBEC2CC0EB001EC5
:1081100082FB0C29A3EB8E0E1F44434A86F806E02F
:10812000C1EB27474FEAEC7E08EB000ACEEBA90E25
:1081300082FB07824FEAE0780EEB4E0EC8EB6A181E
:10814000ACEBCE0CC8EB0818DFF8E4E086F804C00E
:10815000A0EB880070718EFB0303F817C0EBE212EE
:1081600040F2B55000FB1272C1EBE353B2F5896FD8
:108170004FEA83073CDA40F2DA239A4242DCB2F556
:10818000B77FB4BF4FF0000E4FF0010E4FEA4E091B
:10819000DFF8A08009EB0E0308EBC3031FFA8EFC87
:1081A000D88A09EB0E0108EBC10116310B2301E05F
:1081B00031F8020D904218DD013BF9D1CE44012384
:1081C00038F83E00B37007F5FA670132121ABC4462
:1081D000F270A6F800C0204629464FF47A720023B8
:1081E00044F0D2FB3281BDE8F0870133DBB2E9E72E
:1081F0004FF0030CE64640F29650DFF838804FF01F
:108200000609CEE74FF0020CDFF82880E64640F280
:1082100029404FF00409C4E780BC92C7C5B3A291BE
:1082200007452EC2ABAAAA2A73B06D168988888822
:10823000792D0311F0E6040830B403888278C478FD
:10824000154DA3F5FA6303F0030101EB4101013A77
:1082500002EB81029B0835F812500279611E40F250
:10826000B55404FB03132B4403EB430302EBC3039A
:108270004279847909490089C3EB031302EB830334
:108280002144C3EB031301EB83034FF47A72002103
:10829000C2FB030130BC7047F0E6040880436D3830
:1082A0000028F0B403DA2D230B7040420131092875
:1082B00004464FF0010307DD03EB83035B00B0FBD3
:1082C000F3F2092AF8D883B10F48A0FB0326B4FBC8
:1082D000F3F2092A02F1570C02F1300709DD03FB22
:1082E0001244F30801F801CBEFD100230B70F0BC6E
:1082F000704703FB1244F30801F8017BE5D100232A
:108300000B70F0BC704700BFCDCCCCCC884270B4B1
:108310004FF0010442D301FB04F4B0FBF4F58D42AD
:10832000F9D2ECB142BB092D04FB150005F157064B
:1083300005F130020EDDB4FBF1F403F8016B7CB102
:10834000B0FBF4F5092D04FB150005F1570605F106
:108350003002F0DCB4FBF1F403F8012B002CEFD178
:1083600000221A7070BC704703F8016BB4FBF1F483
:10837000002CF5D0B0FBF4F5092D04FB150005F138
:10838000370605F13002EFDCB4FBF1F403F8012B02
:10839000002CEFD100221A7070BC70470546002AED
:1083A000EAD1C0E703685A1C02601970704700BF29
:1083B0002DE9F047089C2578002B804689460CBFA4
:1083C0004FF0200A4FF0300A661C25B3002A26DD44
:1083D000334601E0024698B113F8011B501E0029F4
:1083E000F8D1971E60B13D46013D51464046C84711
:1083F0006B1C002BF8DC257827EAE770013045B1CB
:10840000041B29464046C847301916F8015B002D69
:10841000F7D1BDE8F087002A03DC2846F9E7002001
:10842000EEE7571EDFE700BF01211F220323017083
:1084300042708370704700BFF0B400250E4E00F10B
:10844000FF3C2F46142165B103788B420BD00346C5
:108450000CEB050403E013F8012F8A4203D0A3427A
:10846000F9D1C155013701350B2D02D016F8011F86
:10847000E9E7F0BC704700BF50E7040830B41523AB
:10848000162517243A213B2203703C234570847043
:108490008171C271037230BC704700BF30B40123D8
:1084A0000225322431211022057244704171C270BC
:1084B00003700371837030BC704700BF06224FF415
:1084C0007A7302704360704730B41D6995420AD3D5
:1084D00014460A4621448D42996938BF2A1B21441B
:1084E00030BC44F0A3BC30BC704700BF00207047D4
:1084F0000120704701207047002070474FF4007042
:10850000024B10609B680B600020704780CA0020FF
:10851000013A30B4D2B28C1C04EB42040025020FA5
:10852000092AD3B203F130028ABF37330A700B70C5
:108530004D7002318C424FEA0010F0D130BC7047D0
:108540000B4A0C4B10681B681A22C0180A8001D114
:108550000948704710B5094B09491C680822FFF704
:10856000D7FF204604220749FFF7D2FF024810BD7B
:10857000E8F7FF1FECF7FF1F00000020EAF7FF1FDE
:10858000020000201200002004230B8000487047E6
:108590001C00002012230B800048704720000020A0
:1085A0002322032302704370704700BF08307047D6
:1085B00008307047044A054B126803EB4213184613
:1085C0005B689B69184700BF9828002030C40020D2
:1085D0000448054B006803EB401318465B685B6971
:1085E000184700BF9828002030C40020704700BF03
:1085F000816170476D4B2DE9F04F5C686C4BB3F8AF
:108600000AE0B3F804809A894FEA0E2AB4EB0A0410
:108610004FEA1E6B4FF0000587B065EB0B05CDE907
:1086200000450746009C1889019EA0FB044500FBFD
:108630000655E00940EA45604FEA08448C46E911D6
:108640004FEA184510EB0408D888009C41EB050957
:10865000CDE90489A0FB0445B3F8028000FB065570
:10866000200A40EA05604FEAC83429124FEA58450B
:1086700010EB040841EB05090099A2FB010102FB84
:1086800006114FEAD05A4AEA412A1AF5FA634FEA2C
:10869000E15B4BF10004B3F5FA6FCDE9023474F1FC
:1086A0000003424E64DA0524AAFB040104FB0B110B
:1086B00000FB0BF40AFB0144DDE90423A0FB0A01E3
:1086C00021444D104FEA3004121B4FEA900463EB33
:1086D000050344EA8174B8EB0408CDE90423DDE91D
:1086E000023434484FEAA10569EB05094FF0FF3128
:1086F000834274EB010326DA40F6AC501AEB000219
:108700004FF000014BEB010302FB03F1A2FB02233C
:1087100003EB4103D400DD00101B45EA527563EB07
:108720000501DDE9044524184D41CDE904450B243C
:10873000A2FB040104FB031149104FEA3000B8EB1F
:10874000000869EB0109DDE900325343009ADDE9D5
:108750000201A2FB02AB0BEB430B4FEADA7242EAD7
:108760004B02801A4FEAEB7361EB0301CDE9020182
:1087700097B1B168A1FB082301FB0933540D5D15C6
:1087800044EAC324DDE90423A21A65EB03031D4672
:10879000D30B43EA45433B60BCF1000F02D0029B80
:1087A000CCF8003007B0BDE8F08F00BF982800205B
:1087B0003C5A002024FAFFFF2DE9F04FDFF8DCC11E
:1087C000754CDCF80C502288B4F90AA0C2EB2513D2
:1087D0005200C2EBE502B4F902505B436A43B4F9BC
:1087E00004501B135D43AD1305EBE225B5F5FA32DA
:1087F0004FEAE57B85B04BF1FF33CDE90023DDE99E
:1088000000325343009AA561A2FB0289CDE902011F
:10881000B4F908200199009809EB43095143D31793
:1088200000FB0311A2FB00230B444FEAEA7B0AFB87
:1088300009F11F0308FB0B13AAFB080119444FEAB7
:10884000102A4AEA016A16034FEA212B47EA125717
:108850001AEB0602E6884BEB070312F1000A43F518
:10886000004BAAFB060106FB0B114A10CB1752EA7C
:10887000030100F08E80B4F91060009806FB09F146
:10888000F71708FB0711A6FB08673944B4F90E80F7
:108890008B4601994FEAE87908FB01F100FB0911C9
:1088A000A8FB00898944DCF810104FEA4947C1F55C
:1088B000801C47EAD837B2464FEA4846B4F90C80E4
:1088C0001AEB060A66464BEB070BF7174FEAC8068A
:1088D000019600260096F907DDE900674FEACC70A3
:1088E00016EB0A0647EB0B0741EA5C01801B61EBC4
:1088F000070140F6354C8946A0FB0C010CFB091121
:1089000044F042F8B4F91620B4F914A04E13470B02
:1089100047EAC14702FB06FCD31707FB03CCA2FBC7
:1089200007236344564307FB0366A2FB0723334434
:10893000560E46EAC31632184FEA636747EB010347
:1089400080460AFB01F14FEAEA7B08FB0B17AAFB02
:1089500008013944C60C46EA413612EB06084FEAD4
:10896000E147B4F9122043EB07094FEA182141EA25
:10897000096113010B44029A0AB11B0A1360039B9D
:1089800023B105EB850580352D121D6005B0BDE8CE
:10899000F08F0023EFE700BF505A002098280020F6
:1089A000704770472DE9F041334B344E9A8A7489F1
:1089B000B6F91450B6F90480B6F90E70B6F920C0B5
:1089C0009B69121B34895443E213B6F912401544D3
:1089D000E40294FBF5F4B6F902501444A4F57A6E5F
:1089E0000EFB0EF20EFB05F50EFB08FEB6F90C8031
:1089F000F4611213574302FB08F2121402EB6E32B9
:108A0000ED1205EBE7270232B6F90050B6F806E0A2
:108A1000921002F5004207EB85070EFB02F207FAFF
:108A20000CF74FEAD23E02374CF25032A3EBA707C5
:108A300042FA0CF37B4355BF5B00B3FBFEF3B3FB81
:108A4000FEF35B0078B11A1202FB02F540F6DE324B
:108A50006A430B4D12145D4302EB254202F6CF62CE
:108A600003EB2213036021B10A235C430834241171
:108A70000C60BDE8F08100BF98280020185A002043
:108A800043E3FFFF4FF40063838270474FF40063BA
:108A9000838270474FF4006383827047012380F81C
:108AA00054307047F0B4037C456902681F2B37D9F6
:108AB000203B2021546899400C4223D010249C4034
:108AC000D160D4605168D940CE074ED4EFF3118302
:108AD000502282F31288EA6B1168C90709D45468DE
:108AE000002C52D1D5E909618E4243D1012285F88B
:108AF0006020DBB283F31188037C02681F2B1946C8
:108B000014D9203B082150689940084200D0D16018
:108B10000421506801FA03F3184223D1F0BC7047D6
:108B2000202416689C4026420FD11946082310685D
:108B30008B40184200D093600423106803FA01F1BF
:108B40000842EBD09160F0BC7047102199409460CE
:108B500091601168D940CC07B8D5012101FA03F31F
:108B60009360B3E7D360F0BC7047012101FA03F3CF
:108B7000D360ABE7AF690F44D7600ED82E69711A86
:108B80005160AC62002185F86010116841F001016C
:108B9000DBB2116083F31188AEE7711A5160AE62E7
:108BA000F0E700BF70B4037C01681F2B26D9A3F146
:108BB000200520224C68AA40224214BF0122002234
:108BC000D2B142691B481C4C02EB420200EB42123C
:108BD000257854682068CDB9E56856892C6824F05A
:108BE00001042C6082891F2B22EA060282811AD896
:108BF000202202FA03F38B6070BC704720220C68BD
:108C00009A40224214BF01220022D9E7A4692268B7
:108C100022F001022260828922F480721204120C76
:108C20001F2B8281E4D9A3F1200220239340CB6043
:108C300070BC70477CD90020F00E001070B59D4CC0
:108C40002368002B40F005819B4B1A78002A68D0DE
:108C50009A4B19789A4B002964D11868B3F82C51B3
:108C600041628489012A44EA05048481A3F82C1115
:108C700057D0D3F83001B3F85C5241628489022A9C
:108C800044EA05048481A3F85C124AD0D3F8600258
:108C9000B3F88C5341628489032A44EA0504848131
:108CA000A3F88C133DD0D3F89003B3F8BC544162C1
:108CB0008489042A44EA05048481A3F8BC1430D0D2
:108CC000D3F8C004B3F8EC5541628489052A44EA1C
:108CD00005048481A3F8EC1523D0D3F8F005B3F88C
:108CE0001C5741628489062A44EA05048481A3F85A
:108CF0001C1716D0D3F82007B3F84C58416284896A
:108D0000072A44EA05048481A3F84C1809D0D3F853
:108D10005028B3F87C495162908920439081A3F890
:108D20007C1970BD5C68198961602568186845F018
:108D3000010540F20D312560A0F848108489012A10
:108D400044F480748481ECD0D3F83441B3F83851C2
:108D5000D3F830016560256845F001052560A0F86D
:108D600048108489022A44F480748481D9D0D3F8CD
:108D70006442B3F86852D3F860026560256845F034
:108D800001052560A0F848108489032A44F4807402
:108D90008481C6D0D3F89443B3F89853D3F89003A2
:108DA0006560256845F001052560A0F848108489B4
:108DB000042A44F480748481B3D0D3F8C444B3F853
:108DC000C854D3F8C0046560256845F001052560E6
:108DD000A0F848108489052A44F480748481A0D0C6
:108DE000D3F8F445B3F8F855D3F8F0056560256875
:108DF00045F001052560A0F848108489062A44F44E
:108E0000807484818DD0D3F82447B3F82857D3F8E1
:108E100020076560256845F001052560A0F8481029
:108E20008489072A44F4807484813FF47AAFD3F8AC
:108E30005428B3F85808D3F850385060106840F000
:108E400001001060A3F848109A8942F480729A8158
:108E500070BD054626F00EF8217AA9B16DB1194A08
:108E6000002316890133002E18BF0021AB4202F106
:108E70006002F6D100293FF4E7AE00F51C50103037
:108E8000002320602372DFE62368C31A002BFFF65D
:108E900048AF637A3BB1013BDBB263722BB100F5A3
:108EA0007A702060D0E62360CEE6636803442360D6
:108EB000CAE600BFD07C00207CDC0020F00E001051
:108EC00080DC00207CD9002010B5027C01681F2ABC
:108ED0004FF020030ED94C68203A93401C4208D032
:108EE0000B4A406800241470026822F001020260FC
:108EF000CB6010BD0C6893401C42FAD0044A406815
:108F000000241470026822F0010202608B60F0E716
:108F10006CB5002010B5027C01681F2A4FF02003B9
:108F20000ED94C68203A93401C4208D00B4A406846
:108F300000241470026822F001020260CB6010BDB0
:108F40000C6893401C42FAD0044A40680024147014
:108F5000026822F0010202608B60F0E73E640020AC
:108F60002DE9F041C40023189B00B749CA58526844
:108F7000958AADB2EFB2FE070B4461D4BE0737D578
:108F8000BFF35F8F1D7EEDB2012D00F0BB80AF4EB1
:108F9000138BBFF35F8F231801EB83031D7E022D1C
:108FA00000F0CE80231801EB83031D7E032D05D135
:108FB0009B7E1BB1737F002B40F01A81938896F93A
:108FC0001CC043F480639380231801EB83031B7E52
:108FD000013363450AD1B37F00257577002B40F03C
:108FE0008A80204401EB800000234375BDE8F081B6
:108FF000964E17F0040F96F91CC04DD117F040079C
:1090000000F0B280178A1D6AFFB205F80C705FFA93
:109010008CF56F1C93F818E07BB2DF1CBE453377EC
:109020009C4600F00981271801EB87073F7EBB4271
:10903000CAD105F1020C4FFA8CFC86F81CC0C3E7BC
:109040001588824E25F400652D042D0C1580158899
:1090500045F4806515809D7E00273777002D3DD033
:10906000757F002D37D0231801EB830301251B7E6C
:109070007577022B03D1138843F400631380231800
:1090800001EB83039B7D43F001031382204401EB3A
:109090008000037EBDE8F0819F7E757F4FF0010E5A
:1090A00086F81EE0002F5CD0002D78D1231801EB4C
:1090B00083035B7E002B00F0A48013880CF1010C6D
:1090C0004FFA8CFC43F4007386F81CC0138013889D
:1090D000DF05FCD478E7DB7DFF2BC4D0231801EB40
:1090E00083039D7D05F0FE051582DB7DFF2BCDD032
:1090F000FF233377CAE7938823F440731B041B0CC8
:1091000093806EE79B7E514E002B3FF441AF737FFF
:10911000002B3FF43DAF138823F480631B041B0C2A
:109120001380BFF35F8F138B1388B57743F40073FD
:109130001380938896F91CC043F48063938043E7BF
:109140009B7E002B3FF42EAF737F002B3FF42AAFA2
:10915000138896F91CC023F480631B041B0C138036
:1091600016E0002DA2D0A8E72D067FF52DAFBCF1AB
:10917000FF3F6DD0DD6915F80C5015820CF1010C24
:109180001D7E4FFA8CF39D429C4633777FF41CAFD3
:10919000938823F480631B041B0C938014E71F7EC9
:1091A000D3F820805FFA8CF5AE44022F4FFA8EFE82
:1091B00017882DD927F480673F043F0C1780178A42
:1091C000FFB208F80C701788D3F820C047F400737A
:1091D0001380138ADBB20CF80E30938805F1020C71
:1091E0004FFA8CFC43F4806386F81CC093806EE7D2
:1091F000938896F91CC023F480631B041B0C938096
:10920000E2E61388012543F48073138075775EE7E7
:1092100047F400771780178AFFB208F80C70178A96
:10922000D3F8208005F1030C4FFA8CFCFBB286F8D2
:109230001CC008F80E304AE7978827F480673F047F
:109240003F0C9780EFE600BFA882002098280020FE
:10925000DD7D15829D7E37771DB91B7E002B7FF447
:1092600015AF938823F480631B041B0C93800DE7D8
:1092700000230122036003714371C37103724372BF
:10928000C3728271827270472DE9F84FDDE90A647A
:1092900089461746002120229846054643F02CFEB9
:1092A0005EB1D6E900327189EB81C3F30F432B82A3
:1092B000C2F30F43EA822B836982484642F078FE6C
:1092C00017F0100B10D1431E70B119F803202E2A8D
:1092D00018BF09EB030104D14AE011F8016D2E2EED
:1092E0003ED013F1FF33F8D208280246CA46A8BF81
:1092F00008224FF0000B4FF020336B602B60C5F855
:1093000007304946284605F1080643F08FFD5A46C6
:109310005146304643F08AFD6B1EE81D13F8012FBD
:10932000A2F1610119299CBF203A1A708342F5D13C
:1093300005F10B0116F8013BA3F16102192A9CBF4C
:10934000203B06F8013CB142F4D11823C8F30F4288
:10935000EF722B73A5F81A80AA82EC61BDE8F88F32
:10936000C01A00F1FF3BBBF1030FA8BF4FF0030B86
:10937000082B03F1010AA8BF0823CA441A46BAE71A
:1093800038B51E4B1B78044600F1250593B1042225
:109390001B49203043F0EEFD28461422194943F0C2
:1093A000E9FD012384F83A30174B1B788BB984F818
:1093B0003B3038BD14222846144943F0DBFD144AE3
:1093C0000123106884F83A300F4B20621B78002B81
:1093D000EDD0104B186859689A68DD68E560206028
:1093E0006160A260DD69186959699A69A261012307
:1093F000E5612061616184F83B3038BDC5570020CC
:10940000C6570020B4F20020A4570020C03605083B
:10941000CC360508A5570020014B186826F050B837
:109420007888002010B500210446012024F0D2FCE9
:10943000207010BD38B500240472451EE1B2022030
:1094400024F0C8FC0134082C05F8010FF6D138BD12
:1094500038B52C22002143F04FFD0346642140F231
:10946000DC5240F2022019745A821321202240F269
:109470001A4540F26C74188399760E2002211A77EF
:1094800001229D82DC8240F2753540F6430483F868
:10949000220083F82A109A7383F82920DD831C8424
:1094A00019460248BDE838400EF0D2B9D436050856
:1094B0002DE9F04F002087B00C461D460121924651
:1094C00023F0B8FA002D63D005EB0A03DFF8D0943F
:1094D000DFF8D0B4039355461CE0002D00F0C581A1
:1094E000D9F81430AB4264D0D9F81030AB4200F058
:1094F0009780D9E90631AB4252D8A94200F26F8178
:10950000691A204636F0DCFB039B01359D4204F5C9
:1095100000743DD0D9F82060AE42DED8D9F8308052
:10952000AE1B4FEAD60AD8F830300AF1020A9A4543
:1095300006F0070603D3D8F838309A4509D94146D2
:10954000504636F08BFB8046002800F04D81C9F86C
:10955000300098F80430002B40F0E280D8F82870F2
:10956000002F00F0DF81D8F83030D8F80C20AAEBBB
:10957000030A06EBCA0A4346204602EB4A224FF48E
:109580000071B847039B01359D4204F50074C1D1B9
:109590000021084623F04EFA002007B0BDE8F08F06
:1095A000A942ADD94FF400720021204643F0A4FC3B
:1095B000AAE7522261204123002622706270A07027
:1095C000722284F8E70184F8E631D9F82800E370C4
:1095D0004FF0FF33314684F8E42184F8E521C4F8E4
:1095E000E8014FF4F07284F8EC3184F8ED3184F83E
:1095F000EE3184F8EF31201D43F07EFC55216FF0F1
:109600005502C4F8F061C4F8F461C4F8F86184F854
:10961000FC6184F8FD6184F8FE1184F8FF2173E792
:109620004FF400720021204643F066FCD44BD54F26
:1096300003CBEB23022223704FF0080C9026F82373
:109640004FF0580EC4F80300227484F80DC0C4F81B
:10965000071084F801E0A6706375D9F81010D9F8E6
:109660000830D9F81C602273591A21624FF0FF317B
:1096700000233F20A1763E21A273E372E37363745B
:10968000A374E3742375A375E3756376E376637758
:10969000A377E3772076217784F82C2007CFD9F8B9
:1096A000187084F82830F61B84F8293084F82A30A2
:1096B00084F82B3084F82D3084F82E3084F82F3045
:1096C00084F8313084F8323084F833308023666295
:1096D000C4F8470004F1470684F840302920942359
:1096E000A94F84F846C084F8420084F843300E2025
:1096F0000D234FF0010C84F8440084F8453084F8C1
:1097000030C0716003CF33465527AA269A60C4F84B
:109710005200C4F8561084F8FE7184F8FF61F3E635
:109720004FF400720021204643F0E6FBD8F84030A9
:10973000002E61D104F12007002B77D0D8F830300B
:1097400092491122CDE900662046FFF79DFDD8F829
:1097500040301A6C04F1400A002A79D01B6B8C4906
:10976000CDE9006638461122FFF78EFDD8F8446037
:10977000002E3FF4C9AE4FF4E078CDE904450CE08B
:109780000024CDE900C4FFF77FFDB66CBA46A8F10E
:1097900020080EB3B8F11F0F1ED93468356B96F848
:1097A00004E011222B46214650460AF1200706F11B
:1097B0001C0CBEF1000FE3D172793369019342F0C2
:1097C00021022B46CDF800C0FFF75EFDB66CBA460D
:1097D000A8F12008002EDDD1DDE9044594E6E91A60
:1097E000204636F06DFA8FE6231F04F5FE7243F82B
:1097F00004BF9A42FBD187E6002BD8F844200CBF67
:1098000001230223C3EB0613002A3FF47DAE966CBE
:10981000013B002E3FF478AE013BB66CF9D1002E2F
:109820003FF472AEA2464FF40078A6E7CDE9006699
:109830003346D9F80C1008222046FFF725FDD8F84A
:109840004460002E3FF460AEBA464FF4F07894E7DF
:10985000CDE900663346384611224D49FFF714FD25
:10986000D8F84460002E86D14EE64FF400722946A7
:10987000204643F041FB80220C2384F8BE2184F86B
:10988000C231D9F81000434BD9F8086084F8B851B8
:1098900083FB0032C117C1EB2232B2F5806F84F82E
:1098A000B95184F8BA5184F8BB5184F8BC5184F89A
:1098B000BD51C4F8C601C4F8CA6142DBFF2384F875
:1098C000BF3184F8C13184F8C031324B711E83FB43
:1098D0000132CE17C6EB2232B2F5806F29DA2E4B59
:1098E00084F8C52183FB01030B442C48C6EB6313AA
:1098F000C3EB831680FB0370891B1844DE1792109C
:1099000022F03F020131C6EBE0100A43034484F821
:10991000C42184F8C3315522AA2384F8FE2184F897
:10992000FF31F1E539464FF40072204643F0E4FA86
:10993000EAE5FF2384F8C33184F8C53184F8C431E3
:10994000E9E7154B84F8C12183FB00730344134FEF
:10995000C1EB631387FB0317C3EB831C9110A0EBD0
:109960000C02F818DF1721F03F010132C7EBE010BD
:109970000A43034484F8C02184F8BF31A5E700BF3F
:10998000E8360508F436050804370508E03605080A
:10999000E436050897554541832008828180808000
:1099A00080CA0020DEADBEEF10B5044C04480A4664
:1099B00021462AF041FD204610BD00BFB8280020F6
:1099C0001037050810B5044C04480A4621462AF011
:1099D00033FD204610BD00BFB82800202037050801
:1099E00010B5044C04480A4621462AF025FD2046BD
:1099F00010BD00BFB82800202C3705080A4608B55E
:109A0000054920B105482AF017FD034808BD044860
:109A10002AF012FD004808BDB82800205837050874
:109A200040370508064B53F820302BB11A689B8845
:109A300051690B4201D1138370475383704700BFB4
:109A4000D0B6002003682DE9F04F03F13F4404F540
:109A50007E04534EA40A0125345D04F01F066409F8
:109A6000032C05FA06F500F09580042C00F08D809B
:109A7000022C46D08588B5FA85F0C0F11F0080B26F
:109A8000C40803EB840400F00700266A80000F2757
:109A9000874026EA07062662276A01F0030602FAD3
:109AA00000F0721E3843012AC1F3810EC1F3001881
:109AB00020624FEA51114FF000024FF0010C25D9FE
:109AC0004FF0030E0CFA02F0A84315D150001F68A6
:109AD0000EFA00F4E44327401F60D3F8008006FA32
:109AE00000F747EA08071F60DF683C40DC60DC687D
:109AF00001FA00F02043D8600132102AE2D1BDE81B
:109B0000F08F284C666C35436564B3E74FF003096A
:109B10000CFA02F737EA050033D15000D3F800A061
:109B200009FA00F4E4430AEA040AC3F800A0D3F8EF
:109B300000B006FA00FA4AEA0B0AC3F800A0D3F80C
:109B400008A004EA0A0AC3F808A0D3F808B00EFA7D
:109B500000FA4AEA0B0AC3F808A0D3F804A02AEADC
:109B600007075F60D3F804A008FA02F747EA0A077C
:109B70005F60DF683C40DC60DC6801FA00F0204395
:109B8000D8600132102AC3D1B9E7064C266B3543A1
:109B900025636FE7034C266C354325646AE700BFF5
:109BA000FC2A05080038024010B50409013C032CCA
:109BB00017D80E4B33F8142000F00F0042FA00F3D0
:109BC00013F001030FD0012303FA00F00138104015
:109BD00042F02AFF064A074B125D104403EBC00017
:109BE00010BD002010BD184610BD00BFB42D0508E3
:109BF000BC2D050810B700202DE9F04F4A484B490D
:109C00004B4B4C4C4FF0010A4FF002094FF0040847
:109C10004FF0080E4FF0100C20274026802530F81A
:109C2000022B12F0010F03D01960A3F804A008332F
:109C300012F0020F03D01960A3F80490083312F059
:109C4000040F03D01960A3F80480083312F0080F42
:109C500003D01960A3F804E0083312F0100F03D00A
:109C60001960A3F804C0083312F0200F02D0196065
:109C70009F80083312F0400F02D019609E80083395
:109C800012F0800F02D019609D80083312F4807F9B
:109C900005D04FF4807B1960A3F804B0083312F4A8
:109CA000007F05D04FF4007B1960A3F804B008339F
:109CB00012F4806F05D04FF4806B1960A3F804B0E4
:109CC000083312F4006F05D04FF4006B1960A3F84D
:109CD00004B0083312F4805F05D04FF4805B196044
:109CE000A3F804B0083312F4005F05D04FF4005B12
:109CF0001960A3F804B0083312F4804F05D04FF474
:109D0000804B1960A3F804B00833D20B04D04FF491
:109D1000004219609A80083301F58061A1427FF406
:109D20007EAFBDE8F08F00BFB42D050800000240F3
:109D300010B700200010024000B9704703682DE9F9
:109D4000F04F03F13F4404F57E04534EA40A01256D
:109D5000345D04F01F066409032C05FA06F500F0D3
:109D60009580042C00F08D80022C45D08588B5FAB2
:109D700085F0C0F11F0080B2C40803EB840400F03A
:109D80000700266A80000F27874026EA070626621A
:109D9000276A01F003068240701E3A4301282262BE
:109DA000C1F3810EC1F300184FF000024FEA5111C8
:109DB0004FF0010C25D94FF0030E0CFA02F0A84326
:109DC00015D150001F680EFA00F4E44327401F60CD
:109DD000D3F8008006FA00F747EA08071F60DF683B
:109DE0003C40DC60DC6801FA00F02043D8600132BE
:109DF000102AE2D1BDE8F08F284C666C35436564CB
:109E0000B4E74FF003090CFA02F737EA050033D143
:109E10005000D3F800A009FA00F4E4430AEA040A67
:109E2000C3F800A0D3F800B006FA00FA4AEA0B0A19
:109E3000C3F800A0D3F808A004EA0A0AC3F808A0EF
:109E4000D3F808B00EFA00FA4AEA0B0AC3F808A0E1
:109E5000D3F804A02AEA07075F60D3F804A008FA41
:109E600002F747EA0A075F60DF683C40DC60DC68B5
:109E700001FA00F02043D8600132102AC3D1BDE8B6
:109E8000F08F064C266B354325636FE7034C266C39
:109E9000354325646AE700BFFC2A05080038024004
:109EA00000B97047036803F13F4202F57E022DE9D5
:109EB000F04F920A464DAA5C02F01F055209012498
:109EC000032A04FA05F47ED0042A77D0022A30D07F
:109ED00001F00306721E012AC1F3810EC1F30018BE
:109EE0008588C1F341114FF000024FF0010C25D9D4
:109EF0004FF0030E0CFA02F0A84315D150001F6872
:109F00000EFA00F4E44327401F60D3F8008006FAFD
:109F100000F747EA08071F60DF683C40DC60DC6848
:109F200001FA00F02043D8600132102AE2D1BDE8E6
:109F3000F08F284A556C2C435464C9E74FF003094D
:109F40000CFA02F737EA050033D15000D3F800A02D
:109F500009FA00F4E4430AEA040AC3F800A0D3F8BB
:109F600000B006FA00FA4AEA0B0AC3F800A0D3F8D8
:109F700008A004EA0A0AC3F808A0D3F808B00EFA49
:109F800000FA4AEA0B0AC3F808A0D3F804A02AEAA8
:109F900007075F60D3F804A008FA02F747EA0A0748
:109FA0005F60DF683C40DC60DC6801FA00F0204361
:109FB000D8600132102AC3D1BDE8F08F054A156B75
:109FC0002C43146384E7034A156C2C4314647FE725
:109FD000FC2A05080038024010B1036882885A83C1
:109FE000704700BF10B1036882881A83704700BFB2
:109FF00018B10368828809B95A8370471A83704779
:10A0000030B1036882881B691A4214BF0120002006
:10A01000704700BF2DE9F0410C4E356873691D4053
:10A0200011D0DFF82C800127B5FA85F4C4F11F04A4
:10A0300008EB840307FA04F4D3F820010368984777
:10A04000A5437461F0D1BDE8F08100BF003C014040
:10A05000982800202DE9F0410C4E356873691D40A9
:10A0600011D0DFF82C800127B5FA85F4C4F11F0464
:10A0700008EB840307FA04F4D3F820010368984737
:10A08000A5437461F0D1BDE8F08100BF003C014000
:10A09000982800202DE9F0410C4E356873691D4069
:10A0A00011D0DFF82C800127B5FA85F4C4F11F0424
:10A0B00008EB840307FA04F4D3F8200103689847F7
:10A0C000A5437461F0D1BDE8F08100BF003C0140C0
:10A0D000982800202DE9F0410C4E356873691D4029
:10A0E00011D0DFF82C800127B5FA85F4C4F11F04E4
:10A0F00008EB840307FA04F4D3F8200103689847B7
:10A10000A5437461F0D1BDE8F08100BF003C01407F
:10A11000982800202DE9F0410C4E356873691D40E8
:10A1200011D0DFF82C800127B5FA85F4C4F11F04A3
:10A1300008EB840307FA04F4D3F820010368984776
:10A14000A5437461F0D1BDE8F08100BF003C01403F
:10A15000982800202DE9F0410C4E356873691D40A8
:10A1600011D0DFF82C800127B5FA85F4C4F11F0463
:10A1700008EB840307FA04F4D3F820010368984736
:10A18000A5437461F0D1BDE8F08100BF003C0140FF
:10A19000982800202DE9F0410C4E356873691D4068
:10A1A00011D0DFF82C800127B5FA85F4C4F11F0423
:10A1B00008EB840307FA04F4D3F8200103689847F6
:10A1C000A5437461F0D1BDE8F08100BF003C0140BF
:10A1D00098280020002875D02DE9F0418488B4FA31
:10A1E00084F4C4F11F04651C82B002D102B0BDE842
:10A1F000F081E7B207F0FC0606F1804606F59C36D2
:10A2000007F00307D6F808E0DFF8C4C00068BF0015
:10A210004FF00F0808FA07F82EEA08050CEB840E39
:10A2200000F13F40CEF8201100F57E00B560D6F871
:10A2300008E02549254DC0F38720B8400127A740F5
:10A2400040EA0E00B0604F610E68F84306400E60B1
:10A250004E6806404E600E683E430E608E680640B3
:10A260008E60CE682C443040102BC86094F86C008F
:10A2700021D003F1804303F59E33196839431960F7
:10A2800084449CF860319342B0DD0544941195F804
:10A290007C308DF804300021012301A88CF8602166
:10A2A0008DF805408DF806108DF807302BF0CEFAAA
:10A2B00002B0BDE8F0818B683B438B60CB681F43E5
:10A2C000CF60DDE7704700BF003C0140F0E60408C6
:10A2D00098280020094A10B5536C094C43F4804378
:10A2E000536404F590704022002142F005FE4FF0C7
:10A2F000FF33C4F86031C4F8633110BD0038024048
:10A300009828002010B58B68016004469847002209
:10A31000FF230121A2736373217310BD03685B6A7D
:10A32000184700BF03681B6A184700BF70B44E1C73
:10A330000568C2728672AC69A44670BC604700BFF3
:10A340002DE9F041044618460D4616461F4641F0D9
:10A350002FFE2844A0722068E672294645693B46D4
:10A3600032462046AC46BDE8F0416047036810B570
:10A3700004461B689847236820469B689847A37B40
:10A380000133A37310BD00BF10B5036804469B687A
:10A390009847FF2301226373227310BD38B50D4621
:10A3A000FFF702FC044648B136238371C5710121D1
:10A3B000FFF776FD2046BDE8384013E638BD38B5D6
:10A3C0000D46FFF7F1FB044648B135238371C57193
:10A3D0002021FFF765FD2046BDE8384002E638BD84
:10A3E0000B4B984211D0A3F57443984202D04FF022
:10A3F000FF3070470222074B03EB02135A890132E8
:10A4000092B25A81588980B270470022F3E700BFA8
:10A410000030014088B60020F0B5876983B0064659
:10A4200017B13B68BA885A837069DFF8A8E083895E
:10A43000C3244FF47A734FF0060C6D464FF6FF714C
:10A440000EF1010E03E0013B9BB28B4220D002894A
:10A450009207F8D5A3B283814FF47A7302E0A3B2D6
:10A460008B4215D00289D20703F1FF34F7D58289D8
:10A4700092B20DB12A700135BCF1000F0BD00CF176
:10A48000FF3CFF24BEF1000FE1D09EF80040D7E76B
:10A49000FFF7A6FFB76917B13B68BA881A839DF822
:10A4A00005009DF801509DF802109DF803409DF8AD
:10A4B00004209DF8063041EA052143EA002342EAE0
:10A4C00004220120A6F85010A6F85220A6F8543015
:10A4D00003B0F0BD74E7040808B540F2E93300E0CA
:10A4E000A3B10289013B12F0020F9BB2F8D089B2EE
:10A4F000818140F2E93300E043B10289013B12F06F
:10A50000010F9BB2F8D08089C0B208BDFFF768FF89
:10A51000C0B208BD427A4AB110B5044604F10A013E
:10A52000D0E9003098470023637210BD704700BF28
:10A53000437A5A1C0344D2B242729972037A93420C
:10A540000AD84AB110B5044604F10A01D0E9003036
:10A5500098470023637210BD704700BF48B10123C4
:10A56000302803FA01F101D0312803D14A0709D17B
:10A57000002070473228F9D03328F7D0342803D18F
:10A580008B07F5D0012070473528F9D02028F7D067
:10A590002128F5D01028E9D01128E7D01228E5D0DD
:10A5A0001328E3D01428EBD01528E9D0162804D1BD
:10A5B00011F0030018BF012070471728D8D111F0FF
:10A5C000030018BF01207047302829D0312829D036
:10A5D000322829D0332829D0342829D0352829D029
:10A5E00020282BD021282BD0102825D0112829D085
:10A5F000122829D0132829D0142829D0152829D089
:10A60000162805D0172808BF0F2302D00020704756
:10A610000E23114A03EB4303134493F88E00704753
:10A620000023F6E70123F4E70223F2E70323F0E730
:10A630000423EEE70523ECE70823EAE70623E8E72F
:10A640000723E6E70923E4E70A23E2E70B23E0E731
:10A650000C23DEE70D23DCE7F0E60408024A13686A
:10A6600023EA000010607047BC760020F8B504684B
:10A67000C4F30D0405460E4604B32F682BF0F2F91F
:10A68000092840F08880454C236923F440732361F6
:10A69000236943F400732361236943F001032361B9
:10A6A0003E602BF0DFF92369092823F001032361C1
:10A6B00071D12B6804332B60002035E0384B394AC8
:10A6C00093422BD902F58042934226D902F580426B
:10A6D00093422AD902F58042934228D902F580326A
:10A6E000934226D902F50032934224D902F5003272
:10A6F000934222D902F50032934220D902F500326A
:10A7000093421ED902F5802293421CD9B3F1016F06
:10A710001BD3052023F002FEFBE708242BF0A2F94F
:10A72000092814D04FF0FF30F8BD1024F6E71824A4
:10A73000F4E72024F2E72824F0E73024EEE7382479
:10A74000ECE74024EAE74824E8E75824E6E7134F1B
:10A750003B6923F440733B613B6943F400733B6105
:10A760003B6923F0F8033B613B6943F002031C4360
:10A770003C613B6943F480333B612BF073F93B69E7
:10A7800023F002033B613B69092823F0F8033B6196
:10A790003FF473AFC6E76FF00100C5E7003C02402D
:10A7A00000400008FF3F0008F8B504460D468E182B
:10A7B0000027B542206900D1F8BDE368591CE1606B
:10A7C000234415F8012B1A720429F2D118B9A16893
:10A7D0002046FFF74BFFC4E90370EAE730B4026894
:10A7E0001146531C036011F8024B0160D31C5178D1
:10A7F00003609378151D05601B0443EA0123D0789C
:10A80000234343EA006030BC704700BF0368591C13
:10A810001A46016012F8021B0260587841EA0020D3
:10A82000704700BF03685A1C02601878704700BF69
:10A8300070B5044608460E4641F0BAFB314605465F
:10A840000246206842F0F2FA20682844206070BD79
:10A8500038B504460068154642F0E8FA22682A44F2
:10A86000226038BD036810B40A0E5C1C04601A70C4
:10A8700003680A0C5C1C04601A7003680A0A5C1CFA
:10A8800004601A7003685A1C026019705DF8044B6A
:10A89000704700BF036810B40A0A5C1C04601A7099
:10A8A00003685A1C026019705DF8044B704700BFC2
:10A8B00003685A1C026010B4197003680A0A5C1C11
:10A8C00004601A7003680A0C5C1C04601A70036848
:10A8D000090E5A1C026019705DF8044B704700BFE6
:10A8E00003685A1C026019700368090A5A1C026046
:10A8F0001970704710EE103AC3F3160242F07E5200
:10A9000007EE102ADFED167ADFED164A9FED165A94
:10A91000DFED165A9FED166ADFED163ADFED166A87
:10A920009FED164AE7EE274ADB1507EE903AA4EEB4
:10A93000875AF8EEE77AE5EE075A67EEA37AA5EEB6
:10A94000876AB5EEC00AE6EE077AF1EE10FAD4BFD8
:10A95000B0EE440AB0EE660A37EE800A704700BFD8
:10A96000DACDFE3CB9D593BE5CB8903FAA841DC039
:10A9700022E061401872313F07F1B3C2000080FF4E
:10A98000DFED1D3ADFED1D7A9FED1D7A9FED1D4A2B
:10A99000DFED1D4A9FED1D5ADFED1D5A9FED1D6A2B
:10A9A000DFED1D6AE0EE237AF4EEC77AF1EE10FADD
:10A9B00088BFF0EE477AF4EEC47AF1EE10FAB8BF31
